{
  "_format": "hh-sol-artifact-1",
  "contractName": "FlightDelayRiskModule",
  "sourceName": "contracts/FlightDelayRiskModule.sol",
  "abi": [
    {
      "inputs": [
        {
          "internalType": "contract IPolicyPool",
          "name": "policyPool_",
          "type": "address"
        }
      ],
      "stateMutability": "nonpayable",
      "type": "constructor"
    },
    {
      "anonymous": false,
      "inputs": [
        {
          "indexed": false,
          "internalType": "address",
          "name": "previousAdmin",
          "type": "address"
        },
        {
          "indexed": false,
          "internalType": "address",
          "name": "newAdmin",
          "type": "address"
        }
      ],
      "name": "AdminChanged",
      "type": "event"
    },
    {
      "anonymous": false,
      "inputs": [
        {
          "indexed": true,
          "internalType": "address",
          "name": "beacon",
          "type": "address"
        }
      ],
      "name": "BeaconUpgraded",
      "type": "event"
    },
    {
      "anonymous": false,
      "inputs": [
        {
          "indexed": true,
          "internalType": "bytes32",
          "name": "id",
          "type": "bytes32"
        }
      ],
      "name": "ChainlinkCancelled",
      "type": "event"
    },
    {
      "anonymous": false,
      "inputs": [
        {
          "indexed": true,
          "internalType": "bytes32",
          "name": "id",
          "type": "bytes32"
        }
      ],
      "name": "ChainlinkFulfilled",
      "type": "event"
    },
    {
      "anonymous": false,
      "inputs": [
        {
          "indexed": true,
          "internalType": "bytes32",
          "name": "id",
          "type": "bytes32"
        }
      ],
      "name": "ChainlinkRequested",
      "type": "event"
    },
    {
      "anonymous": false,
      "inputs": [
        {
          "indexed": true,
          "internalType": "enum IPolicyPoolConfig.GovernanceActions",
          "name": "action",
          "type": "uint8"
        },
        {
          "indexed": false,
          "internalType": "uint256",
          "name": "value",
          "type": "uint256"
        }
      ],
      "name": "GovernanceAction",
      "type": "event"
    },
    {
      "anonymous": false,
      "inputs": [
        {
          "indexed": false,
          "internalType": "address",
          "name": "account",
          "type": "address"
        }
      ],
      "name": "Paused",
      "type": "event"
    },
    {
      "anonymous": false,
      "inputs": [
        {
          "indexed": true,
          "internalType": "bytes32",
          "name": "role",
          "type": "bytes32"
        },
        {
          "indexed": true,
          "internalType": "bytes32",
          "name": "previousAdminRole",
          "type": "bytes32"
        },
        {
          "indexed": true,
          "internalType": "bytes32",
          "name": "newAdminRole",
          "type": "bytes32"
        }
      ],
      "name": "RoleAdminChanged",
      "type": "event"
    },
    {
      "anonymous": false,
      "inputs": [
        {
          "indexed": true,
          "internalType": "bytes32",
          "name": "role",
          "type": "bytes32"
        },
        {
          "indexed": true,
          "internalType": "address",
          "name": "account",
          "type": "address"
        },
        {
          "indexed": true,
          "internalType": "address",
          "name": "sender",
          "type": "address"
        }
      ],
      "name": "RoleGranted",
      "type": "event"
    },
    {
      "anonymous": false,
      "inputs": [
        {
          "indexed": true,
          "internalType": "bytes32",
          "name": "role",
          "type": "bytes32"
        },
        {
          "indexed": true,
          "internalType": "address",
          "name": "account",
          "type": "address"
        },
        {
          "indexed": true,
          "internalType": "address",
          "name": "sender",
          "type": "address"
        }
      ],
      "name": "RoleRevoked",
      "type": "event"
    },
    {
      "anonymous": false,
      "inputs": [
        {
          "indexed": false,
          "internalType": "address",
          "name": "account",
          "type": "address"
        }
      ],
      "name": "Unpaused",
      "type": "event"
    },
    {
      "anonymous": false,
      "inputs": [
        {
          "indexed": true,
          "internalType": "address",
          "name": "implementation",
          "type": "address"
        }
      ],
      "name": "Upgraded",
      "type": "event"
    },
    {
      "inputs": [],
      "name": "DEFAULT_ADMIN_ROLE",
      "outputs": [
        {
          "internalType": "bytes32",
          "name": "",
          "type": "bytes32"
        }
      ],
      "stateMutability": "view",
      "type": "function"
    },
    {
      "inputs": [],
      "name": "DELAY_EXPIRATION_TIMES",
      "outputs": [
        {
          "internalType": "uint40",
          "name": "",
          "type": "uint40"
        }
      ],
      "stateMutability": "view",
      "type": "function"
    },
    {
      "inputs": [],
      "name": "GUARDIAN_ROLE",
      "outputs": [
        {
          "internalType": "bytes32",
          "name": "",
          "type": "bytes32"
        }
      ],
      "stateMutability": "view",
      "type": "function"
    },
    {
      "inputs": [],
      "name": "LEVEL1_ROLE",
      "outputs": [
        {
          "internalType": "bytes32",
          "name": "",
          "type": "bytes32"
        }
      ],
      "stateMutability": "view",
      "type": "function"
    },
    {
      "inputs": [],
      "name": "LEVEL2_ROLE",
      "outputs": [
        {
          "internalType": "bytes32",
          "name": "",
          "type": "bytes32"
        }
      ],
      "stateMutability": "view",
      "type": "function"
    },
    {
      "inputs": [],
      "name": "LEVEL3_ROLE",
      "outputs": [
        {
          "internalType": "bytes32",
          "name": "",
          "type": "bytes32"
        }
      ],
      "stateMutability": "view",
      "type": "function"
    },
    {
      "inputs": [],
      "name": "ORACLE_ADMIN_ROLE",
      "outputs": [
        {
          "internalType": "bytes32",
          "name": "",
          "type": "bytes32"
        }
      ],
      "stateMutability": "view",
      "type": "function"
    },
    {
      "inputs": [],
      "name": "PRICER_ROLE",
      "outputs": [
        {
          "internalType": "bytes32",
          "name": "",
          "type": "bytes32"
        }
      ],
      "stateMutability": "view",
      "type": "function"
    },
    {
      "inputs": [],
      "name": "RM_PROVIDER_ROLE",
      "outputs": [
        {
          "internalType": "bytes32",
          "name": "",
          "type": "bytes32"
        }
      ],
      "stateMutability": "view",
      "type": "function"
    },
    {
      "inputs": [],
      "name": "TWEAK_EXPIRATION",
      "outputs": [
        {
          "internalType": "uint40",
          "name": "",
          "type": "uint40"
        }
      ],
      "stateMutability": "view",
      "type": "function"
    },
    {
      "inputs": [],
      "name": "currency",
      "outputs": [
        {
          "internalType": "contract IERC20Metadata",
          "name": "",
          "type": "address"
        }
      ],
      "stateMutability": "view",
      "type": "function"
    },
    {
      "inputs": [],
      "name": "ensuroFee",
      "outputs": [
        {
          "internalType": "uint256",
          "name": "",
          "type": "uint256"
        }
      ],
      "stateMutability": "view",
      "type": "function"
    },
    {
      "inputs": [
        {
          "internalType": "bytes32",
          "name": "queryId",
          "type": "bytes32"
        },
        {
          "internalType": "int256",
          "name": "actualArrivalDate",
          "type": "int256"
        }
      ],
      "name": "fulfill",
      "outputs": [],
      "stateMutability": "nonpayable",
      "type": "function"
    },
    {
      "inputs": [
        {
          "internalType": "uint256",
          "name": "payout",
          "type": "uint256"
        },
        {
          "internalType": "uint256",
          "name": "lossProb",
          "type": "uint256"
        },
        {
          "internalType": "uint40",
          "name": "expiration",
          "type": "uint40"
        }
      ],
      "name": "getMinimumPremium",
      "outputs": [
        {
          "internalType": "uint256",
          "name": "",
          "type": "uint256"
        }
      ],
      "stateMutability": "view",
      "type": "function"
    },
    {
      "inputs": [
        {
          "internalType": "bytes32",
          "name": "role",
          "type": "bytes32"
        }
      ],
      "name": "getRoleAdmin",
      "outputs": [
        {
          "internalType": "bytes32",
          "name": "",
          "type": "bytes32"
        }
      ],
      "stateMutability": "view",
      "type": "function"
    },
    {
      "inputs": [
        {
          "internalType": "bytes32",
          "name": "role",
          "type": "bytes32"
        },
        {
          "internalType": "address",
          "name": "account",
          "type": "address"
        }
      ],
      "name": "grantRole",
      "outputs": [],
      "stateMutability": "nonpayable",
      "type": "function"
    },
    {
      "inputs": [
        {
          "internalType": "bytes32",
          "name": "role",
          "type": "bytes32"
        },
        {
          "internalType": "address",
          "name": "account",
          "type": "address"
        }
      ],
      "name": "hasRole",
      "outputs": [
        {
          "internalType": "bool",
          "name": "",
          "type": "bool"
        }
      ],
      "stateMutability": "view",
      "type": "function"
    },
    {
      "inputs": [
        {
          "internalType": "string",
          "name": "name_",
          "type": "string"
        },
        {
          "internalType": "uint256",
          "name": "scrPercentage_",
          "type": "uint256"
        },
        {
          "internalType": "uint256",
          "name": "ensuroFee_",
          "type": "uint256"
        },
        {
          "internalType": "uint256",
          "name": "scrInterestRate_",
          "type": "uint256"
        },
        {
          "internalType": "uint256",
          "name": "maxScrPerPolicy_",
          "type": "uint256"
        },
        {
          "internalType": "uint256",
          "name": "scrLimit_",
          "type": "uint256"
        },
        {
          "internalType": "address",
          "name": "wallet_",
          "type": "address"
        },
        {
          "internalType": "address",
          "name": "linkToken_",
          "type": "address"
        },
        {
          "components": [
            {
              "internalType": "address",
              "name": "oracle",
              "type": "address"
            },
            {
              "internalType": "uint96",
              "name": "delayTime",
              "type": "uint96"
            },
            {
              "internalType": "uint256",
              "name": "fee",
              "type": "uint256"
            },
            {
              "internalType": "bytes16",
              "name": "dataJobId",
              "type": "bytes16"
            },
            {
              "internalType": "bytes16",
              "name": "sleepJobId",
              "type": "bytes16"
            }
          ],
          "internalType": "struct FlightDelayRiskModule.OracleParams",
          "name": "oracleParams_",
          "type": "tuple"
        }
      ],
      "name": "initialize",
      "outputs": [],
      "stateMutability": "nonpayable",
      "type": "function"
    },
    {
      "inputs": [],
      "name": "lastTweak",
      "outputs": [
        {
          "internalType": "uint40",
          "name": "",
          "type": "uint40"
        },
        {
          "internalType": "uint56",
          "name": "",
          "type": "uint56"
        }
      ],
      "stateMutability": "view",
      "type": "function"
    },
    {
      "inputs": [],
      "name": "maxScrPerPolicy",
      "outputs": [
        {
          "internalType": "uint256",
          "name": "",
          "type": "uint256"
        }
      ],
      "stateMutability": "view",
      "type": "function"
    },
    {
      "inputs": [],
      "name": "moc",
      "outputs": [
        {
          "internalType": "uint256",
          "name": "",
          "type": "uint256"
        }
      ],
      "stateMutability": "view",
      "type": "function"
    },
    {
      "inputs": [],
      "name": "name",
      "outputs": [
        {
          "internalType": "string",
          "name": "",
          "type": "string"
        }
      ],
      "stateMutability": "view",
      "type": "function"
    },
    {
      "inputs": [
        {
          "internalType": "string",
          "name": "flight",
          "type": "string"
        },
        {
          "internalType": "uint40",
          "name": "departure",
          "type": "uint40"
        },
        {
          "internalType": "uint40",
          "name": "expectedArrival",
          "type": "uint40"
        },
        {
          "internalType": "uint40",
          "name": "tolerance",
          "type": "uint40"
        },
        {
          "internalType": "uint256",
          "name": "payout",
          "type": "uint256"
        },
        {
          "internalType": "uint256",
          "name": "premium",
          "type": "uint256"
        },
        {
          "internalType": "uint256",
          "name": "lossProb",
          "type": "uint256"
        },
        {
          "internalType": "address",
          "name": "customer",
          "type": "address"
        },
        {
          "internalType": "uint96",
          "name": "internalId",
          "type": "uint96"
        }
      ],
      "name": "newPolicy",
      "outputs": [
        {
          "internalType": "uint256",
          "name": "",
          "type": "uint256"
        }
      ],
      "stateMutability": "nonpayable",
      "type": "function"
    },
    {
      "inputs": [],
      "name": "oracleParams",
      "outputs": [
        {
          "components": [
            {
              "internalType": "address",
              "name": "oracle",
              "type": "address"
            },
            {
              "internalType": "uint96",
              "name": "delayTime",
              "type": "uint96"
            },
            {
              "internalType": "uint256",
              "name": "fee",
              "type": "uint256"
            },
            {
              "internalType": "bytes16",
              "name": "dataJobId",
              "type": "bytes16"
            },
            {
              "internalType": "bytes16",
              "name": "sleepJobId",
              "type": "bytes16"
            }
          ],
          "internalType": "struct FlightDelayRiskModule.OracleParams",
          "name": "",
          "type": "tuple"
        }
      ],
      "stateMutability": "view",
      "type": "function"
    },
    {
      "inputs": [],
      "name": "pause",
      "outputs": [],
      "stateMutability": "nonpayable",
      "type": "function"
    },
    {
      "inputs": [],
      "name": "paused",
      "outputs": [
        {
          "internalType": "bool",
          "name": "",
          "type": "bool"
        }
      ],
      "stateMutability": "view",
      "type": "function"
    },
    {
      "inputs": [],
      "name": "policyPool",
      "outputs": [
        {
          "internalType": "contract IPolicyPool",
          "name": "",
          "type": "address"
        }
      ],
      "stateMutability": "view",
      "type": "function"
    },
    {
      "inputs": [
        {
          "internalType": "uint256",
          "name": "scrAmount",
          "type": "uint256"
        }
      ],
      "name": "releaseScr",
      "outputs": [],
      "stateMutability": "nonpayable",
      "type": "function"
    },
    {
      "inputs": [
        {
          "internalType": "bytes32",
          "name": "role",
          "type": "bytes32"
        },
        {
          "internalType": "address",
          "name": "account",
          "type": "address"
        }
      ],
      "name": "renounceRole",
      "outputs": [],
      "stateMutability": "nonpayable",
      "type": "function"
    },
    {
      "inputs": [
        {
          "internalType": "uint256",
          "name": "policyId",
          "type": "uint256"
        }
      ],
      "name": "resolvePolicy",
      "outputs": [
        {
          "internalType": "uint256",
          "name": "",
          "type": "uint256"
        }
      ],
      "stateMutability": "nonpayable",
      "type": "function"
    },
    {
      "inputs": [
        {
          "internalType": "bytes32",
          "name": "role",
          "type": "bytes32"
        },
        {
          "internalType": "address",
          "name": "account",
          "type": "address"
        }
      ],
      "name": "revokeRole",
      "outputs": [],
      "stateMutability": "nonpayable",
      "type": "function"
    },
    {
      "inputs": [],
      "name": "scrInterestRate",
      "outputs": [
        {
          "internalType": "uint256",
          "name": "",
          "type": "uint256"
        }
      ],
      "stateMutability": "view",
      "type": "function"
    },
    {
      "inputs": [],
      "name": "scrLimit",
      "outputs": [
        {
          "internalType": "uint256",
          "name": "",
          "type": "uint256"
        }
      ],
      "stateMutability": "view",
      "type": "function"
    },
    {
      "inputs": [],
      "name": "scrPercentage",
      "outputs": [
        {
          "internalType": "uint256",
          "name": "",
          "type": "uint256"
        }
      ],
      "stateMutability": "view",
      "type": "function"
    },
    {
      "inputs": [
        {
          "internalType": "uint256",
          "name": "newEnsuroFee",
          "type": "uint256"
        }
      ],
      "name": "setEnsuroFee",
      "outputs": [],
      "stateMutability": "nonpayable",
      "type": "function"
    },
    {
      "inputs": [
        {
          "internalType": "uint256",
          "name": "newMaxScrPerPolicy",
          "type": "uint256"
        }
      ],
      "name": "setMaxScrPerPolicy",
      "outputs": [],
      "stateMutability": "nonpayable",
      "type": "function"
    },
    {
      "inputs": [
        {
          "internalType": "uint256",
          "name": "newMoc",
          "type": "uint256"
        }
      ],
      "name": "setMoc",
      "outputs": [],
      "stateMutability": "nonpayable",
      "type": "function"
    },
    {
      "inputs": [
        {
          "components": [
            {
              "internalType": "address",
              "name": "oracle",
              "type": "address"
            },
            {
              "internalType": "uint96",
              "name": "delayTime",
              "type": "uint96"
            },
            {
              "internalType": "uint256",
              "name": "fee",
              "type": "uint256"
            },
            {
              "internalType": "bytes16",
              "name": "dataJobId",
              "type": "bytes16"
            },
            {
              "internalType": "bytes16",
              "name": "sleepJobId",
              "type": "bytes16"
            }
          ],
          "internalType": "struct FlightDelayRiskModule.OracleParams",
          "name": "newParams",
          "type": "tuple"
        }
      ],
      "name": "setOracleParams",
      "outputs": [],
      "stateMutability": "nonpayable",
      "type": "function"
    },
    {
      "inputs": [
        {
          "internalType": "uint256",
          "name": "newScrInterestRate",
          "type": "uint256"
        }
      ],
      "name": "setScrInterestRate",
      "outputs": [],
      "stateMutability": "nonpayable",
      "type": "function"
    },
    {
      "inputs": [
        {
          "internalType": "uint256",
          "name": "newScrLimit",
          "type": "uint256"
        }
      ],
      "name": "setScrLimit",
      "outputs": [],
      "stateMutability": "nonpayable",
      "type": "function"
    },
    {
      "inputs": [
        {
          "internalType": "uint256",
          "name": "newScrPercentage",
          "type": "uint256"
        }
      ],
      "name": "setScrPercentage",
      "outputs": [],
      "stateMutability": "nonpayable",
      "type": "function"
    },
    {
      "inputs": [
        {
          "internalType": "address",
          "name": "wallet_",
          "type": "address"
        }
      ],
      "name": "setWallet",
      "outputs": [],
      "stateMutability": "nonpayable",
      "type": "function"
    },
    {
      "inputs": [
        {
          "internalType": "bytes4",
          "name": "interfaceId",
          "type": "bytes4"
        }
      ],
      "name": "supportsInterface",
      "outputs": [
        {
          "internalType": "bool",
          "name": "",
          "type": "bool"
        }
      ],
      "stateMutability": "view",
      "type": "function"
    },
    {
      "inputs": [],
      "name": "totalScr",
      "outputs": [
        {
          "internalType": "uint256",
          "name": "",
          "type": "uint256"
        }
      ],
      "stateMutability": "view",
      "type": "function"
    },
    {
      "inputs": [],
      "name": "unpause",
      "outputs": [],
      "stateMutability": "nonpayable",
      "type": "function"
    },
    {
      "inputs": [
        {
          "internalType": "address",
          "name": "newImplementation",
          "type": "address"
        }
      ],
      "name": "upgradeTo",
      "outputs": [],
      "stateMutability": "nonpayable",
      "type": "function"
    },
    {
      "inputs": [
        {
          "internalType": "address",
          "name": "newImplementation",
          "type": "address"
        },
        {
          "internalType": "bytes",
          "name": "data",
          "type": "bytes"
        }
      ],
      "name": "upgradeToAndCall",
      "outputs": [],
      "stateMutability": "payable",
      "type": "function"
    },
    {
      "inputs": [],
      "name": "wallet",
      "outputs": [
        {
          "internalType": "address",
          "name": "",
          "type": "address"
        }
      ],
      "stateMutability": "view",
      "type": "function"
    }
  ],
  "bytecode": "0x60c06040523060601b6080523480156200001857600080fd5b5060405162005de338038062005de38339810160408190526200003b9162000051565b60601b6001600160601b03191660a05262000083565b6000602082840312156200006457600080fd5b81516001600160a01b03811681146200007c57600080fd5b9392505050565b60805160601c60a05160601c615ca86200013b600039600081816104e801528181610a9a01528181610c6e015281816110db015281816115d00152818161180e015281816118c801528181611c5701528181611d7901528181611f840152818161203801528181612219015281816123fe015281816125a501528181612e4a01528181613464015281816135120152613706015260008181610f5701528181610f970152818161151401526115540152615ca86000f3fe6080604052600436106102935760003560e01c80638003a94f1161015a578063ced2f285116100c1578063deaa59df1161007a578063deaa59df146108e5578063e5a6b10f14610905578063e61735c01461091a578063f33323a41461093a578063f67b2bad1461095a578063fbb812791461097c57600080fd5b8063ced2f28514610759578063cf0d24831461076e578063cf0e55f61461086f578063d44499a81461088f578063d547741f146108a5578063dab5d88d146108c557600080fd5b8063a217fddf11610113578063a217fddf146106a4578063a9a24f27146106b9578063b9ea870a146106ed578063bda71d041461070d578063bf8e934d1461072d578063ca996de31461074357600080fd5b80638003a94f146105e55780638456cb59146106195780638bac3a241461062e57806391d148541461064e5780639cbbcd921461066e5780639d90724d1461068e57600080fd5b806341ea6a0f116101fe578063521eb273116101b7578063521eb2731461053357806353428253146105525780635b494dd5146105685780635c975abb1461058a5780635d505fe7146105a25780637ed5acfa146105b857600080fd5b806341ea6a0f14610446578063468a8c9f1461045c57806347ef20a8146104975780634a47a3e0146104b75780634d15eb03146104d95780634f1ef2861461052057600080fd5b80632f2ff15d116102505780632f2ff15d1461039157806330a01b8b146103b157806336568abe146103d15780633659cfe6146103f15780633b24223c146104115780633f4ba83a1461043157600080fd5b806301ffc9a71461029857806306fdde03146102cd578063089a8504146102ef57806322875d6314610311578063248a9ca31461033157806324ea54f41461036f575b600080fd5b3480156102a457600080fd5b506102b86102b33660046152fe565b6109b0565b60405190151581526020015b60405180910390f35b3480156102d957600080fd5b506102e26109e7565b6040516102c49190615660565b3480156102fb57600080fd5b5061030f61030a366004615293565b610a7a565b005b34801561031d57600080fd5b5061030f61032c366004615293565b610c4e565b34801561033d57600080fd5b5061036161034c366004615293565b600090815260c9602052604090206001015490565b6040519081526020016102c4565b34801561037b57600080fd5b50610361600080516020615c5383398151915281565b34801561039d57600080fd5b5061030f6103ac3660046152ac565b610e12565b3480156103bd57600080fd5b5061030f6103cc366004615345565b610e38565b3480156103dd57600080fd5b5061030f6103ec3660046152ac565b610ece565b3480156103fd57600080fd5b5061030f61040c3660046151f0565b610f4c565b34801561041d57600080fd5b5061036161042c366004615293565b611015565b34801561043d57600080fd5b5061030f6110bb565b34801561045257600080fd5b5061013454610361565b34801561046857600080fd5b5061012d546040805164ffffffffff83168152600160281b90920466ffffffffffffff166020830152016102c4565b3480156104a357600080fd5b506103616104b23660046153ea565b6111d1565b3480156104c357600080fd5b50610361600080516020615c3383398151915281565b3480156104e557600080fd5b507f00000000000000000000000000000000000000000000000000000000000000005b6040516001600160a01b0390911681526020016102c4565b61030f61052e36600461520d565b611509565b34801561053f57600080fd5b50610136546001600160a01b0316610508565b34801561055e57600080fd5b5061013054610361565b34801561057457600080fd5b50610361600080516020615bec83398151915281565b34801561059657600080fd5b5060fb5460ff166102b8565b3480156105ae57600080fd5b5061013354610361565b3480156105c457600080fd5b506105cf6201518081565b60405164ffffffffff90911681526020016102c4565b3480156105f157600080fd5b506103617fc307c44629779eb8fc0b85f224c3d22f5876a6c84de0ee42d481eb7814f0d3a881565b34801561062557600080fd5b5061030f6115bf565b34801561063a57600080fd5b506103616106493660046154c0565b6116c7565b34801561065a57600080fd5b506102b86106693660046152ac565b6117e0565b34801561067a57600080fd5b5061030f610689366004615293565b61180b565b34801561069a57600080fd5b5061013254610361565b3480156106b057600080fd5b50610361600081565b3480156106c557600080fd5b506103617f0df0a8869cf58168a14cd7ac426ff1b8c6ff5d5c800c6f44803f3431dcb3bad181565b3480156106f957600080fd5b5061030f610708366004615293565b6118a8565b34801561071957600080fd5b5061030f6107283660046152dc565b611a63565b34801561073957600080fd5b5061012f54610361565b34801561074f57600080fd5b5061013554610361565b34801561076557600080fd5b506105cf600581565b34801561077a57600080fd5b506108106040805160a081018252600080825260208201819052918101829052606081018290526080810191909152506040805160a08101825261013d546001600160a01b03811682526001600160601b03600160a01b90910416602082015261013e549181019190915261013f546001600160801b0319608082811b82166060850152600160801b909204821b169082015290565b6040516102c4919081516001600160a01b031681526020808301516001600160601b031690820152604080830151908201526060808301516001600160801b031990811691830191909152608092830151169181019190915260a00190565b34801561087b57600080fd5b5061030f61088a36600461548b565b611cbc565b34801561089b57600080fd5b5061013154610361565b3480156108b157600080fd5b5061030f6108c03660046152ac565b611d33565b3480156108d157600080fd5b5061030f6108e0366004615293565b611d59565b3480156108f157600080fd5b5061030f6109003660046151f0565b611f20565b34801561091157600080fd5b50610508611f80565b34801561092657600080fd5b5061030f610935366004615293565b612018565b34801561094657600080fd5b5061030f610955366004615293565b6121dd565b34801561096657600080fd5b50610361600080516020615bcc83398151915281565b34801561098857600080fd5b506103617fc6823861ee2bb2198ce6b1fd6faf4c8f44f745bc804aca4a762f67e0d507fd8a81565b60006001600160e01b03198216637965db0b60e01b14806109e157506301ffc9a760e01b6001600160e01b03198316145b92915050565b606061012e80546109f790615aff565b80601f0160208091040260200160405190810160405280929190818152602001828054610a2390615aff565b8015610a705780601f10610a4557610100808354040283529160200191610a70565b820191906000526020600020905b815481529060010190602001808311610a5357829003601f168201915b5050505050905090565b600080516020615c33833981519152600080516020615bec8339815191527f00000000000000000000000000000000000000000000000000000000000000006001600160a01b03166379502c556040518163ffffffff1660e01b815260040160206040518083038186803b158015610af157600080fd5b505afa158015610b05573d6000803e3d6000fd5b505050506040513d601f19601f82011682018060405250810190610b299190615328565b6001600160a01b031663c5b8f5cf8383336040518463ffffffff1660e01b8152600401610b5893929190615641565b60006040518083038186803b158015610b7057600080fd5b505afa158015610b84573d6000803e3d6000fd5b505050506000610ba1600080516020615c338339815191526125a1565b159050801580610bc55750610bc561013154856af8277896582678ac0000006126b4565b610c2e5760405162461bcd60e51b815260206004820152602f60248201527f547765616b2065786365656465643a20656e7375726f46656520747765616b7360448201526e206f6e6c7920757020746f2033302560881b60648201526084015b60405180910390fd5b610131849055610c40600a858361273f565b50610c49612798565b505050565b600080516020615c33833981519152600080516020615bec8339815191527f00000000000000000000000000000000000000000000000000000000000000006001600160a01b03166379502c556040518163ffffffff1660e01b815260040160206040518083038186803b158015610cc557600080fd5b505afa158015610cd9573d6000803e3d6000fd5b505050506040513d601f19601f82011682018060405250810190610cfd9190615328565b6001600160a01b031663c5b8f5cf8383336040518463ffffffff1660e01b8152600401610d2c93929190615641565b60006040518083038186803b158015610d4457600080fd5b505afa158015610d58573d6000803e3d6000fd5b505050506000610d75600080516020615c338339815191526125a1565b159050801580610d965750610d966101335485670429d069189e0000612a66565b610e005760405162461bcd60e51b815260206004820152603560248201527f547765616b2065786365656465643a206d6178536372506572506f6c69637920604482015274747765616b73206f6e6c7920757020746f2033302560581b6064820152608401610c25565b610133849055610c40600b858361273f565b600082815260c96020526040902060010154610e2e8133612ad5565b610c498383612b39565b600054610100900460ff1680610e51575060005460ff16155b610e6d5760405162461bcd60e51b8152600401610c259061570b565b600054610100900460ff16158015610e8f576000805461ffff19166101011790555b610e9e8a8a8a8a8a8a8a612bbf565b610ea6612c51565b610eb08383612cc2565b8015610ec2576000805461ff00191690555b50505050505050505050565b6001600160a01b0381163314610f3e5760405162461bcd60e51b815260206004820152602f60248201527f416363657373436f6e74726f6c3a2063616e206f6e6c792072656e6f756e636560448201526e103937b632b9903337b91039b2b63360891b6064820152608401610c25565b610f488282612d95565b5050565b306001600160a01b037f0000000000000000000000000000000000000000000000000000000000000000161415610f955760405162461bcd60e51b8152600401610c2590615673565b7f00000000000000000000000000000000000000000000000000000000000000006001600160a01b0316610fc7612dfc565b6001600160a01b031614610fed5760405162461bcd60e51b8152600401610c25906156bf565b610ff681612e2a565b6040805160008082526020820190925261101291839190612f3d565b50565b60007fc6823861ee2bb2198ce6b1fd6faf4c8f44f745bc804aca4a762f67e0d507fd8a6110428133612ad5565b600083815261014160205260409020600b810154600160281b900464ffffffffff166110a45760405162461bcd60e51b8152602060048201526011602482015270506f6c696379206e6f7420666f756e642160781b6044820152606401610c25565b6110b084826000613081565b839250505b50919050565b600080516020615c53833981519152600080516020615bcc8339815191527f00000000000000000000000000000000000000000000000000000000000000006001600160a01b03166379502c556040518163ffffffff1660e01b815260040160206040518083038186803b15801561113257600080fd5b505afa158015611146573d6000803e3d6000fd5b505050506040513d601f19601f8201168201806040525081019061116a9190615328565b6001600160a01b031663c5b8f5cf8383336040518463ffffffff1660e01b815260040161119993929190615641565b60006040518083038186803b1580156111b157600080fd5b505afa1580156111c5573d6000803e3d6000fd5b50505050610f4861327e565b60007fc6823861ee2bb2198ce6b1fd6faf4c8f44f745bc804aca4a762f67e0d507fd8a6111fe8133612ad5565b428964ffffffffff16116112605760405162461bcd60e51b8152602060048201526024808201527f65787065637465644172726976616c2063616e277420626520696e20746865206044820152631c185cdd60e21b6064820152608401610c25565b64ffffffffff8a161580159061128357508964ffffffffff168964ffffffffff16115b6112cf5760405162461bcd60e51b815260206004820152601d60248201527f65787065637465644172726976616c203c3d20646570617274757265210000006044820152606401610c25565b61013d546000906112f290600590600160a01b90046001600160601b0316615a2f565b6112fc8a8c6158e8565b61130691906158e8565b90506000611318898989858a8a613311565b9050600061014160008360000151815260200190815260200160002090508181600001600082015181600001556020820151816001015560408201518160020155606082015181600301556080820151816004015560a0820151816005015560c0820151816006015560e0820151816007015561010082015181600801556101208201518160090160006101000a8154816001600160a01b0302191690836001600160a01b031602179055506101408201518160090160146101000a81548164ffffffffff021916908364ffffffffff1602179055506101608201518160090160196101000a81548164ffffffffff021916908364ffffffffff1602179055509050508d81600a019080519060200190611433929190614f39565b508c81600b0160006101000a81548164ffffffffff021916908364ffffffffff1602179055508b81600b0160056101000a81548164ffffffffff021916908364ffffffffff1602179055508a81600b01600a6101000a81548164ffffffffff021916908364ffffffffff160217905550600061013d60000160149054906101000a90046001600160601b03166001600160601b03168c8e6114d491906158e8565b64ffffffffff166114e591906158d0565b90506114f683600001518383613081565b5050519c9b505050505050505050505050565b306001600160a01b037f00000000000000000000000000000000000000000000000000000000000000001614156115525760405162461bcd60e51b8152600401610c2590615673565b7f00000000000000000000000000000000000000000000000000000000000000006001600160a01b0316611584612dfc565b6001600160a01b0316146115aa5760405162461bcd60e51b8152600401610c25906156bf565b6115b382612e2a565b610f4882826001612f3d565b600080516020615c538339815191527f00000000000000000000000000000000000000000000000000000000000000006001600160a01b03166379502c556040518163ffffffff1660e01b815260040160206040518083038186803b15801561162757600080fd5b505afa15801561163b573d6000803e3d6000fd5b505050506040513d601f19601f8201168201806040525081019061165f9190615328565b6040516312d9a6ad60e01b8152600481018390523360248201526001600160a01b0391909116906312d9a6ad9060440160006040518083038186803b1580156116a757600080fd5b505afa1580156116bb573d6000803e3d6000fd5b5050505061101261379f565b6000806116f86116f36116e46116dd6101305490565b879061381a565b6116ed886138f1565b9061381a565b61396f565b9050600061171361170c6116f36101315490565b83906139f7565b9050600081836117306117296116f361012f5490565b8a906139f7565b61173a9190615a5c565b6117449190615a5c565b905060006117846116f36e0612d847b578e7643c28ac0000000061176f4264ffffffffff8b16615a5c565b610132545b61177e9190615a10565b90613aaa565b905061179082826139f7565b61179a9083615a5c565b915060006117a883836139f7565b90506117d1670de27d72f9c74000826117c187896158d0565b6117cb91906158d0565b906139f7565b955050505050505b9392505050565b600091825260c9602090815260408084206001600160a01b0393909316845291905290205460ff1690565b337f00000000000000000000000000000000000000000000000000000000000000006001600160a01b03161461188d5760405162461bcd60e51b815260206004820152602160248201527f5468652063616c6c6572206d7573742062652074686520506f6c696379506f6f6044820152601b60fa1b6064820152608401610c25565b8061013560008282546118a09190615a5c565b909155505050565b600080516020615c33833981519152600080516020615bec8339815191527f00000000000000000000000000000000000000000000000000000000000000006001600160a01b03166379502c556040518163ffffffff1660e01b815260040160206040518083038186803b15801561191f57600080fd5b505afa158015611933573d6000803e3d6000fd5b505050506040513d601f19601f820116820180604052508101906119579190615328565b6001600160a01b031663c5b8f5cf8383336040518463ffffffff1660e01b815260040161198693929190615641565b60006040518083038186803b15801561199e57600080fd5b505afa1580156119b2573d6000803e3d6000fd5b5050505060006119cf600080516020615c338339815191526125a1565b1590508015806119f357506119f361013054856a52b7d2dcc80cd2e40000006126b4565b611a515760405162461bcd60e51b815260206004820152602960248201527f547765616b2065786365656465643a206d6f6320747765616b73206f6e6c7920604482015268757020746f2031302560b81b6064820152608401610c25565b610130849055610c406008858361273f565b600082815261013c602052604090205482906001600160a01b03163314611add5760405162461bcd60e51b815260206004820152602860248201527f536f75726365206d75737420626520746865206f7261636c65206f6620746865604482015267081c995c5d595cdd60c21b6064820152608401610c25565b600081815261013c602052604080822080546001600160a01b03191690555182917f7cc135e0cebb02c3480ae5d74d377283180a2601f8f644edf7987b009316c63a91a26000838152610140602052604090205480611b735760405162461bcd60e51b815260206004820152601260248201527171756572794964206e6f7420666f756e642160701b6044820152606401610c25565b60008181526101416020526040902083611c0157600b810154611bad9064ffffffffff600160501b8204811691600160281b9004166158e8565b64ffffffffff16421115611bfa57600b810154611be19064ffffffffff600160501b8204811691600160281b9004166158e8565b611bec9060016158e8565b64ffffffffff169350611c01565b5050505050565b60008085131580611c3d5750600b820154611c339064ffffffffff600160501b8204811691600160281b9004166158e8565b64ffffffffff1685115b604051630336ed0760e11b81529091506001600160a01b037f0000000000000000000000000000000000000000000000000000000000000000169063066dda0e90611c8e9085908590600401615824565b600060405180830381600087803b158015611ca857600080fd5b505af1158015610ec2573d6000803e3d6000fd5b7fc307c44629779eb8fc0b85f224c3d22f5876a6c84de0ee42d481eb7814f0d3a8611ce78133612ad5565b50805160208201516001600160601b0316600160a01b026001600160a01b039091161761013d55604081015161013e556060810151608091820151821c600160801b02911c1761013f55565b600082815260c96020526040902060010154611d4f8133612ad5565b610c498383612d95565b600080516020615c33833981519152600080516020615bec8339815191527f00000000000000000000000000000000000000000000000000000000000000006001600160a01b03166379502c556040518163ffffffff1660e01b815260040160206040518083038186803b158015611dd057600080fd5b505afa158015611de4573d6000803e3d6000fd5b505050506040513d601f19601f82011682018060405250810190611e089190615328565b6001600160a01b031663c5b8f5cf8383336040518463ffffffff1660e01b8152600401611e3793929190615641565b60006040518083038186803b158015611e4f57600080fd5b505afa158015611e63573d6000803e3d6000fd5b505050506000611e80600080516020615c338339815191526125a1565b159050801580611ea45750611ea461013254856af8277896582678ac0000006126b4565b611f0e5760405162461bcd60e51b815260206004820152603560248201527f547765616b2065786365656465643a20736372496e7465726573745261746520604482015274747765616b73206f6e6c7920757020746f2033302560581b6064820152608401610c25565b610132849055610c406009858361273f565b7f0df0a8869cf58168a14cd7ac426ff1b8c6ff5d5c800c6f44803f3431dcb3bad1611f4b8133612ad5565b61013680546001600160a01b0319166001600160a01b038416908117909155611f7890600f90600061273f565b610f48612798565b60007f00000000000000000000000000000000000000000000000000000000000000006001600160a01b031663e5a6b10f6040518163ffffffff1660e01b815260040160206040518083038186803b158015611fdb57600080fd5b505afa158015611fef573d6000803e3d6000fd5b505050506040513d601f19601f820116820180604052508101906120139190615328565b905090565b600080516020615c33833981519152600080516020615bec8339815191527f00000000000000000000000000000000000000000000000000000000000000006001600160a01b03166379502c556040518163ffffffff1660e01b815260040160206040518083038186803b15801561208f57600080fd5b505afa1580156120a3573d6000803e3d6000fd5b505050506040513d601f19601f820116820180604052508101906120c79190615328565b6001600160a01b031663c5b8f5cf8383336040518463ffffffff1660e01b81526004016120f693929190615641565b60006040518083038186803b15801561210e57600080fd5b505afa158015612122573d6000803e3d6000fd5b50505050600061213f600080516020615c338339815191526125a1565b159050801580612163575061216361012f54856a52b7d2dcc80cd2e40000006126b4565b6121cb5760405162461bcd60e51b815260206004820152603360248201527f547765616b2065786365656465643a2073637250657263656e7461676520747760448201527265616b73206f6e6c7920757020746f2031302560681b6064820152608401610c25565b61012f849055610c406007858361273f565b600080516020615bcc833981519152600080516020615c33833981519152600080516020615bec833981519152612213836125a1565b612308577f00000000000000000000000000000000000000000000000000000000000000006001600160a01b03166379502c556040518163ffffffff1660e01b815260040160206040518083038186803b15801561227057600080fd5b505afa158015612284573d6000803e3d6000fd5b505050506040513d601f19601f820116820180604052508101906122a89190615328565b6001600160a01b031663c5b8f5cf8383336040518463ffffffff1660e01b81526004016122d793929190615641565b60006040518083038186803b1580156122ef57600080fd5b505afa158015612303573d6000803e3d6000fd5b505050505b6000612321600080516020615c338339815191526125a1565b1580156123425750612340600080516020615bcc8339815191526125a1565b155b90508015806123625750612362610134548667016345785d8a0000612a66565b6123c55760405162461bcd60e51b815260206004820152602e60248201527f547765616b2065786365656465643a207363724c696d697420747765616b732060448201526d6f6e6c7920757020746f2031302560901b6064820152608401610c25565b61013454851115806123e957506123e9600080516020615bcc8339815191526125a1565b8061248f57508461248d67016345785d8a00007f00000000000000000000000000000000000000000000000000000000000000006001600160a01b031663b77ddfea6040518163ffffffff1660e01b815260040160206040518083038186803b15801561245557600080fd5b505afa158015612469573d6000803e3d6000fd5b505050506040513d601f19601f820116820180604052508101906117cb91906154a7565b115b6125165760405162461bcd60e51b815260206004820152604c60248201527f547765616b2065786365656465643a20496e6372656173652c203e3d3130252060448201527f6f662074686520746f74616c206c69717569646974792c20726571756972657360648201526b204c4556454c315f524f4c4560a01b608482015260a401610c25565b610135548510156125805760405162461bcd60e51b815260206004820152602e60248201527f43616e27742073657420534352206c657373207468616e2063757272656e742060448201526d29a1a91030b63637b1b0ba34b7b760911b6064820152608401610c25565b610134859055612592600c868361273f565b5061259b612798565b50505050565b60007f00000000000000000000000000000000000000000000000000000000000000006001600160a01b03166379502c556040518163ffffffff1660e01b815260040160206040518083038186803b1580156125fc57600080fd5b505afa158015612610573d6000803e3d6000fd5b505050506040513d601f19601f820116820180604052508101906126349190615328565b604051632474521560e21b8152600481018490523360248201526001600160a01b0391909116906391d148549060440160206040518083038186803b15801561267c57600080fd5b505afa158015612690573d6000803e3d6000fd5b505050506040513d601f19601f820116820180604052508101906109e19190615271565b6000828414156126c6575060016117d9565b836126e05750676765c793fa10079d601b1b8110156117d9565b826126ed575060006117d9565b8284101561271f5781676765c793fa10079d601b1b61270c8587613aaa565b6127169190615a5c565b111590506117d9565b8161272a8486613aaa565b61271690676765c793fa10079d601b1b615a5c565b801561274e5761274e83613bb0565b82601b81111561276057612760615b74565b6040518381527f7bc647fe5043209e2019aa3503b79c1b0dd83eb61c56013d373a7584ff6bfb139060200160405180910390a2505050565b676765c793fa10079d601b1b61012f54111580156127b95750600061012f54115b6128135760405162461bcd60e51b815260206004820152602560248201527f56616c69646174696f6e3a2073637250657263656e74616765206d757374206260448201526465203c3d3160d81b6064820152608401610c25565b612829676765c793fa10079d601b1b6002615a10565b6101305411158015612853575061284c6002676765c793fa10079d601b1b615911565b6101305410155b61289f5760405162461bcd60e51b815260206004820181905260248201527f56616c69646174696f6e3a206d6f63206d757374206265205b302e352c20325d6044820152606401610c25565b676765c793fa10079d601b1b6101315411156129085760405162461bcd60e51b815260206004820152602260248201527f56616c69646174696f6e3a20656e7375726f466565206d757374206265203c3d604482015261203160f01b6064820152608401610c25565b676765c793fa10079d601b1b61013254111561297e5760405162461bcd60e51b815260206004820152602f60248201527f56616c69646174696f6e3a20736372496e74657265737452617465206d75737460448201526e206265203c3d20312028313030252960881b6064820152608401610c25565b610135546101345410156129fa5760405162461bcd60e51b815260206004820152603760248201527f56616c69646174696f6e3a207363724c696d69742063616e2774206265206c6560448201527f7373207468616e2061637475616c20746f74616c5363720000000000000000006064820152608401610c25565b610136546001600160a01b0316612a645760405162461bcd60e51b815260206004820152602860248201527f56616c69646174696f6e3a2057616c6c65742063616e2774206265207a65726f604482015267206164647265737360c01b6064820152608401610c25565b565b600082841415612a78575060016117d9565b83612a8f5750670de0b6b3a76400008110156117d9565b82612a9c575060006117d9565b82841015612ab85781670de0b6b3a764000061270c8587613d13565b81612ac38486613d13565b61271690670de0b6b3a7640000615a5c565b612adf82826117e0565b610f4857612af7816001600160a01b03166014613dff565b612b02836020613dff565b604051602001612b1392919061553d565b60408051601f198184030181529082905262461bcd60e51b8252610c2591600401615660565b612b4382826117e0565b610f4857600082815260c9602090815260408083206001600160a01b03851684529091529020805460ff19166001179055612b7b3390565b6001600160a01b0316816001600160a01b0316837f2f8788117e7eff1d82e926ec794901d17c78024a50270940304540a733656f0d60405160405180910390a45050565b600054610100900460ff1680612bd8575060005460ff16155b612bf45760405162461bcd60e51b8152600401610c259061570b565b600054610100900460ff16158015612c16576000805461ffff19166101011790555b612c1e613f9b565b612c2661401e565b612c3588888888888888614085565b8015612c47576000805461ff00191690555b5050505050505050565b600054610100900460ff1680612c6a575060005460ff16155b612c865760405162461bcd60e51b8152600401610c259061570b565b600054610100900460ff16158015612ca8576000805461ffff19166101011790555b600161013b558015611012576000805461ff001916905550565b600054610100900460ff1680612cdb575060005460ff16155b612cf75760405162461bcd60e51b8152600401610c259061570b565b600054610100900460ff16158015612d19576000805461ffff19166101011790555b61013980546001600160a01b0319166001600160a01b038516179055815160208301516001600160601b0316600160a01b026001600160a01b039091161761013d55604082015161013e556060820151608080840151811c600160801b0291901c1761013f558015610c49576000805461ff0019169055505050565b612d9f82826117e0565b15610f4857600082815260c9602090815260408083206001600160a01b0385168085529252808320805460ff1916905551339285917ff6391f5c32d9c69d2a47ea670b442974b53935d1edc7fd64eb21e047a839171b9190a45050565b7f360894a13ba1a3210667c828492db98dca3e2076cc3735a920a3ca505d382bbc546001600160a01b031690565b600080516020615c53833981519152600080516020615bcc8339815191527f00000000000000000000000000000000000000000000000000000000000000006001600160a01b03166379502c556040518163ffffffff1660e01b815260040160206040518083038186803b158015612ea157600080fd5b505afa158015612eb5573d6000803e3d6000fd5b505050506040513d601f19601f82011682018060405250810190612ed99190615328565b6001600160a01b031663c5b8f5cf8383336040518463ffffffff1660e01b8152600401612f0893929190615641565b60006040518083038186803b158015612f2057600080fd5b505afa158015612f34573d6000803e3d6000fd5b50505050505050565b6000612f47612dfc565b9050612f5284614155565b600083511180612f5f5750815b15612f7057612f6e84846141fa565b505b7f4910fdfa16fed3260ed0e7147f7cc6da11a60208b5b9406d12a635614ffd9143805460ff16611bfa57805460ff191660011781556040516001600160a01b0383166024820152612fef90869060440160408051601f198184030181529190526020810180516001600160e01b0316631b2ce7f360e11b1790526141fa565b50805460ff19168155613000612dfc565b6001600160a01b0316826001600160a01b0316146130785760405162461bcd60e51b815260206004820152602f60248201527f45524331393637557067726164653a207570677261646520627265616b73206660448201526e75727468657220757067726164657360881b6064820152608401610c25565b611bfa856142e5565b60006130bf821561309f5761013f54600160801b900460801b6130a7565b61013f5460801b5b6001600160801b03191630632f69c74160e21b614325565b905061318060405180604001604052806006815260200165199b1a59da1d60d21b81525084600a0180546130f290615aff565b80601f016020809104026020016040519081016040528092919081815260200182805461311e90615aff565b801561316b5780601f106131405761010080835404028352916020019161316b565b820191906000526020600020905b81548152906001019060200180831161314e57829003601f168201915b5050505050836143419092919063ffffffff16565b6131de60405180604001604052806008815260200167195b991c1bda5b9d60c21b8152506040518060400160405280601181526020017061637475616c6172726976616c6461746560781b815250836143419092919063ffffffff16565b60408051808201909152600981526864657061727475726560b81b6020820152600b84015461321591839164ffffffffff1661435f565b8115613243576040805180820190915260058152641d5b9d1a5b60da1b60208201526132439082908461435f565b61013d5461013e54600091613265916001600160a01b0390911690849061437d565b6000908152610140602052604090209490945550505050565b60fb5460ff166132c75760405162461bcd60e51b815260206004820152601460248201527314185d5cd8589b194e881b9bdd081c185d5cd95960621b6044820152606401610c25565b60fb805460ff191690557f5db9ee0a495bf2e6ff9c91a7834c1ba4fdd244a5e8aa4e537bd38aeae4b073aa335b6040516001600160a01b03909116815260200160405180910390a1565b613319614fbd565b60fb5460ff161561335f5760405162461bcd60e51b815260206004820152601060248201526f14185d5cd8589b194e881c185d5cd95960821b6044820152606401610c25565b8686106133ae5760405162461bcd60e51b815260206004820181905260248201527f5072656d69756d206d757374206265206c657373207468616e207061796f75746044820152606401610c25565b4264ffffffffff168464ffffffffff161161340b5760405162461bcd60e51b815260206004820181905260248201527f45787069726174696f6e206d75737420626520696e20746865206675747572656044820152606401610c25565b6001600160a01b0383166134615760405162461bcd60e51b815260206004820152601e60248201527f437573746f6d65722063616e2774206265207a65726f206164647265737300006044820152606401610c25565b857f00000000000000000000000000000000000000000000000000000000000000006001600160a01b031663e5a6b10f6040518163ffffffff1660e01b815260040160206040518083038186803b1580156134bb57600080fd5b505afa1580156134cf573d6000803e3d6000fd5b505050506040513d601f19601f820116820180604052508101906134f39190615328565b604051636eb1769f60e11b81526001600160a01b0386811660048301527f000000000000000000000000000000000000000000000000000000000000000081166024830152919091169063dd62ed3e9060440160206040518083038186803b15801561355e57600080fd5b505afa158015613572573d6000803e3d6000fd5b505050506040513d601f19601f8201168201806040525081019061359691906154a7565b10156135fa5760405162461bcd60e51b815260206004820152602d60248201527f596f75206d75737420616c6c6f7720454e5355524f20746f207472616e73666560448201526c7220746865207072656d69756d60981b6064820152608401610c25565b600061360930888a8989614394565b9050610133548160600151111561367a5760405162461bcd60e51b815260206004820152602f60248201527f5269736b4d6f64756c653a20534352206973206d6f7265207468616e206d617860448201526e696d756d2070657220706f6c69637960881b6064820152608401610c25565b8060600151610135600082825461369191906158d0565b9091555050610134546101355411156136ec5760405162461bcd60e51b815260206004820152601e60248201527f5269736b4d6f64756c653a20534352206c696d697420657863656564656400006044820152606401610c25565b604051630cb8251d60e11b81526000906001600160a01b037f000000000000000000000000000000000000000000000000000000000000000016906319704a3a9061373f90859089908990600401615759565b602060405180830381600087803b15801561375957600080fd5b505af115801561376d573d6000803e3d6000fd5b505050506040513d601f19601f8201168201806040525081019061379191906154a7565b825250979650505050505050565b60fb5460ff16156137e55760405162461bcd60e51b815260206004820152601060248201526f14185d5cd8589b194e881c185d5cd95960821b6044820152606401610c25565b60fb805460ff191660011790557f62e78cea01bee320cd4e420270b5ea74000d11b0c9f74754ebdbfc544b05a2586132f43390565b6000821580613827575081155b15613834575060006109e1565b8161384b6002676765c793fa10079d601b1b615911565b61385790600019615a5c565b6138619190615911565b8311156138bc5760405162461bcd60e51b8152602060048201526024808201527f7261794d756c3a204d617468204d756c7469706c69636174696f6e204f766572604482015263666c6f7760e01b6064820152608401610c25565b676765c793fa10079d601b1b6138d3600282615911565b6138dd8486615a10565b6138e791906158d0565b6117d99190615911565b600080613902633b9aca0084615a10565b905082613913633b9aca0083615911565b146109e15760405162461bcd60e51b815260206004820152602660248201527f776164546f5261643a204d617468204d756c7469706c69636174696f6e204f766044820152656572666c6f7760d01b6064820152608401610c25565b6000806139816002633b9aca00615911565b9050600061398f84836158d0565b9050818110156139e15760405162461bcd60e51b815260206004820181905260248201527f726179546f5761643a204d617468204164646974696f6e204f766572666c6f776044820152606401610c25565b6139ef633b9aca0082615911565b949350505050565b6000821580613a04575081155b15613a11575060006109e1565b81613a256002670de0b6b3a7640000615911565b613a3190600019615a5c565b613a3b9190615911565b831115613a965760405162461bcd60e51b8152602060048201526024808201527f7761644d756c3a204d617468204d756c7469706c69636174696f6e204f766572604482015263666c6f7760e01b6064820152608401610c25565b670de0b6b3a76400006138d3600282615911565b600081613af95760405162461bcd60e51b815260206004820152601860248201527f7261794469763a204469766973696f6e206279207a65726f00000000000000006044820152606401610c25565b6000613b06600284615911565b9050676765c793fa10079d601b1b613b2082600019615a5c565b613b2a9190615911565b841115613b855760405162461bcd60e51b8152602060048201526024808201527f7261794469763a204d617468204d756c7469706c69636174696f6e204f766572604482015263666c6f7760e01b6064820152608401610c25565b8281613b9c676765c793fa10079d601b1b87615a10565b613ba691906158d0565b6139ef9190615911565b6000600182601b811115613bc657613bc6615b74565b613bd09190615a99565b61012d54600160ff929092169190911b91506201518090613bf89064ffffffffff1642615a73565b64ffffffffff161115613c365761012d805466ffffffffffffff8316600160281b026001600160601b031990911664ffffffffff4216171790555050565b61012d54600160281b9004811666ffffffffffffff16613c955761012d805464ffffffffff421664ffffffffff1966ffffffffffffff808616600160281b808604929092161702166001600160601b0319909216919091171790555050565b60405162461bcd60e51b815260206004820152604760248201527f596f7520616c726561647920747765616b6564207468697320706172616d657460448201527f657220726563656e746c792e2057616974206265666f726520747765616b696e606482015266339030b3b0b4b760c91b608482015260a401610c25565b600081613d625760405162461bcd60e51b815260206004820152601860248201527f7761644469763a204469766973696f6e206279207a65726f00000000000000006044820152606401610c25565b6000613d6f600284615911565b9050670de0b6b3a7640000613d8682600019615a5c565b613d909190615911565b841115613deb5760405162461bcd60e51b8152602060048201526024808201527f7761644469763a204d617468204d756c7469706c69636174696f6e204f766572604482015263666c6f7760e01b6064820152608401610c25565b8281613b9c670de0b6b3a764000087615a10565b60606000613e0e836002615a10565b613e199060026158d0565b67ffffffffffffffff811115613e3157613e31615ba0565b6040519080825280601f01601f191660200182016040528015613e5b576020820181803683370190505b509050600360fc1b81600081518110613e7657613e76615b8a565b60200101906001600160f81b031916908160001a905350600f60fb1b81600181518110613ea557613ea5615b8a565b60200101906001600160f81b031916908160001a9053506000613ec9846002615a10565b613ed49060016158d0565b90505b6001811115613f4c576f181899199a1a9b1b9c1cb0b131b232b360811b85600f1660108110613f0857613f08615b8a565b1a60f81b828281518110613f1e57613f1e615b8a565b60200101906001600160f81b031916908160001a90535060049490941c93613f4581615ae8565b9050613ed7565b5083156117d95760405162461bcd60e51b815260206004820181905260248201527f537472696e67733a20686578206c656e67746820696e73756666696369656e746044820152606401610c25565b600054610100900460ff1680613fb4575060005460ff16155b613fd05760405162461bcd60e51b8152600401610c259061570b565b600054610100900460ff16158015613ff2576000805461ffff19166101011790555b613ffa614752565b614002614752565b61400a614752565b8015611012576000805461ff001916905550565b600054610100900460ff1680614037575060005460ff16155b6140535760405162461bcd60e51b8152600401610c259061570b565b600054610100900460ff16158015614075576000805461ffff19166101011790555b61407d6147bc565b61400a61481a565b600054610100900460ff168061409e575060005460ff16155b6140ba5760405162461bcd60e51b8152600401610c259061570b565b600054610100900460ff161580156140dc576000805461ffff19166101011790555b87516140f09061012e9060208b0190614f39565b5061012f879055676765c793fa10079d601b1b61013055610131869055610132859055610133849055610134839055600061013581905561013680546001600160a01b0319166001600160a01b03851617905561414d9033614881565b612c35612798565b803b6141b95760405162461bcd60e51b815260206004820152602d60248201527f455243313936373a206e657720696d706c656d656e746174696f6e206973206e60448201526c1bdd08184818dbdb9d1c9858dd609a1b6064820152608401610c25565b7f360894a13ba1a3210667c828492db98dca3e2076cc3735a920a3ca505d382bbc80546001600160a01b0319166001600160a01b0392909216919091179055565b6060823b6142595760405162461bcd60e51b815260206004820152602660248201527f416464726573733a2064656c65676174652063616c6c20746f206e6f6e2d636f6044820152651b9d1c9858dd60d21b6064820152608401610c25565b600080846001600160a01b0316846040516142749190615521565b600060405180830381855af49150503d80600081146142af576040519150601f19603f3d011682016040523d82523d6000602084013e6142b4565b606091505b50915091506142dc8282604051806060016040528060278152602001615c0c6027913961488b565b95945050505050565b6142ee81614155565b6040516001600160a01b038216907fbc7cd75a20ee27fd9adebab32041f755214dbc6bffa90cc0225b39da2e5c2d3b90600090a250565b61432d615035565b614335615035565b6142dc818686866148c4565b60808301516143509083614901565b6080830151610c499082614901565b608083015161436e9083614901565b6080830151610c499082614918565b60006139ef84848460016320214ca360e11b614924565b61439c614fbd565b838511156143f75760405162461bcd60e51b815260206004820152602260248201527f5072656d69756d2063616e6e6f74206265206d6f7265207468616e207061796f6044820152611d5d60f21b6064820152608401610c25565b6143ff614fbd565b6001600160a01b03871661012082018190526040808301889052602080840188905260808401879052815163bf8e934d60e01b8152915189936144a49361449d93919263bf8e934d92600480840193919291829003018186803b15801561446557600080fd5b505afa158015614479573d6000803e3d6000fd5b505050506040513d601f19601f820116820180604052508101906116f391906154a7565b87906139f7565b6144ae9190615a5c565b606082018190526144f55760405162461bcd60e51b81526020600482015260116024820152705343522063616e2774206265207a65726f60781b6044820152606401610c25565b64ffffffffff428116610140830152831661016082015260408051635342825360e01b81529051614591916116f3916116e4916001600160a01b038c1691635342825391600480820192602092909190829003018186803b15801561455957600080fd5b505afa15801561456d573d6000803e3d6000fd5b505050506040513d601f19601f820116820180604052508101906116dd91906154a7565b8160a00181815250506145e46145d9886001600160a01b031663d44499a86040518163ffffffff1660e01b815260040160206040518083038186803b15801561446557600080fd5b60a0830151906139f7565b8160c001818152505061469f6146946116f36e0612d847b578e7643c28ac0000000084610140015185610160015161461c9190615a73565b64ffffffffff168b6001600160a01b0316639d90724d6040518163ffffffff1660e01b815260040160206040518083038186803b15801561465c57600080fd5b505afa158015614670573d6000803e3d6000fd5b505050506040513d601f19601f8201168201806040525081019061177491906154a7565b6060830151906139f7565b610100820181905260c082015160a08301518892916146bd916158d0565b6146c791906158d0565b11156147155760405162461bcd60e51b815260206004820152601960248201527f5072656d69756d206c657373207468616e206d696e696d756d000000000000006044820152606401610c25565b60c081015161010082015160a083015161472f9089615a5c565b6147399190615a5c565b6147439190615a5c565b60e08201529695505050505050565b600054610100900460ff168061476b575060005460ff16155b6147875760405162461bcd60e51b8152600401610c259061570b565b600054610100900460ff1615801561400a576000805461ffff19166101011790558015611012576000805461ff001916905550565b600054610100900460ff16806147d5575060005460ff16155b6147f15760405162461bcd60e51b8152600401610c259061570b565b600054610100900460ff16158015613ffa576000805461ffff1916610101179055614002614752565b600054610100900460ff1680614833575060005460ff16155b61484f5760405162461bcd60e51b8152600401610c259061570b565b600054610100900460ff16158015614871576000805461ffff19166101011790555b614879614752565b61400a614b30565b610f488282612b39565b6060831561489a5750816117d9565b8251156148aa5782518084602001fd5b8160405162461bcd60e51b8152600401610c259190615660565b6148cc615035565b6148dc8560800151610100614ba5565b50509183526001600160a01b031660208301526001600160e01b031916604082015290565b61490e8260038351614c0a565b610c498282614cd8565b610f4882600083614c0a565b61013b546040516001600160601b03193060601b166020820152603481019190915260009060540160408051808303601f19018152918152815160209283012061013b546060890152600081815261013c90935281832080546001600160a01b0319166001600160a01b038b16179055905190925082917fb5e6e01e79f91267dc17b4e6314d5d4d03593d2ceee0fbb452b750bd70ea5af991a2600082600080886000015189602001518a604001518b606001518a8d60800151600001516040516024016149f99897969594939291906155b2565b60408051601f198184030181529181526020820180516001600160e01b03166001600160e01b031990941693909317909252610139549151630200057560e51b81529092506001600160a01b0390911690634000aea090614a62908a908990869060040161561a565b602060405180830381600087803b158015614a7c57600080fd5b505af1158015614a90573d6000803e3d6000fd5b505050506040513d601f19601f82011682018060405250810190614ab49190615271565b614b0c5760405162461bcd60e51b815260206004820152602360248201527f756e61626c6520746f207472616e73666572416e6443616c6c20746f206f7261604482015262636c6560e81b6064820152608401610c25565b600161013b6000828254614b2091906158d0565b9091555091979650505050505050565b600054610100900460ff1680614b49575060005460ff16155b614b655760405162461bcd60e51b8152600401610c259061570b565b600054610100900460ff16158015614b87576000805461ffff19166101011790555b60fb805460ff191690558015611012576000805461ff001916905550565b604080518082019091526060815260006020820152614bc5602083615b34565b15614bed57614bd5602083615b34565b614be0906020615a5c565b614bea90836158d0565b91505b506020828101829052604080518085526000815290920101905290565b60178111614c255761259b8360e0600585901b168317614cff565b60ff8111614c4f57614c42836018611fe0600586901b1617614cff565b5061259b83826001614d24565b61ffff8111614c7a57614c6d836019611fe0600586901b1617614cff565b5061259b83826002614d24565b63ffffffff8111614ca757614c9a83601a611fe0600586901b1617614cff565b5061259b83826004614d24565b67ffffffffffffffff8111610c4957614ccb83601b611fe0600586901b1617614cff565b5061259b83826008614d24565b6040805180820190915260608152600060208201526117d983846000015151848551614d4a565b6040805180820190915260608152600060208201526117d98384600001515184614e34565b6040805180820190915260608152600060208201526139ef848560000151518585614e90565b6040805180820190915260608152600060208201528251821115614d6d57600080fd5b6020850151614d7c83866158d0565b1115614daf57614daf85614d9f87602001518786614d9a91906158d0565b614f11565b614daa906002615a10565b614f22565b600080865180518760208301019350808887011115614dce5787860182525b505050602084015b60208410614e0e5780518252614ded6020836158d0565b9150614dfa6020826158d0565b9050614e07602085615a5c565b9350614dd6565b51815160001960208690036101000a019081169019919091161790525083949350505050565b60408051808201909152606081526000602082015283602001518310614e6957614e698485602001516002614daa9190615a10565b835180516020858301018481535080851415614e86576001810182525b5093949350505050565b6040805180820190915260608152600060208201526020850151614eb485846158d0565b1115614ec857614ec885614d9f86856158d0565b60006001614ed884610100615968565b614ee29190615a5c565b9050855183868201018583198251161781525080518487011115614f065783860181525b509495945050505050565b6000818311156110b55750816109e1565b8151614f2e8383614ba5565b5061259b8382614cd8565b828054614f4590615aff565b90600052602060002090601f016020900481019282614f675760008555614fad565b82601f10614f8057805160ff1916838001178555614fad565b82800160010185558215614fad579182015b82811115614fad578251825591602001919060010190614f92565b50614fb9929150615070565b5090565b60405180610180016040528060008152602001600081526020016000815260200160008152602001600081526020016000815260200160008152602001600081526020016000815260200160006001600160a01b03168152602001600064ffffffffff168152602001600064ffffffffff1681525090565b6040805160a0810182526000808252602080830182905282840182905260608084018390528451808601909552845283015290608082015290565b5b80821115614fb95760008155600101615071565b600067ffffffffffffffff808411156150a0576150a0615ba0565b604051601f8501601f19908116603f011681019082821181831017156150c8576150c8615ba0565b816040528093508581528686860111156150e157600080fd5b858560208301376000602087830101525050509392505050565b80356001600160801b03198116811461511357600080fd5b919050565b600082601f83011261512957600080fd5b6117d983833560208501615085565b600060a0828403121561514a57600080fd5b60405160a0810181811067ffffffffffffffff8211171561516d5761516d615ba0565b604052905080823561517e81615bb6565b815261518c602084016151d9565b6020820152604083013560408201526151a7606084016150fb565b60608201526151b8608084016150fb565b60808201525092915050565b803564ffffffffff8116811461511357600080fd5b80356001600160601b038116811461511357600080fd5b60006020828403121561520257600080fd5b81356117d981615bb6565b6000806040838503121561522057600080fd5b823561522b81615bb6565b9150602083013567ffffffffffffffff81111561524757600080fd5b8301601f8101851361525857600080fd5b61526785823560208401615085565b9150509250929050565b60006020828403121561528357600080fd5b815180151581146117d957600080fd5b6000602082840312156152a557600080fd5b5035919050565b600080604083850312156152bf57600080fd5b8235915060208301356152d181615bb6565b809150509250929050565b600080604083850312156152ef57600080fd5b50508035926020909101359150565b60006020828403121561531057600080fd5b81356001600160e01b0319811681146117d957600080fd5b60006020828403121561533a57600080fd5b81516117d981615bb6565b60008060008060008060008060006101a08a8c03121561536457600080fd5b893567ffffffffffffffff81111561537b57600080fd5b6153878c828d01615118565b99505060208a0135975060408a0135965060608a0135955060808a0135945060a08a0135935060c08a01356153bb81615bb6565b925060e08a01356153cb81615bb6565b91506153db8b6101008c01615138565b90509295985092959850929598565b60008060008060008060008060006101208a8c03121561540957600080fd5b893567ffffffffffffffff81111561542057600080fd5b61542c8c828d01615118565b99505061543b60208b016151c4565b975061544960408b016151c4565b965061545760608b016151c4565b955060808a0135945060a08a0135935060c08a0135925060e08a013561547c81615bb6565b91506153db6101008b016151d9565b600060a0828403121561549d57600080fd5b6117d98383615138565b6000602082840312156154b957600080fd5b5051919050565b6000806000606084860312156154d557600080fd5b83359250602084013591506154ec604085016151c4565b90509250925092565b6000815180845261550d816020860160208601615abc565b601f01601f19169290920160200192915050565b60008251615533818460208701615abc565b9190910192915050565b7f416363657373436f6e74726f6c3a206163636f756e7420000000000000000000815260008351615575816017850160208801615abc565b7001034b99036b4b9b9b4b733903937b6329607d1b60179184019182015283516155a6816028840160208801615abc565b01602801949350505050565b6001600160a01b0389811682526020820189905260408201889052861660608201526001600160e01b03198516608082015260a0810184905260c0810183905261010060e0820181905260009061560b838201856154f5565b9b9a5050505050505050505050565b60018060a01b03841681528260208201526060604082015260006142dc60608301846154f5565b92835260208301919091526001600160a01b0316604082015260600190565b6020815260006117d960208301846154f5565b6020808252602c908201527f46756e6374696f6e206d7573742062652063616c6c6564207468726f7567682060408201526b19195b1959d85d1958d85b1b60a21b606082015260800190565b6020808252602c908201527f46756e6374696f6e206d7573742062652063616c6c6564207468726f7567682060408201526b6163746976652070726f787960a01b606082015260800190565b6020808252602e908201527f496e697469616c697a61626c653a20636f6e747261637420697320616c72656160408201526d191e481a5b9a5d1a585b1a5e995960921b606082015260800190565b60006101c082019050845182526020850151602083015260408501516040830152606085015160608301526080850151608083015260a085015160a083015260c085015160c083015260e085015160e0830152610100808601518184015250610120808601516157d3828501826001600160a01b03169052565b50506101408581015164ffffffffff81168483015250506101608581015164ffffffffff81168483015250506001600160a01b0384166101808301526001600160601b0383166101a08301526139ef565b8254815260018301546020820152600283015460408201526003830154606082015260048301546080820152600583015460a0820152600683015460c0820152600783015460e0820152600883015461010082015260098301546001600160a01b0381166101208301526101a082019064ffffffffff60a082901c81166101408501526158c06101608501828460c81c1664ffffffffff169052565b50508215156101808301526117d9565b600082198211156158e3576158e3615b48565b500190565b600064ffffffffff80831681851680830382111561590857615908615b48565b01949350505050565b60008261592057615920615b5e565b500490565b600181815b8085111561596057816000190482111561594657615946615b48565b8085161561595357918102915b93841c939080029061592a565b509250929050565b60006117d9838360008261597e575060016109e1565b8161598b575060006109e1565b81600181146159a157600281146159ab576159c7565b60019150506109e1565b60ff8411156159bc576159bc615b48565b50506001821b6109e1565b5060208310610133831016604e8410600b84101617156159ea575081810a6109e1565b6159f48383615925565b8060001904821115615a0857615a08615b48565b029392505050565b6000816000190483118215151615615a2a57615a2a615b48565b500290565b600064ffffffffff80831681851681830481118215151615615a5357615a53615b48565b02949350505050565b600082821015615a6e57615a6e615b48565b500390565b600064ffffffffff83811690831681811015615a9157615a91615b48565b039392505050565b600060ff821660ff841680821015615ab357615ab3615b48565b90039392505050565b60005b83811015615ad7578181015183820152602001615abf565b8381111561259b5750506000910152565b600081615af757615af7615b48565b506000190190565b600181811c90821680615b1357607f821691505b602082108114156110b557634e487b7160e01b600052602260045260246000fd5b600082615b4357615b43615b5e565b500690565b634e487b7160e01b600052601160045260246000fd5b634e487b7160e01b600052601260045260246000fd5b634e487b7160e01b600052602160045260246000fd5b634e487b7160e01b600052603260045260246000fd5b634e487b7160e01b600052604160045260246000fd5b6001600160a01b038116811461101257600080fdfebf372ca3ebecfe59ac256f17697941bbe63302aced610e8b0e3646f743c7beb25ec196419322369c6bac572d883f4d990ae5ec82f7d93cdf89b85dbb05b63c27416464726573733a206c6f772d6c6576656c2064656c65676174652063616c6c206661696c6564a82e22387fca439f316d78ca566f383218ab8ae1b3e830178c9c82cbd16749c055435dd261a4b9b3364963f7738a7a662ad9c84396d64be3365284bb7f0a5041a2646970667358221220e7179ebef0e3bd337ce989ba37b3b60a6dd44b1310259e5e5d62edcb28543af864736f6c63430008060033",
  "linkReferences": {},
  "deployedLinkReferences": {}
}