{
  "_format": "hh-sol-artifact-1",
  "contractName": "PolicyPool",
  "sourceName": "contracts/PolicyPool.sol",
  "abi": [
    {
      "inputs": [
        {
          "internalType": "contract IPolicyPoolConfig",
          "name": "config_",
          "type": "address"
        },
        {
          "internalType": "contract IPolicyNFT",
          "name": "policyNFT_",
          "type": "address"
        },
        {
          "internalType": "contract IERC20Metadata",
          "name": "currency_",
          "type": "address"
        }
      ],
      "stateMutability": "nonpayable",
      "type": "constructor"
    },
    {
      "anonymous": false,
      "inputs": [
        {
          "indexed": false,
          "internalType": "address",
          "name": "previousAdmin",
          "type": "address"
        },
        {
          "indexed": false,
          "internalType": "address",
          "name": "newAdmin",
          "type": "address"
        }
      ],
      "name": "AdminChanged",
      "type": "event"
    },
    {
      "anonymous": false,
      "inputs": [
        {
          "indexed": true,
          "internalType": "address",
          "name": "beacon",
          "type": "address"
        }
      ],
      "name": "BeaconUpgraded",
      "type": "event"
    },
    {
      "anonymous": false,
      "inputs": [
        {
          "indexed": true,
          "internalType": "contract IEToken",
          "name": "eToken",
          "type": "address"
        },
        {
          "indexed": false,
          "internalType": "enum DataTypes.ETokenStatus",
          "name": "newStatus",
          "type": "uint8"
        }
      ],
      "name": "ETokenStatusChanged",
      "type": "event"
    },
    {
      "anonymous": false,
      "inputs": [
        {
          "indexed": true,
          "internalType": "contract IRiskModule",
          "name": "riskModule",
          "type": "address"
        },
        {
          "components": [
            {
              "internalType": "uint256",
              "name": "id",
              "type": "uint256"
            },
            {
              "internalType": "uint256",
              "name": "payout",
              "type": "uint256"
            },
            {
              "internalType": "uint256",
              "name": "premium",
              "type": "uint256"
            },
            {
              "internalType": "uint256",
              "name": "scr",
              "type": "uint256"
            },
            {
              "internalType": "uint256",
              "name": "lossProb",
              "type": "uint256"
            },
            {
              "internalType": "uint256",
              "name": "purePremium",
              "type": "uint256"
            },
            {
              "internalType": "uint256",
              "name": "premiumForEnsuro",
              "type": "uint256"
            },
            {
              "internalType": "uint256",
              "name": "premiumForRm",
              "type": "uint256"
            },
            {
              "internalType": "uint256",
              "name": "premiumForLps",
              "type": "uint256"
            },
            {
              "internalType": "contract IRiskModule",
              "name": "riskModule",
              "type": "address"
            },
            {
              "internalType": "uint40",
              "name": "start",
              "type": "uint40"
            },
            {
              "internalType": "uint40",
              "name": "expiration",
              "type": "uint40"
            }
          ],
          "indexed": false,
          "internalType": "struct Policy.PolicyData",
          "name": "policy",
          "type": "tuple"
        }
      ],
      "name": "NewPolicy",
      "type": "event"
    },
    {
      "anonymous": false,
      "inputs": [
        {
          "indexed": false,
          "internalType": "address",
          "name": "account",
          "type": "address"
        }
      ],
      "name": "Paused",
      "type": "event"
    },
    {
      "anonymous": false,
      "inputs": [
        {
          "indexed": true,
          "internalType": "contract IRiskModule",
          "name": "riskModule",
          "type": "address"
        },
        {
          "indexed": true,
          "internalType": "uint256",
          "name": "policyId",
          "type": "uint256"
        }
      ],
      "name": "PolicyRebalanced",
      "type": "event"
    },
    {
      "anonymous": false,
      "inputs": [
        {
          "indexed": true,
          "internalType": "contract IRiskModule",
          "name": "riskModule",
          "type": "address"
        },
        {
          "indexed": true,
          "internalType": "uint256",
          "name": "policyId",
          "type": "uint256"
        },
        {
          "indexed": false,
          "internalType": "uint256",
          "name": "payout",
          "type": "uint256"
        }
      ],
      "name": "PolicyResolved",
      "type": "event"
    },
    {
      "anonymous": false,
      "inputs": [
        {
          "indexed": false,
          "internalType": "address",
          "name": "account",
          "type": "address"
        }
      ],
      "name": "Unpaused",
      "type": "event"
    },
    {
      "anonymous": false,
      "inputs": [
        {
          "indexed": true,
          "internalType": "address",
          "name": "implementation",
          "type": "address"
        }
      ],
      "name": "Upgraded",
      "type": "event"
    },
    {
      "anonymous": false,
      "inputs": [
        {
          "indexed": false,
          "internalType": "bool",
          "name": "moneyIn",
          "type": "bool"
        },
        {
          "indexed": false,
          "internalType": "uint256",
          "name": "value",
          "type": "uint256"
        }
      ],
      "name": "WonPremiumsInOut",
      "type": "event"
    },
    {
      "inputs": [],
      "name": "GUARDIAN_ROLE",
      "outputs": [
        {
          "internalType": "bytes32",
          "name": "",
          "type": "bytes32"
        }
      ],
      "stateMutability": "view",
      "type": "function"
    },
    {
      "inputs": [],
      "name": "LEVEL1_ROLE",
      "outputs": [
        {
          "internalType": "bytes32",
          "name": "",
          "type": "bytes32"
        }
      ],
      "stateMutability": "view",
      "type": "function"
    },
    {
      "inputs": [],
      "name": "LEVEL2_ROLE",
      "outputs": [
        {
          "internalType": "bytes32",
          "name": "",
          "type": "bytes32"
        }
      ],
      "stateMutability": "view",
      "type": "function"
    },
    {
      "inputs": [],
      "name": "LEVEL3_ROLE",
      "outputs": [
        {
          "internalType": "bytes32",
          "name": "",
          "type": "bytes32"
        }
      ],
      "stateMutability": "view",
      "type": "function"
    },
    {
      "inputs": [],
      "name": "MAX_ETOKENS",
      "outputs": [
        {
          "internalType": "uint256",
          "name": "",
          "type": "uint256"
        }
      ],
      "stateMutability": "view",
      "type": "function"
    },
    {
      "inputs": [],
      "name": "NEGLIGIBLE_AMOUNT",
      "outputs": [
        {
          "internalType": "uint256",
          "name": "",
          "type": "uint256"
        }
      ],
      "stateMutability": "view",
      "type": "function"
    },
    {
      "inputs": [],
      "name": "REBALANCE_ROLE",
      "outputs": [
        {
          "internalType": "bytes32",
          "name": "",
          "type": "bytes32"
        }
      ],
      "stateMutability": "view",
      "type": "function"
    },
    {
      "inputs": [],
      "name": "WITHDRAW_WON_PREMIUMS_ROLE",
      "outputs": [
        {
          "internalType": "bytes32",
          "name": "",
          "type": "bytes32"
        }
      ],
      "stateMutability": "view",
      "type": "function"
    },
    {
      "inputs": [],
      "name": "activePremiums",
      "outputs": [
        {
          "internalType": "uint256",
          "name": "",
          "type": "uint256"
        }
      ],
      "stateMutability": "view",
      "type": "function"
    },
    {
      "inputs": [],
      "name": "activePurePremiums",
      "outputs": [
        {
          "internalType": "uint256",
          "name": "",
          "type": "uint256"
        }
      ],
      "stateMutability": "view",
      "type": "function"
    },
    {
      "inputs": [
        {
          "internalType": "contract IEToken",
          "name": "eToken",
          "type": "address"
        }
      ],
      "name": "addEToken",
      "outputs": [],
      "stateMutability": "nonpayable",
      "type": "function"
    },
    {
      "inputs": [
        {
          "internalType": "uint256",
          "name": "amount",
          "type": "uint256"
        },
        {
          "internalType": "bool",
          "name": "positive",
          "type": "bool"
        }
      ],
      "name": "assetEarnings",
      "outputs": [],
      "stateMutability": "nonpayable",
      "type": "function"
    },
    {
      "inputs": [],
      "name": "borrowedActivePP",
      "outputs": [
        {
          "internalType": "uint256",
          "name": "",
          "type": "uint256"
        }
      ],
      "stateMutability": "view",
      "type": "function"
    },
    {
      "inputs": [
        {
          "internalType": "contract IEToken",
          "name": "eToken",
          "type": "address"
        },
        {
          "internalType": "enum DataTypes.ETokenStatus",
          "name": "newStatus",
          "type": "uint8"
        }
      ],
      "name": "changeETokenStatus",
      "outputs": [],
      "stateMutability": "nonpayable",
      "type": "function"
    },
    {
      "inputs": [],
      "name": "config",
      "outputs": [
        {
          "internalType": "contract IPolicyPoolConfig",
          "name": "",
          "type": "address"
        }
      ],
      "stateMutability": "view",
      "type": "function"
    },
    {
      "inputs": [],
      "name": "currency",
      "outputs": [
        {
          "internalType": "contract IERC20Metadata",
          "name": "",
          "type": "address"
        }
      ],
      "stateMutability": "view",
      "type": "function"
    },
    {
      "inputs": [
        {
          "internalType": "contract IEToken",
          "name": "eToken",
          "type": "address"
        },
        {
          "internalType": "uint256",
          "name": "amount",
          "type": "uint256"
        }
      ],
      "name": "deposit",
      "outputs": [],
      "stateMutability": "nonpayable",
      "type": "function"
    },
    {
      "inputs": [
        {
          "components": [
            {
              "internalType": "uint256",
              "name": "id",
              "type": "uint256"
            },
            {
              "internalType": "uint256",
              "name": "payout",
              "type": "uint256"
            },
            {
              "internalType": "uint256",
              "name": "premium",
              "type": "uint256"
            },
            {
              "internalType": "uint256",
              "name": "scr",
              "type": "uint256"
            },
            {
              "internalType": "uint256",
              "name": "lossProb",
              "type": "uint256"
            },
            {
              "internalType": "uint256",
              "name": "purePremium",
              "type": "uint256"
            },
            {
              "internalType": "uint256",
              "name": "premiumForEnsuro",
              "type": "uint256"
            },
            {
              "internalType": "uint256",
              "name": "premiumForRm",
              "type": "uint256"
            },
            {
              "internalType": "uint256",
              "name": "premiumForLps",
              "type": "uint256"
            },
            {
              "internalType": "contract IRiskModule",
              "name": "riskModule",
              "type": "address"
            },
            {
              "internalType": "uint40",
              "name": "start",
              "type": "uint40"
            },
            {
              "internalType": "uint40",
              "name": "expiration",
              "type": "uint40"
            }
          ],
          "internalType": "struct Policy.PolicyData",
          "name": "policy",
          "type": "tuple"
        }
      ],
      "name": "expirePolicy",
      "outputs": [],
      "stateMutability": "nonpayable",
      "type": "function"
    },
    {
      "inputs": [
        {
          "internalType": "uint256",
          "name": "index",
          "type": "uint256"
        }
      ],
      "name": "getETokenAt",
      "outputs": [
        {
          "internalType": "contract IEToken",
          "name": "",
          "type": "address"
        }
      ],
      "stateMutability": "view",
      "type": "function"
    },
    {
      "inputs": [],
      "name": "getETokenCount",
      "outputs": [
        {
          "internalType": "uint256",
          "name": "",
          "type": "uint256"
        }
      ],
      "stateMutability": "view",
      "type": "function"
    },
    {
      "inputs": [
        {
          "internalType": "contract IEToken",
          "name": "eToken",
          "type": "address"
        }
      ],
      "name": "getETokenStatus",
      "outputs": [
        {
          "internalType": "enum DataTypes.ETokenStatus",
          "name": "",
          "type": "uint8"
        }
      ],
      "stateMutability": "view",
      "type": "function"
    },
    {
      "inputs": [],
      "name": "getInvestable",
      "outputs": [
        {
          "internalType": "uint256",
          "name": "",
          "type": "uint256"
        }
      ],
      "stateMutability": "view",
      "type": "function"
    },
    {
      "inputs": [
        {
          "internalType": "uint256",
          "name": "policyId",
          "type": "uint256"
        },
        {
          "internalType": "contract IEToken",
          "name": "etoken",
          "type": "address"
        }
      ],
      "name": "getPolicyFund",
      "outputs": [
        {
          "internalType": "uint256",
          "name": "",
          "type": "uint256"
        }
      ],
      "stateMutability": "view",
      "type": "function"
    },
    {
      "inputs": [
        {
          "internalType": "uint256",
          "name": "policyId",
          "type": "uint256"
        },
        {
          "internalType": "uint256",
          "name": "index",
          "type": "uint256"
        }
      ],
      "name": "getPolicyFundAt",
      "outputs": [
        {
          "internalType": "contract IEToken",
          "name": "",
          "type": "address"
        },
        {
          "internalType": "uint256",
          "name": "",
          "type": "uint256"
        }
      ],
      "stateMutability": "view",
      "type": "function"
    },
    {
      "inputs": [
        {
          "internalType": "uint256",
          "name": "policyId",
          "type": "uint256"
        }
      ],
      "name": "getPolicyFundCount",
      "outputs": [
        {
          "internalType": "uint256",
          "name": "",
          "type": "uint256"
        }
      ],
      "stateMutability": "view",
      "type": "function"
    },
    {
      "inputs": [],
      "name": "initialize",
      "outputs": [],
      "stateMutability": "nonpayable",
      "type": "function"
    },
    {
      "inputs": [
        {
          "components": [
            {
              "internalType": "uint256",
              "name": "id",
              "type": "uint256"
            },
            {
              "internalType": "uint256",
              "name": "payout",
              "type": "uint256"
            },
            {
              "internalType": "uint256",
              "name": "premium",
              "type": "uint256"
            },
            {
              "internalType": "uint256",
              "name": "scr",
              "type": "uint256"
            },
            {
              "internalType": "uint256",
              "name": "lossProb",
              "type": "uint256"
            },
            {
              "internalType": "uint256",
              "name": "purePremium",
              "type": "uint256"
            },
            {
              "internalType": "uint256",
              "name": "premiumForEnsuro",
              "type": "uint256"
            },
            {
              "internalType": "uint256",
              "name": "premiumForRm",
              "type": "uint256"
            },
            {
              "internalType": "uint256",
              "name": "premiumForLps",
              "type": "uint256"
            },
            {
              "internalType": "contract IRiskModule",
              "name": "riskModule",
              "type": "address"
            },
            {
              "internalType": "uint40",
              "name": "start",
              "type": "uint40"
            },
            {
              "internalType": "uint40",
              "name": "expiration",
              "type": "uint40"
            }
          ],
          "internalType": "struct Policy.PolicyData",
          "name": "policy",
          "type": "tuple"
        },
        {
          "internalType": "address",
          "name": "customer",
          "type": "address"
        },
        {
          "internalType": "uint96",
          "name": "internalId",
          "type": "uint96"
        }
      ],
      "name": "newPolicy",
      "outputs": [
        {
          "internalType": "uint256",
          "name": "",
          "type": "uint256"
        }
      ],
      "stateMutability": "nonpayable",
      "type": "function"
    },
    {
      "inputs": [],
      "name": "pause",
      "outputs": [],
      "stateMutability": "nonpayable",
      "type": "function"
    },
    {
      "inputs": [],
      "name": "paused",
      "outputs": [
        {
          "internalType": "bool",
          "name": "",
          "type": "bool"
        }
      ],
      "stateMutability": "view",
      "type": "function"
    },
    {
      "inputs": [],
      "name": "policyNFT",
      "outputs": [
        {
          "internalType": "address",
          "name": "",
          "type": "address"
        }
      ],
      "stateMutability": "view",
      "type": "function"
    },
    {
      "inputs": [],
      "name": "purePremiums",
      "outputs": [
        {
          "internalType": "uint256",
          "name": "",
          "type": "uint256"
        }
      ],
      "stateMutability": "view",
      "type": "function"
    },
    {
      "inputs": [
        {
          "components": [
            {
              "internalType": "uint256",
              "name": "id",
              "type": "uint256"
            },
            {
              "internalType": "uint256",
              "name": "payout",
              "type": "uint256"
            },
            {
              "internalType": "uint256",
              "name": "premium",
              "type": "uint256"
            },
            {
              "internalType": "uint256",
              "name": "scr",
              "type": "uint256"
            },
            {
              "internalType": "uint256",
              "name": "lossProb",
              "type": "uint256"
            },
            {
              "internalType": "uint256",
              "name": "purePremium",
              "type": "uint256"
            },
            {
              "internalType": "uint256",
              "name": "premiumForEnsuro",
              "type": "uint256"
            },
            {
              "internalType": "uint256",
              "name": "premiumForRm",
              "type": "uint256"
            },
            {
              "internalType": "uint256",
              "name": "premiumForLps",
              "type": "uint256"
            },
            {
              "internalType": "contract IRiskModule",
              "name": "riskModule",
              "type": "address"
            },
            {
              "internalType": "uint40",
              "name": "start",
              "type": "uint40"
            },
            {
              "internalType": "uint40",
              "name": "expiration",
              "type": "uint40"
            }
          ],
          "internalType": "struct Policy.PolicyData",
          "name": "policy",
          "type": "tuple"
        }
      ],
      "name": "rebalancePolicy",
      "outputs": [],
      "stateMutability": "nonpayable",
      "type": "function"
    },
    {
      "inputs": [
        {
          "internalType": "uint256",
          "name": "amount",
          "type": "uint256"
        }
      ],
      "name": "receiveGrant",
      "outputs": [],
      "stateMutability": "nonpayable",
      "type": "function"
    },
    {
      "inputs": [
        {
          "internalType": "contract IEToken",
          "name": "eToken",
          "type": "address"
        }
      ],
      "name": "removeEToken",
      "outputs": [],
      "stateMutability": "nonpayable",
      "type": "function"
    },
    {
      "inputs": [
        {
          "internalType": "contract IEToken",
          "name": "eToken",
          "type": "address"
        }
      ],
      "name": "repayETokenLoan",
      "outputs": [
        {
          "internalType": "uint256",
          "name": "",
          "type": "uint256"
        }
      ],
      "stateMutability": "nonpayable",
      "type": "function"
    },
    {
      "inputs": [
        {
          "components": [
            {
              "internalType": "uint256",
              "name": "id",
              "type": "uint256"
            },
            {
              "internalType": "uint256",
              "name": "payout",
              "type": "uint256"
            },
            {
              "internalType": "uint256",
              "name": "premium",
              "type": "uint256"
            },
            {
              "internalType": "uint256",
              "name": "scr",
              "type": "uint256"
            },
            {
              "internalType": "uint256",
              "name": "lossProb",
              "type": "uint256"
            },
            {
              "internalType": "uint256",
              "name": "purePremium",
              "type": "uint256"
            },
            {
              "internalType": "uint256",
              "name": "premiumForEnsuro",
              "type": "uint256"
            },
            {
              "internalType": "uint256",
              "name": "premiumForRm",
              "type": "uint256"
            },
            {
              "internalType": "uint256",
              "name": "premiumForLps",
              "type": "uint256"
            },
            {
              "internalType": "contract IRiskModule",
              "name": "riskModule",
              "type": "address"
            },
            {
              "internalType": "uint40",
              "name": "start",
              "type": "uint40"
            },
            {
              "internalType": "uint40",
              "name": "expiration",
              "type": "uint40"
            }
          ],
          "internalType": "struct Policy.PolicyData",
          "name": "policy",
          "type": "tuple"
        },
        {
          "internalType": "uint256",
          "name": "payout",
          "type": "uint256"
        }
      ],
      "name": "resolvePolicy",
      "outputs": [],
      "stateMutability": "nonpayable",
      "type": "function"
    },
    {
      "inputs": [
        {
          "components": [
            {
              "internalType": "uint256",
              "name": "id",
              "type": "uint256"
            },
            {
              "internalType": "uint256",
              "name": "payout",
              "type": "uint256"
            },
            {
              "internalType": "uint256",
              "name": "premium",
              "type": "uint256"
            },
            {
              "internalType": "uint256",
              "name": "scr",
              "type": "uint256"
            },
            {
              "internalType": "uint256",
              "name": "lossProb",
              "type": "uint256"
            },
            {
              "internalType": "uint256",
              "name": "purePremium",
              "type": "uint256"
            },
            {
              "internalType": "uint256",
              "name": "premiumForEnsuro",
              "type": "uint256"
            },
            {
              "internalType": "uint256",
              "name": "premiumForRm",
              "type": "uint256"
            },
            {
              "internalType": "uint256",
              "name": "premiumForLps",
              "type": "uint256"
            },
            {
              "internalType": "contract IRiskModule",
              "name": "riskModule",
              "type": "address"
            },
            {
              "internalType": "uint40",
              "name": "start",
              "type": "uint40"
            },
            {
              "internalType": "uint40",
              "name": "expiration",
              "type": "uint40"
            }
          ],
          "internalType": "struct Policy.PolicyData",
          "name": "policy",
          "type": "tuple"
        },
        {
          "internalType": "bool",
          "name": "customerWon",
          "type": "bool"
        }
      ],
      "name": "resolvePolicyFullPayout",
      "outputs": [],
      "stateMutability": "nonpayable",
      "type": "function"
    },
    {
      "inputs": [
        {
          "internalType": "contract IAssetManager",
          "name": "newAssetManager",
          "type": "address"
        }
      ],
      "name": "setAssetManager",
      "outputs": [],
      "stateMutability": "nonpayable",
      "type": "function"
    },
    {
      "inputs": [],
      "name": "totalETokenSupply",
      "outputs": [
        {
          "internalType": "uint256",
          "name": "",
          "type": "uint256"
        }
      ],
      "stateMutability": "view",
      "type": "function"
    },
    {
      "inputs": [],
      "name": "unpause",
      "outputs": [],
      "stateMutability": "nonpayable",
      "type": "function"
    },
    {
      "inputs": [
        {
          "internalType": "address",
          "name": "newImplementation",
          "type": "address"
        }
      ],
      "name": "upgradeTo",
      "outputs": [],
      "stateMutability": "nonpayable",
      "type": "function"
    },
    {
      "inputs": [
        {
          "internalType": "address",
          "name": "newImplementation",
          "type": "address"
        },
        {
          "internalType": "bytes",
          "name": "data",
          "type": "bytes"
        }
      ],
      "name": "upgradeToAndCall",
      "outputs": [],
      "stateMutability": "payable",
      "type": "function"
    },
    {
      "inputs": [
        {
          "internalType": "contract IEToken",
          "name": "eToken",
          "type": "address"
        },
        {
          "internalType": "uint256",
          "name": "amount",
          "type": "uint256"
        }
      ],
      "name": "withdraw",
      "outputs": [
        {
          "internalType": "uint256",
          "name": "",
          "type": "uint256"
        }
      ],
      "stateMutability": "nonpayable",
      "type": "function"
    },
    {
      "inputs": [
        {
          "internalType": "uint256",
          "name": "amount",
          "type": "uint256"
        }
      ],
      "name": "withdrawWonPremiums",
      "outputs": [
        {
          "internalType": "uint256",
          "name": "",
          "type": "uint256"
        }
      ],
      "stateMutability": "nonpayable",
      "type": "function"
    },
    {
      "inputs": [],
      "name": "wonPurePremiums",
      "outputs": [
        {
          "internalType": "uint256",
          "name": "",
          "type": "uint256"
        }
      ],
      "stateMutability": "view",
      "type": "function"
    }
  ],
  "bytecode": "0x6101206040523060601b6080523480156200001957600080fd5b5060405162006170380380620061708339810160408190526200003c9162000105565b6001600160601b0319606084811b821660c05283811b82166101005282901b1660e0526040805163313ce56760e01b815290516003916001600160a01b0384169163313ce56791600480820192602092909190829003018186803b158015620000a457600080fd5b505afa158015620000b9573d6000803e3d6000fd5b505050506040513d601f19601f82011682018060405250810190620000df919062000159565b620000eb91906200028f565b620000f890600a620001ce565b60a05250620002e4915050565b6000806000606084860312156200011b57600080fd5b83516200012881620002cb565b60208501519093506200013b81620002cb565b60408501519092506200014e81620002cb565b809150509250925092565b6000602082840312156200016c57600080fd5b815160ff811681146200017e57600080fd5b9392505050565b600181815b80851115620001c6578160001904821115620001aa57620001aa620002b5565b80851615620001b857918102915b93841c93908002906200018a565b509250929050565b60006200017e60ff841683600082620001ea5750600162000289565b81620001f95750600062000289565b81600181146200021257600281146200021d576200023d565b600191505062000289565b60ff841115620002315762000231620002b5565b50506001821b62000289565b5060208310610133831016604e8410600b841016171562000262575081810a62000289565b6200026e838362000185565b8060001904821115620002855762000285620002b5565b0290505b92915050565b600060ff821660ff841680821015620002ac57620002ac620002b5565b90039392505050565b634e487b7160e01b600052601160045260246000fd5b6001600160a01b0381168114620002e157600080fd5b50565b60805160601c60a05160c05160601c60e05160601c6101005160601c615d236200044d600039600081816106c601528181610a7a015281816136470152613dcc0152600081816107cf015281816109fb0152818161115b015281816112d1015281816113f0015281816118fd01528181613b0e0152614a9b0152600081816105610152818161098e01528181610ed801528181610f4501528181610fd9015281816110780152818161118a015281816115930152818161199701528181611a4901528181611b2101528181611cd40152818161208d01528181612237015281816127770152818161286e01528181612a8c01528181613133015281816134bc0152818161353a0152818161379f015281816138520152818161394e01528181613a010152613eff0152600081816103aa01528181612b9a01528181612bce01526142db015260008181610dcf01528181610e0f015281816114aa01526114ea0152615d236000f3fe6080604052600436106102725760003560e01c806379502c551161014f578063b0ec4bcf116100c1578063e5a6b10f1161007a578063e5a6b10f146107c0578063e823584a146107f3578063ea1a767914610808578063f3fef3a31461081d578063f67b2bad1461083d578063fcbb17fe1461085f57600080fd5b8063b0ec4bcf146106ea578063b63d382e1461070a578063b77ddfea1461072a578063ca143d181461073f578063ce937e7b1461076c578063dea167d5146107ab57600080fd5b80638a9defff116101135780638a9defff146106035780638ca23bc91461062357806398e88ca8146106575780639e556b2b14610677578063ab60016914610697578063af02808a146106b757600080fd5b806379502c55146105525780638129fc1c1461059957806381ced71f146105ae5780638456cb59146105ce578063846253d1146105e357600080fd5b806343060237116101e85780635680e145116101ac5780635680e1451461047d5780635b494dd5146104b15780635c975abb146104e557806363c0f4b11461050857806365b710081461051d57806365e29c7e1461053d57600080fd5b806343060237146103e157806347e7ef24146104015780634a47a3e0146104215780634f1ef28614610455578063536c9a431461046857600080fd5b806324ea54f41161023a57806324ea54f41461032157806326ccbd22146103435780632a2be82d146103585780633659cfe614610378578063396512fd146103985780633f4ba83a146103cc57600080fd5b8063066dda0e1461027757806319704a3a146102995780631a548a27146102cc5780631c5c4aea146102e1578063220c262b14610301575b600080fd5b34801561028357600080fd5b506102976102923660046156fd565b61087f565b005b3480156102a557600080fd5b506102b96102b4366004615776565b6108da565b6040519081526020015b60405180910390f35b3480156102d857600080fd5b5060cf546102b9565b3480156102ed57600080fd5b506102b96102fc3660046157d4565b610b85565b34801561030d57600080fd5b506102b961031c36600461582b565b610ba2565b34801561032d57600080fd5b506102b9600080516020615cce83398151915281565b34801561034f57600080fd5b506102b9610be4565b34801561036457600080fd5b506102b9610373366004615578565b610c08565b34801561038457600080fd5b50610297610393366004615578565b610dc4565b3480156103a457600080fd5b506102b97f000000000000000000000000000000000000000000000000000000000000000081565b3480156103d857600080fd5b50610297610e8d565b3480156103ed57600080fd5b506102976103fc366004615578565b610f3a565b34801561040d57600080fd5b5061029761041c3660046156b4565b61134d565b34801561042d57600080fd5b506102b97fa82e22387fca439f316d78ca566f383218ab8ae1b3e830178c9c82cbd16749c081565b6102976104633660046155b2565b61149f565b34801561047457600080fd5b5060d1546102b9565b34801561048957600080fd5b506102b97f2c09deb013d6a86a9063c95b5e2b10937d1128a3937347eb7e00408ed9fb1a9c81565b3480156104bd57600080fd5b506102b97f5ec196419322369c6bac572d883f4d990ae5ec82f7d93cdf89b85dbb05b63c2781565b3480156104f157600080fd5b5060335460ff1660405190151581526020016102c3565b34801561051457600080fd5b506102b9600a81565b34801561052957600080fd5b50610297610538366004615578565b611555565b34801561054957600080fd5b506102b9611772565b34801561055e57600080fd5b507f00000000000000000000000000000000000000000000000000000000000000005b6040516001600160a01b0390911681526020016102c3565b3480156105a557600080fd5b5061029761186d565b3480156105ba57600080fd5b506102976105c93660046157d4565b6118f0565b3480156105da57600080fd5b5061029761196b565b3480156105ef57600080fd5b506102b96105fe3660046157d4565b611a01565b34801561060f57600080fd5b5061029761061e3660046156e0565b611bf7565b34801561062f57600080fd5b506102b97fa23b11d346b90fc279e0a917152caf41f3c1247b12211b7cbc0e0e3f8b79405781565b34801561066357600080fd5b506102976106723660046156e0565b611c96565b34801561068357600080fd5b5061029761069236600461572c565b61204e565b3480156106a357600080fd5b506102976106b2366004615806565b61208b565b3480156106c357600080fd5b507f0000000000000000000000000000000000000000000000000000000000000000610581565b3480156106f657600080fd5b506105816107053660046157d4565b6121cd565b34801561071657600080fd5b50610297610725366004615578565b61220b565b34801561073657600080fd5b506102b96124ba565b34801561074b57600080fd5b5061075f61075a366004615578565b612577565b6040516102c391906158a9565b34801561077857600080fd5b5061078c610787366004615850565b612584565b604080516001600160a01b0390931683526020830191909152016102c3565b3480156107b757600080fd5b506102b96125aa565b3480156107cc57600080fd5b507f0000000000000000000000000000000000000000000000000000000000000000610581565b3480156107ff57600080fd5b5060d0546102b9565b34801561081457600080fd5b5060ce546102b9565b34801561082957600080fd5b506102b96108383660046156b4565b6125b6565b34801561084957600080fd5b506102b9600080516020615c8783398151915281565b34801561086b57600080fd5b5061029761087a366004615677565b61272c565b60335460ff16156108ab5760405162461bcd60e51b81526004016108a29061599c565b60405180910390fd5b6108d66108bd36849003840184615759565b826108c95760006108cf565b83602001355b600061299a565b5050565b60006108e860335460ff1690565b156109055760405162461bcd60e51b81526004016108a29061599c565b6101208401516001600160a01b038116331461096f5760405162461bcd60e51b815260206004820152602360248201527f4f6e6c792074686520524d2063616e20637265617465206e657720706f6c696360448201526269657360e81b60648201526084016108a2565b604051635dfdc5d760e11b81526001600160a01b0382811660048301527f0000000000000000000000000000000000000000000000000000000000000000169063bbfb8bae9060240160006040518083038186803b1580156109d057600080fd5b505afa1580156109e4573d6000803e3d6000fd5b5050506040860151610a2591506001600160a01b037f0000000000000000000000000000000000000000000000000000000000000000169086903090612d5f565b610a506bffffffffffffffffffffffff84166bffffffffffffffffffffffff19606084901b16615b18565b808652604051632851206560e21b81526001600160a01b03868116600483015260248201929092527f00000000000000000000000000000000000000000000000000000000000000009091169063a144819490604401600060405180830381600087803b158015610ac057600080fd5b505af1158015610ad4573d6000803e3d6000fd5b50505050610ae185612dd0565b8551600090815260cc602052604081209190915560a086015160cf805491929091610b0d908490615b18565b9091555050604085015160ce8054600090610b29908490615b18565b90915550610b38905085612e00565b806001600160a01b03167ff8da20dc84e4c9850943fcd1a0587142b2bac3fef70840ccee41f5edd22bc47786604051610b719190615a14565b60405180910390a2505082515b9392505050565b600081815260cd60205260408120610b9c90612fbe565b92915050565b600082815260cd6020526040812081908190610bbe9085612fc9565b915091508115610bd1579150610b9c9050565b600092505050610b9c565b505092915050565b600060d05460d15460cf54610bf99190615b18565b610c039190615b71565b905090565b6000610c1660335460ff1690565b15610c335760405162461bcd60e51b81526004016108a29061599c565b600080610c4160c985612fe5565b91509150818015610c7e57506001816003811115610c6157610c61615c0b565b1480610c7e57506002816003811115610c7c57610c7c615c0b565b145b610cc15760405162461bcd60e51b815260206004820152601460248201527365546f6b656e206973206e6f742061637469766560601b60448201526064016108a2565b6000846001600160a01b03166352a2783b6040518163ffffffff1660e01b815260040160206040518083038186803b158015610cfc57600080fd5b505afa158015610d10573d6000803e3d6000fd5b505050506040513d601f19601f82011682018060405250810190610d3491906157ed565b90506000610d4182613018565b90506001600160a01b038616631c0f4f81610d5c8385615b71565b6040518263ffffffff1660e01b8152600401610d7a91815260200190565b600060405180830381600087803b158015610d9457600080fd5b505af1158015610da8573d6000803e3d6000fd5b505050508082610db89190615b71565b9450505050505b919050565b306001600160a01b037f0000000000000000000000000000000000000000000000000000000000000000161415610e0d5760405162461bcd60e51b81526004016108a290615904565b7f00000000000000000000000000000000000000000000000000000000000000006001600160a01b0316610e3f6130ba565b6001600160a01b031614610e655760405162461bcd60e51b81526004016108a290615950565b610e6e816130e8565b60408051600080825260208201909252610e8a91839190613192565b50565b60405163c5b8f5cf60e01b8152600080516020615cce83398151915260048201819052600080516020615c878339815191526024830181905233604484015290916001600160a01b037f0000000000000000000000000000000000000000000000000000000000000000169063c5b8f5cf9060640160006040518083038186803b158015610f1a57600080fd5b505afa158015610f2e573d6000803e3d6000fd5b505050506108d66132d6565b336001600160a01b037f00000000000000000000000000000000000000000000000000000000000000001614610fcc5760405162461bcd60e51b815260206004820152603160248201527f4f6e6c792074686520506f6c696379506f6f6c436f6e6669672063616e20636860448201527030b733b29030b9b9b2ba26b0b730b3b2b960791b60648201526084016108a2565b60006001600160a01b03167f00000000000000000000000000000000000000000000000000000000000000006001600160a01b03166394217ad16040518163ffffffff1660e01b815260040160206040518083038186803b15801561103057600080fd5b505afa158015611044573d6000803e3d6000fd5b505050506040513d601f19601f820116820180604052508101906110689190615595565b6001600160a01b03161461129b577f00000000000000000000000000000000000000000000000000000000000000006001600160a01b03166394217ad16040518163ffffffff1660e01b815260040160206040518083038186803b1580156110cf57600080fd5b505afa1580156110e3573d6000803e3d6000fd5b505050506040513d601f19601f820116820180604052508101906111079190615595565b6001600160a01b031663cec16f3f6040518163ffffffff1660e01b8152600401600060405180830381600087803b15801561114157600080fd5b505af1158015611155573d6000803e3d6000fd5b505050507f00000000000000000000000000000000000000000000000000000000000000006001600160a01b031663095ea7b37f00000000000000000000000000000000000000000000000000000000000000006001600160a01b03166394217ad16040518163ffffffff1660e01b815260040160206040518083038186803b1580156111e157600080fd5b505afa1580156111f5573d6000803e3d6000fd5b505050506040513d601f19601f820116820180604052508101906112199190615595565b6040516001600160e01b031960e084901b1681526001600160a01b03909116600482015260006024820152604401602060405180830381600087803b15801561126157600080fd5b505af1158015611275573d6000803e3d6000fd5b505050506040513d601f19601f82011682018060405250810190611299919061565a565b505b6001600160a01b03811615610e8a5760405163095ea7b360e01b81526001600160a01b03828116600483015260001960248301527f0000000000000000000000000000000000000000000000000000000000000000169063095ea7b390604401602060405180830381600087803b15801561131557600080fd5b505af1158015611329573d6000803e3d6000fd5b505050506040513d601f19601f820116820180604052508101906108d6919061565a565b60335460ff16156113705760405162461bcd60e51b81526004016108a29061599c565b60008061137e60c985612fe5565b915091508180156113a05750600181600381111561139e5761139e615c0b565b145b6113e35760405162461bcd60e51b815260206004820152601460248201527365546f6b656e206973206e6f742061637469766560601b60448201526064016108a2565b6114186001600160a01b037f000000000000000000000000000000000000000000000000000000000000000016333086612d5f565b6040516311f9fbc960e21b8152336004820152602481018490526001600160a01b038516906347e7ef2490604401602060405180830381600087803b15801561146057600080fd5b505af1158015611474573d6000803e3d6000fd5b505050506040513d601f19601f8201168201806040525081019061149891906157ed565b5050505050565b306001600160a01b037f00000000000000000000000000000000000000000000000000000000000000001614156114e85760405162461bcd60e51b81526004016108a290615904565b7f00000000000000000000000000000000000000000000000000000000000000006001600160a01b031661151a6130ba565b6001600160a01b0316146115405760405162461bcd60e51b81526004016108a290615950565b611549826130e8565b6108d682826001613192565b6040516312d9a6ad60e01b81527f5ec196419322369c6bac572d883f4d990ae5ec82f7d93cdf89b85dbb05b63c2760048201819052336024830152907f00000000000000000000000000000000000000000000000000000000000000006001600160a01b0316906312d9a6ad9060440160006040518083038186803b1580156115dd57600080fd5b505afa1580156115f1573d6000803e3d6000fd5b50600292506115fe915050565b61160960c984613369565b600381111561161a5761161a615c0b565b1461165f5760405162461bcd60e51b815260206004820152601560248201527411551bdad95b881b9bdd0819195c1c9958d85d1959605a1b60448201526064016108a2565b816001600160a01b03166318160ddd6040518163ffffffff1660e01b815260040160206040518083038186803b15801561169857600080fd5b505afa1580156116ac573d6000803e3d6000fd5b505050506040513d601f19601f820116820180604052508101906116d091906157ed565b1561172c5760405162461bcd60e51b815260206004820152602660248201527f45546f6b656e20686173206c69717569646974792c2063616e27742062652072604482015265195b5bdd995960d21b60648201526084016108a2565b816001600160a01b03167f84b036748e342a63da09ea533edd13275c8f2eb94ba67374cd3c7f4d6461d52c600060405161176691906158a9565b60405180910390a25050565b600080805b61178160c9612fbe565b81101561182957600061179560c983613386565b509050806001600160a01b03166352a2783b6040518163ffffffff1660e01b815260040160206040518083038186803b1580156117d157600080fd5b505afa1580156117e5573d6000803e3d6000fd5b505050506040513d601f19601f8201168201806040525081019061180991906157ed565b6118139084615b18565b925050808061182190615bda565b915050611777565b50600060d05460d15460ce5461183f9190615b18565b6118499190615b71565b9050818111156118645761185d8282615b71565b9250505090565b60009250505090565b600054610100900460ff1680611886575060005460ff16155b6118a25760405162461bcd60e51b81526004016108a2906159c6565b600054610100900460ff161580156118c4576000805461ffff19166101011790555b6118cc613395565b6118d46133fc565b6118dc613463565b8015610e8a576000805461ff001916905550565b6119256001600160a01b037f000000000000000000000000000000000000000000000000000000000000000016333084612d5f565b61192e816136cc565b6040805160018152602081018390527fd60d524f1cae273480bb0a4ddfb992b6ac0b61c8e12ffbe2e4e31463f9e90199910160405180910390a150565b6040516312d9a6ad60e01b8152600080516020615cce83398151915260048201819052336024830152907f00000000000000000000000000000000000000000000000000000000000000006001600160a01b0316906312d9a6ad9060440160006040518083038186803b1580156119e157600080fd5b505afa1580156119f5573d6000803e3d6000fd5b50505050610e8a613731565b6040516312d9a6ad60e01b81527fa23b11d346b90fc279e0a917152caf41f3c1247b12211b7cbc0e0e3f8b794057600482018190523360248301526000916001600160a01b037f000000000000000000000000000000000000000000000000000000000000000016906312d9a6ad9060440160006040518083038186803b158015611a8b57600080fd5b505afa158015611a9f573d6000803e3d6000fd5b5050505060d154831115611ab35760d15492505b60008311611b035760405162461bcd60e51b815260206004820152601760248201527f4e6f207072656d69756d7320746f20776974686472617700000000000000000060448201526064016108a2565b8260d16000828254611b159190615b71565b92505081905550611bb67f00000000000000000000000000000000000000000000000000000000000000006001600160a01b03166361d027b36040518163ffffffff1660e01b815260040160206040518083038186803b158015611b7857600080fd5b505afa158015611b8c573d6000803e3d6000fd5b505050506040513d601f19601f82011682018060405250810190611bb09190615595565b84613789565b6040805160008152602081018590527fd60d524f1cae273480bb0a4ddfb992b6ac0b61c8e12ffbe2e4e31463f9e90199910160405180910390a15090919050565b60335460ff1615611c1a5760405162461bcd60e51b81526004016108a29061599c565b42611c2d61018083016101608401615872565b64ffffffffff161115611c7b5760405162461bcd60e51b8152602060048201526016602482015275141bdb1a58de481b9bdd08195e1c1a5c9959081e595d60521b60448201526064016108a2565b610e8a611c8d36839003830183615759565b6000600161299a565b6040516312d9a6ad60e01b81527f2c09deb013d6a86a9063c95b5e2b10937d1128a3937347eb7e00408ed9fb1a9c60048201819052336024830152907f00000000000000000000000000000000000000000000000000000000000000006001600160a01b0316906312d9a6ad9060440160006040518083038186803b158015611d1e57600080fd5b505afa158015611d32573d6000803e3d6000fd5b50505050611d4260335460ff1690565b15611d5f5760405162461bcd60e51b81526004016108a29061599c565b611d76611d7136849003840184615759565b613b35565b8135600090815260cd6020526040812090805b611d9360c9612fbe565b811015611fdd57600080611da860c984613386565b909250905060008080611dbb8886612fc9565b915091508115611e45576001600160a01b038516634438bcbb611deb611de6368e90038e018e615759565b613b9b565b836040518363ffffffff1660e01b8152600401611e12929190918252602082015260400190565b600060405180830381600087803b158015611e2c57600080fd5b505af1158015611e40573d6000803e3d6000fd5b505050505b6001846003811115611e5957611e59615c0b565b148015611f1757506001600160a01b0385166333487154611e826101408d016101208e01615578565b611e946101808e016101608f01615872565b6040516001600160e01b031960e085901b1681526001600160a01b03909216600483015264ffffffffff16602482015260440160206040518083038186803b158015611edf57600080fd5b505afa158015611ef3573d6000803e3d6000fd5b505050506040513d601f19601f82011682018060405250810190611f17919061565a565b15611f9057846001600160a01b031663e5ae143f6040518163ffffffff1660e01b815260040160206040518083038186803b158015611f5557600080fd5b505afa158015611f69573d6000803e3d6000fd5b505050506040513d601f19601f82011682018060405250810190611f8d91906157ed565b92505b82611fac578115611fa757611fa58886613bf5565b505b611fc5565b611fb7888685613c01565b50611fc28388615b18565b96505b50505050508080611fd590615bda565b915050611d89565b50611fff6060850135611ff8611de636889003880188615759565b8385613c16565b833561201361014086016101208701615578565b6001600160a01b03167f5b6693e57e2edc10453988a22e50a605795daee9a5dde66f5267b0dee0a6b60660405160405180910390a350505050565b60335460ff16156120715760405162461bcd60e51b81526004016108a29061599c565b6108d661208336849003840184615759565b82600061299a565b7f00000000000000000000000000000000000000000000000000000000000000006001600160a01b03166394217ad16040518163ffffffff1660e01b815260040160206040518083038186803b1580156120e457600080fd5b505afa1580156120f8573d6000803e3d6000fd5b505050506040513d601f19601f8201168201806040525081019061211c9190615595565b6001600160a01b0316336001600160a01b03161461218d5760405162461bcd60e51b815260206004820152602860248201527f4f6e6c792061737365744d616e616765722063616e2063616c6c207468697320604482015267333ab731ba34b7b760c11b60648201526084016108a2565b60335460ff16156121b05760405162461bcd60e51b81526004016108a29061599c565b80156121bf576108d6826136cc565b6121c882613018565b505050565b600080806121dc60c985613386565b909250905060008160038111156121f5576121f5615c0b565b14612201575092915050565b5060009392505050565b6040516312d9a6ad60e01b8152600080516020615c8783398151915260048201819052336024830152907f00000000000000000000000000000000000000000000000000000000000000006001600160a01b0316906312d9a6ad9060440160006040518083038186803b15801561228157600080fd5b505afa158015612295573d6000803e3d6000fd5b50505050600a6122a560c9612fbe565b106122fc5760405162461bcd60e51b815260206004820152602160248201527f4d6178696d756d206e756d626572206f662045546f6b656e73207265616368656044820152601960fa1b60648201526084016108a2565b61230760c983613d69565b156123545760405162461bcd60e51b815260206004820152601a60248201527f65546f6b656e20616c726561647920696e2074686520706f6f6c00000000000060448201526064016108a2565b6001600160a01b0382166123a15760405162461bcd60e51b815260206004820152601460248201527365546f6b656e2063616e2774206265207a65726f60601b60448201526064016108a2565b306001600160a01b0316826001600160a01b0316634d15eb036040518163ffffffff1660e01b815260040160206040518083038186803b1580156123e457600080fd5b505afa1580156123f8573d6000803e3d6000fd5b505050506040513d601f19601f8201168201806040525081019061241c9190615595565b6001600160a01b0316146124725760405162461bcd60e51b815260206004820152601e60248201527f45546f6b656e206e6f74206c696e6b656420746f207468697320706f6f6c000060448201526064016108a2565b61247f60c9836001613d75565b50816001600160a01b03167f84b036748e342a63da09ea533edd13275c8f2eb94ba67374cd3c7f4d6461d52c600160405161176691906158a9565b600080805b6124c960c9612fbe565b8110156125715760006124dd60c983613386565b509050806001600160a01b03166318160ddd6040518163ffffffff1660e01b815260040160206040518083038186803b15801561251957600080fd5b505afa15801561252d573d6000803e3d6000fd5b505050506040513d601f19601f8201168201806040525081019061255191906157ed565b61255b9084615b18565b925050808061256990615bda565b9150506124bf565b50919050565b6000610b9c60c983613369565b600082815260cd60205260408120819061259e9084613d93565b915091505b9250929050565b6000610c0360c9612fbe565b60006125c460335460ff1690565b156125e15760405162461bcd60e51b81526004016108a29061599c565b6000806125ef60c986612fe5565b9150915081801561262c5750600181600381111561260f5761260f615c0b565b148061262c5750600281600381111561262a5761262a615c0b565b145b61268a5760405162461bcd60e51b815260206004820152602960248201527f65546f6b656e206e6f7420666f756e64206f7220776974686472617773206e6f6044820152681d08185b1b1bddd95960ba1b60648201526084016108a2565b60405163f3fef3a360e01b8152336004820181905260248201869052906000906001600160a01b0388169063f3fef3a390604401602060405180830381600087803b1580156126d857600080fd5b505af11580156126ec573d6000803e3d6000fd5b505050506040513d601f19601f8201168201806040525081019061271091906157ed565b90508015612722576127228282613789565b9695505050505050565b60405163c5b8f5cf60e01b8152600080516020615cce83398151915260048201819052600080516020615c878339815191526024830181905233604484015290916001600160a01b037f0000000000000000000000000000000000000000000000000000000000000000169063c5b8f5cf9060640160006040518083038186803b1580156127b957600080fd5b505afa1580156127cd573d6000803e3d6000fd5b505050506127e58460c9613d6990919063ffffffff16565b6128295760405162461bcd60e51b8152602060048201526015602482015274149a5cdac8135bd91d5b19481b9bdd08199bdd5b99605a1b60448201526064016108a2565b600383600381111561283d5761283d615c0b565b1415806128f05750604051632474521560e21b8152600080516020615cce83398151915260048201523360248201527f00000000000000000000000000000000000000000000000000000000000000006001600160a01b0316906391d148549060440160206040518083038186803b1580156128b857600080fd5b505afa1580156128cc573d6000803e3d6000fd5b505050506040513d601f19601f820116820180604052508101906128f0919061565a565b6129465760405162461bcd60e51b815260206004820152602160248201527f4f6e6c7920475541524449414e2063616e2073757370656e642065546f6b656e6044820152607360f81b60648201526084016108a2565b61295260c98585613d75565b50836001600160a01b03167f84b036748e342a63da09ea533edd13275c8f2eb94ba67374cd3c7f4d6461d52c8460405161298c91906158a9565b60405180910390a250505050565b6129a383613b35565b61012083015181806129bd57506001600160a01b03811633145b612a095760405162461bcd60e51b815260206004820181905260248201527f4f6e6c792074686520524d2063616e207265736f6c766520706f6c696369657360448201526064016108a2565b821580612a2157504284610160015164ffffffffff16115b612a6d5760405162461bcd60e51b815260206004820152601860248201527f43616e277420706179206578706972656420706f6c696379000000000000000060448201526064016108a2565b6040516310f199ef60e31b81526001600160a01b0382811660048301527f0000000000000000000000000000000000000000000000000000000000000000169063878ccf789060240160006040518083038186803b158015612ace57600080fd5b505afa158015612ae2573d6000803e3d6000fd5b505050508360200151831115612b335760405162461bcd60e51b81526020600482015260166024820152751c185e5bdd5d080f881c1bdb1a58de4b9c185e5bdd5d60521b60448201526064016108a2565b60008084119050846040015160ce6000828254612b509190615b71565b909155505060a085015160cf8054600090612b6c908490615b71565b909155506000905080612b80878488613da2565b915091508215612c59576000612b968884613ff8565b90507f0000000000000000000000000000000000000000000000000000000000000000811115612bcc57612bc981614204565b90505b7f0000000000000000000000000000000000000000000000000000000000000000811115612c535760405162461bcd60e51b815260206004820152602e60248201527f446f6e2774206b6e6f7720776865726520746f2074616b65207468652072657360448201526d74206f6620746865206d6f6e657960901b60648201526084016108a2565b50612c66565b612c638782614323565b90505b612c6f816136cc565b6060870151604051634e5de6c960e11b815260048101919091526001600160a01b03851690639cbbcd9290602401600060405180830381600087803b158015612cb757600080fd5b505af1158015612ccb573d6000803e3d6000fd5b5050505086600001518761012001516001600160a01b03167f54f4a270ea08f88dc23b2520d6b063fecb24d956c4496f447926d736338f545e88604051612d1491815260200190565b60405180910390a38651600090815260cc602090815260408083208390558951835260cd909152812090818181818181612d4e8282615468565b505050505050505050505050505050565b6040516001600160a01b0380851660248301528316604482015260648101829052612dca9085906323b872dd60e01b906084015b60408051601f198184030181529190526020810180516001600160e01b03166001600160e01b031990931692909217909152614605565b50505050565b600081604051602001612de39190615a14565b604051602081830303815290604052805190602001209050919050565b8051600090815260cd60205260408120815b612e1c60c9612fbe565b811015612fa557600080612e3160c984613386565b90925090506001816003811115612e4a57612e4a615c0b565b14612e56575050612f93565b610120860151610160870151604051630cd21c5560e21b81526001600160a01b03928316600482015264ffffffffff90911660248201529083169063334871549060440160206040518083038186803b158015612eb257600080fd5b505afa158015612ec6573d6000803e3d6000fd5b505050506040513d601f19601f82011682018060405250810190612eea919061565a565b612ef5575050612f93565b6000826001600160a01b031663e5ae143f6040518163ffffffff1660e01b815260040160206040518083038186803b158015612f3057600080fd5b505afa158015612f44573d6000803e3d6000fd5b505050506040513d601f19601f82011682018060405250810190612f6891906157ed565b905080612f7757505050612f93565b612f818187615b18565b9550612f8e858483613c01565b505050505b80612f9d81615bda565b915050612e12565b506121c88360600151612fb785613b9b565b8484613c16565b6000610b9c826146d7565b6000808080612fd886866146e2565b9097909650945050505050565b6000808080612ff486866146e2565b915091508181600381111561300b5761300b615c0b565b9350935050509250929050565b600060d1548211613042578160d160008282546130359190615b71565b9091555060009392505050565b60d1541561305f5760d1546130579083615b71565b600060d15591505b60d05460cf5411156130b65760d05460cf5461307b9190615b71565b8211613093578160d060008282546130359190615b18565b60d05460cf546130a39190615b71565b6130ad9083615b71565b60cf5460d05591505b5090565b7f360894a13ba1a3210667c828492db98dca3e2076cc3735a920a3ca505d382bbc546001600160a01b031690565b60405163c5b8f5cf60e01b8152600080516020615cce83398151915260048201819052600080516020615c878339815191526024830181905233604484015290916001600160a01b037f0000000000000000000000000000000000000000000000000000000000000000169063c5b8f5cf9060640160006040518083038186803b15801561317557600080fd5b505afa158015613189573d6000803e3d6000fd5b50505050505050565b600061319c6130ba565b90506131a784614725565b6000835111806131b45750815b156131c5576131c384846147ca565b505b7f4910fdfa16fed3260ed0e7147f7cc6da11a60208b5b9406d12a635614ffd9143805460ff1661149857805460ff191660011781556040516001600160a01b038316602482015261324490869060440160408051601f198184030181529190526020810180516001600160e01b0316631b2ce7f360e11b1790526147ca565b50805460ff191681556132556130ba565b6001600160a01b0316826001600160a01b0316146132cd5760405162461bcd60e51b815260206004820152602f60248201527f45524331393637557067726164653a207570677261646520627265616b73206660448201526e75727468657220757067726164657360881b60648201526084016108a2565b611498856148b5565b60335460ff1661331f5760405162461bcd60e51b815260206004820152601460248201527314185d5cd8589b194e881b9bdd081c185d5cd95960621b60448201526064016108a2565b6033805460ff191690557f5db9ee0a495bf2e6ff9c91a7834c1ba4fdd244a5e8aa4e537bd38aeae4b073aa335b6040516001600160a01b03909116815260200160405180910390a1565b600061337583836148f5565b6003811115610b7e57610b7e615c0b565b6000808080612ff4868661496f565b600054610100900460ff16806133ae575060005460ff16155b6133ca5760405162461bcd60e51b81526004016108a2906159c6565b600054610100900460ff161580156133ec576000805461ffff19166101011790555b6133f46149a4565b6118dc6149a4565b600054610100900460ff1680613415575060005460ff16155b6134315760405162461bcd60e51b81526004016108a2906159c6565b600054610100900460ff16158015613453576000805461ffff19166101011790555b61345b6149a4565b6118dc614a0e565b600054610100900460ff168061347c575060005460ff16155b6134985760405162461bcd60e51b81526004016108a2906159c6565b600054610100900460ff161580156134ba576000805461ffff19166101011790555b7f00000000000000000000000000000000000000000000000000000000000000006001600160a01b031663948cb7196040518163ffffffff1660e01b8152600401600060405180830381600087803b15801561351557600080fd5b505af1158015613529573d6000803e3d6000fd5b5050505060006001600160a01b03167f00000000000000000000000000000000000000000000000000000000000000006001600160a01b03166394217ad16040518163ffffffff1660e01b815260040160206040518083038186803b15801561359157600080fd5b505afa1580156135a5573d6000803e3d6000fd5b505050506040513d601f19601f820116820180604052508101906135c99190615595565b6001600160a01b0316146136455760405162461bcd60e51b815260206004820152603a60248201527f41737365744d616e616765722063616e277420626520736574206265666f726560448201527f20506f6c696379506f6f6c20696e697469616c697a6174696f6e00000000000060648201526084016108a2565b7f00000000000000000000000000000000000000000000000000000000000000006001600160a01b031663948cb7196040518163ffffffff1660e01b8152600401600060405180830381600087803b1580156136a057600080fd5b505af11580156136b4573d6000803e3d6000fd5b505050508015610e8a576000805461ff001916905550565b806136d45750565b8060d054106136fa578060d060008282546136ef9190615b71565b90915550610e8a9050565b60d054156137175760d05461370f9082615b71565b600060d05590505b8060d160008282546137299190615b18565b909155505050565b60335460ff16156137545760405162461bcd60e51b81526004016108a29061599c565b6033805460ff191660011790557f62e78cea01bee320cd4e420270b5ea74000d11b0c9f74754ebdbfc544b05a25861334c3390565b80613792575050565b60006001600160a01b03167f00000000000000000000000000000000000000000000000000000000000000006001600160a01b03166394217ad16040518163ffffffff1660e01b815260040160206040518083038186803b1580156137f657600080fd5b505afa15801561380a573d6000803e3d6000fd5b505050506040513d601f19601f8201168201806040525081019061382e9190615595565b6001600160a01b03161415801561384b575080613849614a83565b105b15613941577f00000000000000000000000000000000000000000000000000000000000000006001600160a01b03166394217ad16040518163ffffffff1660e01b815260040160206040518083038186803b1580156138a957600080fd5b505afa1580156138bd573d6000803e3d6000fd5b505050506040513d601f19601f820116820180604052508101906138e19190615595565b6001600160a01b0316631014a0c2826040518263ffffffff1660e01b815260040161390e91815260200190565b600060405180830381600087803b15801561392857600080fd5b505af115801561393c573d6000803e3d6000fd5b505050505b60006001600160a01b03167f00000000000000000000000000000000000000000000000000000000000000006001600160a01b0316631455cd286040518163ffffffff1660e01b815260040160206040518083038186803b1580156139a557600080fd5b505afa1580156139b9573d6000803e3d6000fd5b505050506040513d601f19601f820116820180604052508101906139dd9190615595565b6001600160a01b0316141580156139fa5750806139f8614a83565b105b15613b01577f00000000000000000000000000000000000000000000000000000000000000006001600160a01b0316631455cd286040518163ffffffff1660e01b815260040160206040518083038186803b158015613a5857600080fd5b505afa158015613a6c573d6000803e3d6000fd5b505050506040513d601f19601f82011682018060405250810190613a909190615595565b6001600160a01b031663ee842dda613aa6614a83565b613ab09084615b71565b6040518263ffffffff1660e01b8152600401613ace91815260200190565b600060405180830381600087803b158015613ae857600080fd5b505af1158015613afc573d6000803e3d6000fd5b505050505b6108d66001600160a01b037f0000000000000000000000000000000000000000000000000000000000000000168383614b1d565b805115801590613b5c57508051600090815260cc6020526040902054613b5a82612dd0565b145b610e8a5760405162461bcd60e51b815260206004820152601060248201526f141bdb1a58de481b9bdd08199bdd5b9960821b60448201526064016108a2565b6000610b9c613bf08360600151846101400151856101600151613bbe9190615b88565b64ffffffffff16613bcf9190615b52565b610100850151613bea906a1a1601fc4ea7109e000000614b4d565b90614c1e565b614d1e565b6000610b7e8383614d9c565b6000613c0e848484614dc3565b949350505050565b83821015613c745760405162461bcd60e51b815260206004820152602560248201527f4e6f7420656e6f75676874206f6365616e20746f20636f7665722074686520706044820152646f6c69637960d81b60648201526084016108a2565b8360005b613c8183612fbe565b811015613d615760008080613c968685613d93565b915091506001613ca587612fbe565b613caf9190615b71565b841015613ccb57613cc487613bea8b84614b4d565b9250613ccf565b8492505b60405163837c83a360e01b815260048101899052602481018490526001600160a01b0383169063837c83a390604401600060405180830381600087803b158015613d1857600080fd5b505af1158015613d2c573d6000803e3d6000fd5b50613d3e925088915084905085613c01565b50613d498386615b71565b94505050508080613d5990615bda565b915050613c78565b505050505050565b6000610b7e8383614dea565b6000613c0e8484846003811115613d8e57613d8e615c0b565b614dc3565b6000808080612fd8868661496f565b600080600080808615613e775787516040516331a9108f60e11b8152613e59916001600160a01b037f00000000000000000000000000000000000000000000000000000000000000001691636352211e91613e039160040190815260200190565b60206040518083038186803b158015613e1b57600080fd5b505afa158015613e2f573d6000803e3d6000fd5b505050506040513d601f19601f82011682018060405250810190613e539190615595565b87613789565b613e638887614df6565b92509050613e7081613018565b9250613feb565b613efa8861012001516001600160a01b031663521eb2736040518163ffffffff1660e01b815260040160206040518083038186803b158015613eb857600080fd5b505afa158015613ecc573d6000803e3d6000fd5b505050506040513d601f19601f82011682018060405250810190613ef09190615595565b8960e00151613789565b613f987f00000000000000000000000000000000000000000000000000000000000000006001600160a01b03166361d027b36040518163ffffffff1660e01b815260040160206040518083038186803b158015613f5657600080fd5b505afa158015613f6a573d6000803e3d6000fd5b505050506040513d601f19601f82011682018060405250810190613f8e9190615595565b8960c00151613789565b8760a00151915060cf5460d0541115613feb57613fc460cf5460d054613fbe9190615b71565b83614e39565b90508060d06000828254613fd89190615b71565b90915550613fe890508183615b71565b91505b5090969095509350505050565b6000808061400585613b9b565b905060008061401387614e48565b8851600090815260cd602052604081209294509092505b61403382612fbe565b8110156141f7576000806140478484613d93565b604051634438bcbb60e01b8152600481018a90526024810182905291935091506001600160a01b03831690634438bcbb90604401600060405180830381600087803b15801561409557600080fd5b505af11580156140a9573d6000803e3d6000fd5b50505060608c01516140bd91508290614c1e565b90506001600160a01b03821663aa69d74b6140d88784614b4d565b6040516001600160e01b031960e084901b16815260048101919091528815156024820152604401600060405180830381600087803b15801561411957600080fd5b505af115801561412d573d6000803e3d6000fd5b5050505060008a11156141e25760006141468b83614b4d565b604051630c1ceca560e21b815260048101829052600160248201529091506001600160a01b03841690633073b29490604401602060405180830381600087803b15801561419257600080fd5b505af11580156141a6573d6000803e3d6000fd5b505050506040513d601f19601f820116820180604052508101906141ca91906157ed565b6141d49082615b71565b6141de908a615b18565b9850505b505080806141ef90615bda565b91505061402a565b5093979650505050505050565b6000805b61421260c9612fbe565b81101561431c5760008061422760c984613386565b9092509050600181600381111561424057614240615c0b565b1461424c57505061430a565b604051630c1ceca560e21b815260048101869052600060248201526001600160a01b03831690633073b29490604401602060405180830381600087803b15801561429557600080fd5b505af11580156142a9573d6000803e3d6000fd5b505050506040513d601f19601f820116820180604052508101906142cd91906157ed565b6142d79086615b71565b94507f0000000000000000000000000000000000000000000000000000000000000000851161430757505061431c565b50505b8061431481615bda565b915050614208565b5090919050565b60008061432f84613b9b565b905060008061433d86614e48565b8751600090815260cd602052604081209294509092505b61435d82612fbe565b8110156145f9576000806143718484613d93565b604051634438bcbb60e01b8152600481018a90526024810182905291935091506001600160a01b03831690634438bcbb90604401600060405180830381600087803b1580156143bf57600080fd5b505af11580156143d3573d6000803e3d6000fd5b50505060608b01516143e791508290614c1e565b90506001600160a01b03821663aa69d74b6144028784614b4d565b6040516001600160e01b031960e084901b16815260048101919091528815156024820152604401600060405180830381600087803b15801561444357600080fd5b505af1158015614457573d6000803e3d6000fd5b505050506000891180156144db57506000826001600160a01b03166352a2783b6040518163ffffffff1660e01b815260040160206040518083038186803b1580156144a157600080fd5b505afa1580156144b5573d6000803e3d6000fd5b505050506040513d601f19601f820116820180604052508101906144d991906157ed565b115b156145e45760a08a01516000906144f29083614b4d565b90506145778a614572856001600160a01b03166352a2783b6040518163ffffffff1660e01b815260040160206040518083038186803b15801561453457600080fd5b505afa158015614548573d6000803e3d6000fd5b505050506040513d601f19601f8201168201806040525081019061456c91906157ed565b84614e39565b614e39565b604051631c0f4f8160e01b8152600481018290529091506001600160a01b03841690631c0f4f8190602401600060405180830381600087803b1580156145bc57600080fd5b505af11580156145d0573d6000803e3d6000fd5b50505050808a6145e09190615b71565b9950505b505080806145f190615bda565b915050614354565b50949695505050505050565b600061465a826040518060400160405280602081526020017f5361666545524332303a206c6f772d6c6576656c2063616c6c206661696c6564815250856001600160a01b0316614e949092919063ffffffff16565b8051909150156121c85780806020019051810190614678919061565a565b6121c85760405162461bcd60e51b815260206004820152602a60248201527f5361666545524332303a204552433230206f7065726174696f6e20646964206e6044820152691bdd081cdd58d8d9595960b21b60648201526084016108a2565b6000610b9c82614ea3565b6001600160a01b038116600090815260028301602052604081205481908061471a5761470e8585614dea565b600092509250506125a3565b6001925090506125a3565b803b6147895760405162461bcd60e51b815260206004820152602d60248201527f455243313936373a206e657720696d706c656d656e746174696f6e206973206e60448201526c1bdd08184818dbdb9d1c9858dd609a1b60648201526084016108a2565b7f360894a13ba1a3210667c828492db98dca3e2076cc3735a920a3ca505d382bbc80546001600160a01b0319166001600160a01b0392909216919091179055565b6060823b6148295760405162461bcd60e51b815260206004820152602660248201527f416464726573733a2064656c65676174652063616c6c20746f206e6f6e2d636f6044820152651b9d1c9858dd60d21b60648201526084016108a2565b600080846001600160a01b031684604051614844919061588d565b600060405180830381855af49150503d806000811461487f576040519150601f19603f3d011682016040523d82523d6000602084013e614884565b606091505b50915091506148ac8282604051806060016040528060278152602001615ca760279139614ead565b95945050505050565b6148be81614725565b6040516001600160a01b038216907fbc7cd75a20ee27fd9adebab32041f755214dbc6bffa90cc0225b39da2e5c2d3b90600090a250565b6001600160a01b03811660009081526002830160205260408120548015158061492357506149238484614dea565b610b7e5760405162461bcd60e51b815260206004820152601e60248201527f456e756d657261626c654d61703a206e6f6e6578697374656e74206b6579000060448201526064016108a2565b6000808061497d8585614ee6565b6001600160a01b038116600090815260029690960160205260409095205494959350505050565b600054610100900460ff16806149bd575060005460ff16155b6149d95760405162461bcd60e51b81526004016108a2906159c6565b600054610100900460ff161580156118dc576000805461ffff19166101011790558015610e8a576000805461ff001916905550565b600054610100900460ff1680614a27575060005460ff16155b614a435760405162461bcd60e51b81526004016108a2906159c6565b600054610100900460ff16158015614a65576000805461ffff19166101011790555b6033805460ff191690558015610e8a576000805461ff001916905550565b6040516370a0823160e01b81523060048201526000907f00000000000000000000000000000000000000000000000000000000000000006001600160a01b0316906370a082319060240160206040518083038186803b158015614ae557600080fd5b505afa158015614af9573d6000803e3d6000fd5b505050506040513d601f19601f82011682018060405250810190610c0391906157ed565b6040516001600160a01b0383166024820152604481018290526121c890849063a9059cbb60e01b90606401612d93565b6000821580614b5a575081155b15614b6757506000610b9c565b81614b7b6002670de0b6b3a7640000615b30565b614b8790600019615b71565b614b919190615b30565b831115614bec5760405162461bcd60e51b8152602060048201526024808201527f7761644d756c3a204d617468204d756c7469706c69636174696f6e204f766572604482015263666c6f7760e01b60648201526084016108a2565b670de0b6b3a7640000614c00600282615b30565b614c0a8486615b52565b614c149190615b18565b610b7e9190615b30565b600081614c6d5760405162461bcd60e51b815260206004820152601860248201527f7761644469763a204469766973696f6e206279207a65726f000000000000000060448201526064016108a2565b6000614c7a600284615b30565b9050670de0b6b3a7640000614c9182600019615b71565b614c9b9190615b30565b841115614cf65760405162461bcd60e51b8152602060048201526024808201527f7761644469763a204d617468204d756c7469706c69636174696f6e204f766572604482015263666c6f7760e01b60648201526084016108a2565b8281614d0a670de0b6b3a764000087615b52565b614d149190615b18565b613c0e9190615b30565b600080614d2f633b9aca0084615b52565b905082614d40633b9aca0083615b30565b14610b9c5760405162461bcd60e51b815260206004820152602660248201527f776164546f5261643a204d617468204d756c7469706c69636174696f6e204f766044820152656572666c6f7760d01b60648201526084016108a2565b6001600160a01b03811660009081526002830160205260408120819055610b7e8383614ef2565b6001600160a01b03821660009081526002840160205260408120829055613c0e8484614f07565b6000610b7e8383614f1c565b60008060008461010001518560400151614e109190615b71565b9050838110614e2f576000614e258583615b71565b92509250506125a3565b61470e8185615b71565b600081831061431c5781610b7e565b6000806000614e5684614f3e565b90508084610100015110614e8157600181856101000151614e779190615b71565b9250925050915091565b600084610100015182614e779190615b71565b6060613c0e8484600085614fa5565b6000610b9c825490565b60608315614ebc575081610b7e565b825115614ecc5782518084602001fd5b8160405162461bcd60e51b81526004016108a291906158d1565b6000610b7e83836150cd565b6000610b7e836001600160a01b0384166150f7565b6000610b7e836001600160a01b0384166151ea565b6001600160a01b03811660009081526001830160205260408120541515610b7e565b60008082610140015164ffffffffff1642614f599190615b71565b9050610b7e614fa06e0612d847b578e7643c28ac00000000614f9a614f7d87613b9b565b614f879086615b52565b614f948860600151614d1e565b90615239565b906152f4565b6153e8565b6060824710156150065760405162461bcd60e51b815260206004820152602660248201527f416464726573733a20696e73756666696369656e742062616c616e636520666f6044820152651c8818d85b1b60d21b60648201526084016108a2565b843b6150545760405162461bcd60e51b815260206004820152601d60248201527f416464726573733a2063616c6c20746f206e6f6e2d636f6e747261637400000060448201526064016108a2565b600080866001600160a01b03168587604051615070919061588d565b60006040518083038185875af1925050503d80600081146150ad576040519150601f19603f3d011682016040523d82523d6000602084013e6150b2565b606091505b50915091506150c2828286614ead565b979650505050505050565b60008260000182815481106150e4576150e4615c37565b9060005260206000200154905092915050565b600081815260018301602052604081205480156151e057600061511b600183615b71565b855490915060009061512f90600190615b71565b905081811461519457600086600001828154811061514f5761514f615c37565b906000526020600020015490508087600001848154811061517257615172615c37565b6000918252602080832090910192909255918252600188019052604090208390555b85548690806151a5576151a5615c21565b600190038181906000526020600020016000905590558560010160008681526020019081526020016000206000905560019350505050610b9c565b6000915050610b9c565b600081815260018301602052604081205461523157508154600181810184556000848152602080822090930184905584548482528286019093526040902091909155610b9c565b506000610b9c565b6000821580615246575081155b1561525357506000610b9c565b8161526b60026b033b2e3c9fd0803ce8000000615b30565b61527790600019615b71565b6152819190615b30565b8311156152dc5760405162461bcd60e51b8152602060048201526024808201527f7261794d756c3a204d617468204d756c7469706c69636174696f6e204f766572604482015263666c6f7760e01b60648201526084016108a2565b6b033b2e3c9fd0803ce8000000614c00600282615b30565b6000816153435760405162461bcd60e51b815260206004820152601860248201527f7261794469763a204469766973696f6e206279207a65726f000000000000000060448201526064016108a2565b6000615350600284615b30565b90506b033b2e3c9fd0803ce800000061536b82600019615b71565b6153759190615b30565b8411156153d05760405162461bcd60e51b8152602060048201526024808201527f7261794469763a204d617468204d756c7469706c69636174696f6e204f766572604482015263666c6f7760e01b60648201526084016108a2565b8281614d0a6b033b2e3c9fd0803ce800000087615b52565b6000806153fa6002633b9aca00615b30565b905060006154088483615b18565b90508181101561545a5760405162461bcd60e51b815260206004820181905260248201527f726179546f5761643a204d617468204164646974696f6e204f766572666c6f7760448201526064016108a2565b613c0e633b9aca0082615b30565b5080546000825590600052602060002090810190610e8a91905b808211156130b65760008155600101615482565b8035610dbf81615c63565b6000610180828403121561257157600080fd5b600061018082840312156154c757600080fd5b6154cf615abd565b9050813581526020820135602082015260408201356040820152606082013560608201526080820135608082015260a082013560a082015260c082013560c082015260e082013560e0820152610100808301358183015250610120615535818401615496565b90820152610140615547838201615563565b90820152610160615559838201615563565b9082015292915050565b803564ffffffffff81168114610dbf57600080fd5b60006020828403121561558a57600080fd5b8135610b7e81615c63565b6000602082840312156155a757600080fd5b8151610b7e81615c63565b600080604083850312156155c557600080fd5b82356155d081615c63565b915060208381013567ffffffffffffffff808211156155ee57600080fd5b818601915086601f83011261560257600080fd5b81358181111561561457615614615c4d565b615626601f8201601f19168501615ae7565b9150808252878482850101111561563c57600080fd5b80848401858401376000848284010152508093505050509250929050565b60006020828403121561566c57600080fd5b8151610b7e81615c78565b6000806040838503121561568a57600080fd5b823561569581615c63565b91506020830135600481106156a957600080fd5b809150509250929050565b600080604083850312156156c757600080fd5b82356156d281615c63565b946020939093013593505050565b600061018082840312156156f357600080fd5b610b7e83836154a1565b6000806101a0838503121561571157600080fd5b61571b84846154a1565b91506101808301356156a981615c78565b6000806101a0838503121561574057600080fd5b61574a84846154a1565b94610180939093013593505050565b6000610180828403121561576c57600080fd5b610b7e83836154b4565b60008060006101c0848603121561578c57600080fd5b61579685856154b4565b92506101808401356157a781615c63565b91506101a08401356bffffffffffffffffffffffff811681146157c957600080fd5b809150509250925092565b6000602082840312156157e657600080fd5b5035919050565b6000602082840312156157ff57600080fd5b5051919050565b6000806040838503121561581957600080fd5b8235915060208301356156a981615c78565b6000806040838503121561583e57600080fd5b8235915060208301356156a981615c63565b6000806040838503121561586357600080fd5b50508035926020909101359150565b60006020828403121561588457600080fd5b610b7e82615563565b6000825161589f818460208701615bae565b9190910192915050565b60208101600483106158cb57634e487b7160e01b600052602160045260246000fd5b91905290565b60208152600082518060208401526158f0816040850160208701615bae565b601f01601f19169190910160400192915050565b6020808252602c908201527f46756e6374696f6e206d7573742062652063616c6c6564207468726f7567682060408201526b19195b1959d85d1958d85b1b60a21b606082015260800190565b6020808252602c908201527f46756e6374696f6e206d7573742062652063616c6c6564207468726f7567682060408201526b6163746976652070726f787960a01b606082015260800190565b60208082526010908201526f14185d5cd8589b194e881c185d5cd95960821b604082015260600190565b6020808252602e908201527f496e697469616c697a61626c653a20636f6e747261637420697320616c72656160408201526d191e481a5b9a5d1a585b1a5e995960921b606082015260800190565b600061018082019050825182526020830151602083015260408301516040830152606083015160608301526080830151608083015260a083015160a083015260c083015160c083015260e083015160e083015261010080840151818401525061012080840151615a8e828501826001600160a01b03169052565b50506101408381015164ffffffffff81168483015250506101608381015164ffffffffff811684830152610bdc565b604051610180810167ffffffffffffffff81118282101715615ae157615ae1615c4d565b60405290565b604051601f8201601f1916810167ffffffffffffffff81118282101715615b1057615b10615c4d565b604052919050565b60008219821115615b2b57615b2b615bf5565b500190565b600082615b4d57634e487b7160e01b600052601260045260246000fd5b500490565b6000816000190483118215151615615b6c57615b6c615bf5565b500290565b600082821015615b8357615b83615bf5565b500390565b600064ffffffffff83811690831681811015615ba657615ba6615bf5565b039392505050565b60005b83811015615bc9578181015183820152602001615bb1565b83811115612dca5750506000910152565b6000600019821415615bee57615bee615bf5565b5060010190565b634e487b7160e01b600052601160045260246000fd5b634e487b7160e01b600052602160045260246000fd5b634e487b7160e01b600052603160045260246000fd5b634e487b7160e01b600052603260045260246000fd5b634e487b7160e01b600052604160045260246000fd5b6001600160a01b0381168114610e8a57600080fd5b8015158114610e8a57600080fdfebf372ca3ebecfe59ac256f17697941bbe63302aced610e8b0e3646f743c7beb2416464726573733a206c6f772d6c6576656c2064656c65676174652063616c6c206661696c656455435dd261a4b9b3364963f7738a7a662ad9c84396d64be3365284bb7f0a5041a26469706673582212203d27c3417624f5ee3a2aef93ac6359ba4ade418de1dac8dc2e63e55235cf31bc64736f6c63430008060033",
  "linkReferences": {},
  "deployedLinkReferences": {}
}