{
  "_format": "hh-sol-artifact-1",
  "contractName": "TrustfulRiskModule",
  "sourceName": "contracts/TrustfulRiskModule.sol",
  "abi": [
    {
      "inputs": [
        {
          "internalType": "contract IPolicyPool",
          "name": "policyPool_",
          "type": "address"
        }
      ],
      "stateMutability": "nonpayable",
      "type": "constructor"
    },
    {
      "anonymous": false,
      "inputs": [
        {
          "indexed": false,
          "internalType": "address",
          "name": "previousAdmin",
          "type": "address"
        },
        {
          "indexed": false,
          "internalType": "address",
          "name": "newAdmin",
          "type": "address"
        }
      ],
      "name": "AdminChanged",
      "type": "event"
    },
    {
      "anonymous": false,
      "inputs": [
        {
          "indexed": true,
          "internalType": "address",
          "name": "beacon",
          "type": "address"
        }
      ],
      "name": "BeaconUpgraded",
      "type": "event"
    },
    {
      "anonymous": false,
      "inputs": [
        {
          "indexed": true,
          "internalType": "enum IPolicyPoolConfig.GovernanceActions",
          "name": "action",
          "type": "uint8"
        },
        {
          "indexed": false,
          "internalType": "uint256",
          "name": "value",
          "type": "uint256"
        }
      ],
      "name": "GovernanceAction",
      "type": "event"
    },
    {
      "anonymous": false,
      "inputs": [
        {
          "indexed": false,
          "internalType": "address",
          "name": "account",
          "type": "address"
        }
      ],
      "name": "Paused",
      "type": "event"
    },
    {
      "anonymous": false,
      "inputs": [
        {
          "indexed": true,
          "internalType": "bytes32",
          "name": "role",
          "type": "bytes32"
        },
        {
          "indexed": true,
          "internalType": "bytes32",
          "name": "previousAdminRole",
          "type": "bytes32"
        },
        {
          "indexed": true,
          "internalType": "bytes32",
          "name": "newAdminRole",
          "type": "bytes32"
        }
      ],
      "name": "RoleAdminChanged",
      "type": "event"
    },
    {
      "anonymous": false,
      "inputs": [
        {
          "indexed": true,
          "internalType": "bytes32",
          "name": "role",
          "type": "bytes32"
        },
        {
          "indexed": true,
          "internalType": "address",
          "name": "account",
          "type": "address"
        },
        {
          "indexed": true,
          "internalType": "address",
          "name": "sender",
          "type": "address"
        }
      ],
      "name": "RoleGranted",
      "type": "event"
    },
    {
      "anonymous": false,
      "inputs": [
        {
          "indexed": true,
          "internalType": "bytes32",
          "name": "role",
          "type": "bytes32"
        },
        {
          "indexed": true,
          "internalType": "address",
          "name": "account",
          "type": "address"
        },
        {
          "indexed": true,
          "internalType": "address",
          "name": "sender",
          "type": "address"
        }
      ],
      "name": "RoleRevoked",
      "type": "event"
    },
    {
      "anonymous": false,
      "inputs": [
        {
          "indexed": false,
          "internalType": "address",
          "name": "account",
          "type": "address"
        }
      ],
      "name": "Unpaused",
      "type": "event"
    },
    {
      "anonymous": false,
      "inputs": [
        {
          "indexed": true,
          "internalType": "address",
          "name": "implementation",
          "type": "address"
        }
      ],
      "name": "Upgraded",
      "type": "event"
    },
    {
      "inputs": [],
      "name": "DEFAULT_ADMIN_ROLE",
      "outputs": [
        {
          "internalType": "bytes32",
          "name": "",
          "type": "bytes32"
        }
      ],
      "stateMutability": "view",
      "type": "function"
    },
    {
      "inputs": [],
      "name": "GUARDIAN_ROLE",
      "outputs": [
        {
          "internalType": "bytes32",
          "name": "",
          "type": "bytes32"
        }
      ],
      "stateMutability": "view",
      "type": "function"
    },
    {
      "inputs": [],
      "name": "LEVEL1_ROLE",
      "outputs": [
        {
          "internalType": "bytes32",
          "name": "",
          "type": "bytes32"
        }
      ],
      "stateMutability": "view",
      "type": "function"
    },
    {
      "inputs": [],
      "name": "LEVEL2_ROLE",
      "outputs": [
        {
          "internalType": "bytes32",
          "name": "",
          "type": "bytes32"
        }
      ],
      "stateMutability": "view",
      "type": "function"
    },
    {
      "inputs": [],
      "name": "LEVEL3_ROLE",
      "outputs": [
        {
          "internalType": "bytes32",
          "name": "",
          "type": "bytes32"
        }
      ],
      "stateMutability": "view",
      "type": "function"
    },
    {
      "inputs": [],
      "name": "PRICER_ROLE",
      "outputs": [
        {
          "internalType": "bytes32",
          "name": "",
          "type": "bytes32"
        }
      ],
      "stateMutability": "view",
      "type": "function"
    },
    {
      "inputs": [],
      "name": "RESOLVER_ROLE",
      "outputs": [
        {
          "internalType": "bytes32",
          "name": "",
          "type": "bytes32"
        }
      ],
      "stateMutability": "view",
      "type": "function"
    },
    {
      "inputs": [],
      "name": "RM_PROVIDER_ROLE",
      "outputs": [
        {
          "internalType": "bytes32",
          "name": "",
          "type": "bytes32"
        }
      ],
      "stateMutability": "view",
      "type": "function"
    },
    {
      "inputs": [],
      "name": "TWEAK_EXPIRATION",
      "outputs": [
        {
          "internalType": "uint40",
          "name": "",
          "type": "uint40"
        }
      ],
      "stateMutability": "view",
      "type": "function"
    },
    {
      "inputs": [],
      "name": "currency",
      "outputs": [
        {
          "internalType": "contract IERC20Metadata",
          "name": "",
          "type": "address"
        }
      ],
      "stateMutability": "view",
      "type": "function"
    },
    {
      "inputs": [],
      "name": "ensuroFee",
      "outputs": [
        {
          "internalType": "uint256",
          "name": "",
          "type": "uint256"
        }
      ],
      "stateMutability": "view",
      "type": "function"
    },
    {
      "inputs": [
        {
          "internalType": "uint256",
          "name": "payout",
          "type": "uint256"
        },
        {
          "internalType": "uint256",
          "name": "lossProb",
          "type": "uint256"
        },
        {
          "internalType": "uint40",
          "name": "expiration",
          "type": "uint40"
        }
      ],
      "name": "getMinimumPremium",
      "outputs": [
        {
          "internalType": "uint256",
          "name": "",
          "type": "uint256"
        }
      ],
      "stateMutability": "view",
      "type": "function"
    },
    {
      "inputs": [
        {
          "internalType": "bytes32",
          "name": "role",
          "type": "bytes32"
        }
      ],
      "name": "getRoleAdmin",
      "outputs": [
        {
          "internalType": "bytes32",
          "name": "",
          "type": "bytes32"
        }
      ],
      "stateMutability": "view",
      "type": "function"
    },
    {
      "inputs": [
        {
          "internalType": "bytes32",
          "name": "role",
          "type": "bytes32"
        },
        {
          "internalType": "address",
          "name": "account",
          "type": "address"
        }
      ],
      "name": "grantRole",
      "outputs": [],
      "stateMutability": "nonpayable",
      "type": "function"
    },
    {
      "inputs": [
        {
          "internalType": "bytes32",
          "name": "role",
          "type": "bytes32"
        },
        {
          "internalType": "address",
          "name": "account",
          "type": "address"
        }
      ],
      "name": "hasRole",
      "outputs": [
        {
          "internalType": "bool",
          "name": "",
          "type": "bool"
        }
      ],
      "stateMutability": "view",
      "type": "function"
    },
    {
      "inputs": [
        {
          "internalType": "string",
          "name": "name_",
          "type": "string"
        },
        {
          "internalType": "uint256",
          "name": "scrPercentage_",
          "type": "uint256"
        },
        {
          "internalType": "uint256",
          "name": "ensuroFee_",
          "type": "uint256"
        },
        {
          "internalType": "uint256",
          "name": "scrInterestRate_",
          "type": "uint256"
        },
        {
          "internalType": "uint256",
          "name": "maxScrPerPolicy_",
          "type": "uint256"
        },
        {
          "internalType": "uint256",
          "name": "scrLimit_",
          "type": "uint256"
        },
        {
          "internalType": "address",
          "name": "wallet_",
          "type": "address"
        }
      ],
      "name": "initialize",
      "outputs": [],
      "stateMutability": "nonpayable",
      "type": "function"
    },
    {
      "inputs": [],
      "name": "lastTweak",
      "outputs": [
        {
          "internalType": "uint40",
          "name": "",
          "type": "uint40"
        },
        {
          "internalType": "uint56",
          "name": "",
          "type": "uint56"
        }
      ],
      "stateMutability": "view",
      "type": "function"
    },
    {
      "inputs": [],
      "name": "maxScrPerPolicy",
      "outputs": [
        {
          "internalType": "uint256",
          "name": "",
          "type": "uint256"
        }
      ],
      "stateMutability": "view",
      "type": "function"
    },
    {
      "inputs": [],
      "name": "moc",
      "outputs": [
        {
          "internalType": "uint256",
          "name": "",
          "type": "uint256"
        }
      ],
      "stateMutability": "view",
      "type": "function"
    },
    {
      "inputs": [],
      "name": "name",
      "outputs": [
        {
          "internalType": "string",
          "name": "",
          "type": "string"
        }
      ],
      "stateMutability": "view",
      "type": "function"
    },
    {
      "inputs": [
        {
          "internalType": "uint256",
          "name": "payout",
          "type": "uint256"
        },
        {
          "internalType": "uint256",
          "name": "premium",
          "type": "uint256"
        },
        {
          "internalType": "uint256",
          "name": "lossProb",
          "type": "uint256"
        },
        {
          "internalType": "uint40",
          "name": "expiration",
          "type": "uint40"
        },
        {
          "internalType": "address",
          "name": "customer",
          "type": "address"
        },
        {
          "internalType": "uint96",
          "name": "internalId",
          "type": "uint96"
        }
      ],
      "name": "newPolicy",
      "outputs": [
        {
          "internalType": "uint256",
          "name": "",
          "type": "uint256"
        }
      ],
      "stateMutability": "nonpayable",
      "type": "function"
    },
    {
      "inputs": [],
      "name": "pause",
      "outputs": [],
      "stateMutability": "nonpayable",
      "type": "function"
    },
    {
      "inputs": [],
      "name": "paused",
      "outputs": [
        {
          "internalType": "bool",
          "name": "",
          "type": "bool"
        }
      ],
      "stateMutability": "view",
      "type": "function"
    },
    {
      "inputs": [],
      "name": "policyPool",
      "outputs": [
        {
          "internalType": "contract IPolicyPool",
          "name": "",
          "type": "address"
        }
      ],
      "stateMutability": "view",
      "type": "function"
    },
    {
      "inputs": [
        {
          "internalType": "uint256",
          "name": "scrAmount",
          "type": "uint256"
        }
      ],
      "name": "releaseScr",
      "outputs": [],
      "stateMutability": "nonpayable",
      "type": "function"
    },
    {
      "inputs": [
        {
          "internalType": "bytes32",
          "name": "role",
          "type": "bytes32"
        },
        {
          "internalType": "address",
          "name": "account",
          "type": "address"
        }
      ],
      "name": "renounceRole",
      "outputs": [],
      "stateMutability": "nonpayable",
      "type": "function"
    },
    {
      "inputs": [
        {
          "components": [
            {
              "internalType": "uint256",
              "name": "id",
              "type": "uint256"
            },
            {
              "internalType": "uint256",
              "name": "payout",
              "type": "uint256"
            },
            {
              "internalType": "uint256",
              "name": "premium",
              "type": "uint256"
            },
            {
              "internalType": "uint256",
              "name": "scr",
              "type": "uint256"
            },
            {
              "internalType": "uint256",
              "name": "lossProb",
              "type": "uint256"
            },
            {
              "internalType": "uint256",
              "name": "purePremium",
              "type": "uint256"
            },
            {
              "internalType": "uint256",
              "name": "premiumForEnsuro",
              "type": "uint256"
            },
            {
              "internalType": "uint256",
              "name": "premiumForRm",
              "type": "uint256"
            },
            {
              "internalType": "uint256",
              "name": "premiumForLps",
              "type": "uint256"
            },
            {
              "internalType": "contract IRiskModule",
              "name": "riskModule",
              "type": "address"
            },
            {
              "internalType": "uint40",
              "name": "start",
              "type": "uint40"
            },
            {
              "internalType": "uint40",
              "name": "expiration",
              "type": "uint40"
            }
          ],
          "internalType": "struct Policy.PolicyData",
          "name": "policy",
          "type": "tuple"
        },
        {
          "internalType": "uint256",
          "name": "payout",
          "type": "uint256"
        }
      ],
      "name": "resolvePolicy",
      "outputs": [],
      "stateMutability": "nonpayable",
      "type": "function"
    },
    {
      "inputs": [
        {
          "components": [
            {
              "internalType": "uint256",
              "name": "id",
              "type": "uint256"
            },
            {
              "internalType": "uint256",
              "name": "payout",
              "type": "uint256"
            },
            {
              "internalType": "uint256",
              "name": "premium",
              "type": "uint256"
            },
            {
              "internalType": "uint256",
              "name": "scr",
              "type": "uint256"
            },
            {
              "internalType": "uint256",
              "name": "lossProb",
              "type": "uint256"
            },
            {
              "internalType": "uint256",
              "name": "purePremium",
              "type": "uint256"
            },
            {
              "internalType": "uint256",
              "name": "premiumForEnsuro",
              "type": "uint256"
            },
            {
              "internalType": "uint256",
              "name": "premiumForRm",
              "type": "uint256"
            },
            {
              "internalType": "uint256",
              "name": "premiumForLps",
              "type": "uint256"
            },
            {
              "internalType": "contract IRiskModule",
              "name": "riskModule",
              "type": "address"
            },
            {
              "internalType": "uint40",
              "name": "start",
              "type": "uint40"
            },
            {
              "internalType": "uint40",
              "name": "expiration",
              "type": "uint40"
            }
          ],
          "internalType": "struct Policy.PolicyData",
          "name": "policy",
          "type": "tuple"
        },
        {
          "internalType": "bool",
          "name": "customerWon",
          "type": "bool"
        }
      ],
      "name": "resolvePolicyFullPayout",
      "outputs": [],
      "stateMutability": "nonpayable",
      "type": "function"
    },
    {
      "inputs": [
        {
          "internalType": "bytes32",
          "name": "role",
          "type": "bytes32"
        },
        {
          "internalType": "address",
          "name": "account",
          "type": "address"
        }
      ],
      "name": "revokeRole",
      "outputs": [],
      "stateMutability": "nonpayable",
      "type": "function"
    },
    {
      "inputs": [],
      "name": "scrInterestRate",
      "outputs": [
        {
          "internalType": "uint256",
          "name": "",
          "type": "uint256"
        }
      ],
      "stateMutability": "view",
      "type": "function"
    },
    {
      "inputs": [],
      "name": "scrLimit",
      "outputs": [
        {
          "internalType": "uint256",
          "name": "",
          "type": "uint256"
        }
      ],
      "stateMutability": "view",
      "type": "function"
    },
    {
      "inputs": [],
      "name": "scrPercentage",
      "outputs": [
        {
          "internalType": "uint256",
          "name": "",
          "type": "uint256"
        }
      ],
      "stateMutability": "view",
      "type": "function"
    },
    {
      "inputs": [
        {
          "internalType": "uint256",
          "name": "newEnsuroFee",
          "type": "uint256"
        }
      ],
      "name": "setEnsuroFee",
      "outputs": [],
      "stateMutability": "nonpayable",
      "type": "function"
    },
    {
      "inputs": [
        {
          "internalType": "uint256",
          "name": "newMaxScrPerPolicy",
          "type": "uint256"
        }
      ],
      "name": "setMaxScrPerPolicy",
      "outputs": [],
      "stateMutability": "nonpayable",
      "type": "function"
    },
    {
      "inputs": [
        {
          "internalType": "uint256",
          "name": "newMoc",
          "type": "uint256"
        }
      ],
      "name": "setMoc",
      "outputs": [],
      "stateMutability": "nonpayable",
      "type": "function"
    },
    {
      "inputs": [
        {
          "internalType": "uint256",
          "name": "newScrInterestRate",
          "type": "uint256"
        }
      ],
      "name": "setScrInterestRate",
      "outputs": [],
      "stateMutability": "nonpayable",
      "type": "function"
    },
    {
      "inputs": [
        {
          "internalType": "uint256",
          "name": "newScrLimit",
          "type": "uint256"
        }
      ],
      "name": "setScrLimit",
      "outputs": [],
      "stateMutability": "nonpayable",
      "type": "function"
    },
    {
      "inputs": [
        {
          "internalType": "uint256",
          "name": "newScrPercentage",
          "type": "uint256"
        }
      ],
      "name": "setScrPercentage",
      "outputs": [],
      "stateMutability": "nonpayable",
      "type": "function"
    },
    {
      "inputs": [
        {
          "internalType": "address",
          "name": "wallet_",
          "type": "address"
        }
      ],
      "name": "setWallet",
      "outputs": [],
      "stateMutability": "nonpayable",
      "type": "function"
    },
    {
      "inputs": [
        {
          "internalType": "bytes4",
          "name": "interfaceId",
          "type": "bytes4"
        }
      ],
      "name": "supportsInterface",
      "outputs": [
        {
          "internalType": "bool",
          "name": "",
          "type": "bool"
        }
      ],
      "stateMutability": "view",
      "type": "function"
    },
    {
      "inputs": [],
      "name": "totalScr",
      "outputs": [
        {
          "internalType": "uint256",
          "name": "",
          "type": "uint256"
        }
      ],
      "stateMutability": "view",
      "type": "function"
    },
    {
      "inputs": [],
      "name": "unpause",
      "outputs": [],
      "stateMutability": "nonpayable",
      "type": "function"
    },
    {
      "inputs": [
        {
          "internalType": "address",
          "name": "newImplementation",
          "type": "address"
        }
      ],
      "name": "upgradeTo",
      "outputs": [],
      "stateMutability": "nonpayable",
      "type": "function"
    },
    {
      "inputs": [
        {
          "internalType": "address",
          "name": "newImplementation",
          "type": "address"
        },
        {
          "internalType": "bytes",
          "name": "data",
          "type": "bytes"
        }
      ],
      "name": "upgradeToAndCall",
      "outputs": [],
      "stateMutability": "payable",
      "type": "function"
    },
    {
      "inputs": [],
      "name": "wallet",
      "outputs": [
        {
          "internalType": "address",
          "name": "",
          "type": "address"
        }
      ],
      "stateMutability": "view",
      "type": "function"
    }
  ],
  "bytecode": "0x60c06040523060601b6080523480156200001857600080fd5b5060405162004aed38038062004aed8339810160408190526200003b9162000051565b60601b6001600160601b03191660a05262000083565b6000602082840312156200006457600080fd5b81516001600160a01b03811681146200007c57600080fd5b9392505050565b60805160601c60a05160601c6149ab62000142600039600081816104a7015281816108fe01528181610a1f01528181610bee01528181610f1f015281816111a6015281816113e4015281816114e30152818161153a0152818161171b01528181611926015281816119da01528181611bbb01528181611da001528181611fab0152818161261601528181612a0e01528181612abc0152612cb0015260008181610e4101528181610e810152818161106801526110a801526149ab6000f3fe6080604052600436106102725760003560e01c80636f0dbe6f1161014f578063b9ea870a116100c1578063deaa59df1161007a578063deaa59df1461078e578063e5a6b10f146107ae578063e61735c0146107c3578063f33323a4146107e3578063f67b2bad14610803578063fbb812791461082557600080fd5b8063b9ea870a146106ec578063bf8e934d1461070c578063ca996de314610722578063d44499a814610738578063d547741f1461074e578063dab5d88d1461076e57600080fd5b806391d148541161011357806391d148541461062d5780639cbbcd921461064d5780639d90724d1461066d5780639e556b2b14610683578063a217fddf146106a3578063a9a24f27146106b857600080fd5b80636f0dbe6f1461057757806378fab260146105975780637ed5acfa146105cb5780638456cb59146105f85780638bac3a241461060d57600080fd5b8063406f7f6f116101e85780634f1ef286116101ac5780634f1ef286146104df578063521eb273146104f257806353428253146105115780635b494dd5146105275780635c975abb146105495780635d505fe71461056157600080fd5b8063406f7f6f1461040557806341ea6a0f14610425578063468a8c9f1461043b5780634a47a3e0146104765780634d15eb031461049857600080fd5b8063248a9ca31161023a578063248a9ca31461033057806324ea54f41461036e5780632f2ff15d1461039057806336568abe146103b05780633659cfe6146103d05780633f4ba83a146103f057600080fd5b806301ffc9a714610277578063066dda0e146102ac57806306fdde03146102ce578063089a8504146102f057806322875d6314610310575b600080fd5b34801561028357600080fd5b5061029761029236600461417d565b610859565b60405190151581526020015b60405180910390f35b3480156102b857600080fd5b506102cc6102c736600461425a565b610890565b005b3480156102da57600080fd5b506102e361096c565b6040516102a391906144d3565b3480156102fc57600080fd5b506102cc61030b366004614134565b6109ff565b34801561031c57600080fd5b506102cc61032b366004614134565b610bce565b34801561033c57600080fd5b5061036061034b366004614134565b600090815260c9602052604090206001015490565b6040519081526020016102a3565b34801561037a57600080fd5b5061036060008051602061495683398151915281565b34801561039c57600080fd5b506102cc6103ab36600461414d565b610d92565b3480156103bc57600080fd5b506102cc6103cb36600461414d565b610db8565b3480156103dc57600080fd5b506102cc6103eb366004614096565b610e36565b3480156103fc57600080fd5b506102cc610eff565b34801561041157600080fd5b506103606104203660046142cf565b611015565b34801561043157600080fd5b5061013454610360565b34801561044757600080fd5b5061012d546040805164ffffffffff83168152600160281b90920466ffffffffffffff166020830152016102a3565b34801561048257600080fd5b5061036060008051602061493683398151915281565b3480156104a457600080fd5b507f00000000000000000000000000000000000000000000000000000000000000005b6040516001600160a01b0390911681526020016102a3565b6102cc6104ed3660046140b3565b61105d565b3480156104fe57600080fd5b50610136546001600160a01b03166104c7565b34801561051d57600080fd5b5061013054610360565b34801561053357600080fd5b506103606000805160206148ef83398151915281565b34801561055557600080fd5b5060fb5460ff16610297565b34801561056d57600080fd5b5061013354610360565b34801561058357600080fd5b506102cc6105923660046141c4565b611113565b3480156105a357600080fd5b506103607f92a19c77d2ea87c7f81d50c74403cb2f401780f3ad919571121efe2bdb427eb181565b3480156105d757600080fd5b506105e26201518081565b60405164ffffffffff90911681526020016102a3565b34801561060457600080fd5b506102cc611195565b34801561061957600080fd5b50610360610628366004614345565b61129d565b34801561063957600080fd5b5061029761064836600461414d565b6113b6565b34801561065957600080fd5b506102cc610668366004614134565b6113e1565b34801561067957600080fd5b5061013254610360565b34801561068f57600080fd5b506102cc61069e366004614289565b61147e565b3480156106af57600080fd5b50610360600081565b3480156106c457600080fd5b506103607f0df0a8869cf58168a14cd7ac426ff1b8c6ff5d5c800c6f44803f3431dcb3bad181565b3480156106f857600080fd5b506102cc610707366004614134565b61151a565b34801561071857600080fd5b5061012f54610360565b34801561072e57600080fd5b5061013554610360565b34801561074457600080fd5b5061013154610360565b34801561075a57600080fd5b506102cc61076936600461414d565b6116d5565b34801561077a57600080fd5b506102cc610789366004614134565b6116fb565b34801561079a57600080fd5b506102cc6107a9366004614096565b6118c2565b3480156107ba57600080fd5b506104c7611922565b3480156107cf57600080fd5b506102cc6107de366004614134565b6119ba565b3480156107ef57600080fd5b506102cc6107fe366004614134565b611b7f565b34801561080f57600080fd5b506103606000805160206148cf83398151915281565b34801561083157600080fd5b506103607fc6823861ee2bb2198ce6b1fd6faf4c8f44f745bc804aca4a762f67e0d507fd8a81565b60006001600160e01b03198216637965db0b60e01b148061088a57506301ffc9a760e01b6001600160e01b03198316145b92915050565b7f92a19c77d2ea87c7f81d50c74403cb2f401780f3ad919571121efe2bdb427eb16108bb8133611f43565b60fb5460ff16156108e75760405162461bcd60e51b81526004016108de9061459e565b60405180910390fd5b604051630336ed0760e11b81526001600160a01b037f0000000000000000000000000000000000000000000000000000000000000000169063066dda0e906109359086908690600401614616565b600060405180830381600087803b15801561094f57600080fd5b505af1158015610963573d6000803e3d6000fd5b50505050505050565b606061012e805461097c9061481e565b80601f01602080910402602001604051908101604052809291908181526020018280546109a89061481e565b80156109f55780601f106109ca576101008083540402835291602001916109f5565b820191906000526020600020905b8154815290600101906020018083116109d857829003601f168201915b5050505050905090565b6000805160206149368339815191526000805160206148ef8339815191527f00000000000000000000000000000000000000000000000000000000000000006001600160a01b03166379502c556040518163ffffffff1660e01b815260040160206040518083038186803b158015610a7657600080fd5b505afa158015610a8a573d6000803e3d6000fd5b505050506040513d601f19601f82011682018060405250810190610aae91906141a7565b6001600160a01b031663c5b8f5cf8383336040518463ffffffff1660e01b8152600401610add939291906144b4565b60006040518083038186803b158015610af557600080fd5b505afa158015610b09573d6000803e3d6000fd5b505050506000610b26600080516020614936833981519152611fa7565b159050801580610b4a5750610b4a61013154856af8277896582678ac0000006120ba565b610bae5760405162461bcd60e51b815260206004820152602f60248201527f547765616b2065786365656465643a20656e7375726f46656520747765616b7360448201526e206f6e6c7920757020746f2033302560881b60648201526084016108de565b610131849055610bc0600a8583612145565b50610bc961219e565b505050565b6000805160206149368339815191526000805160206148ef8339815191527f00000000000000000000000000000000000000000000000000000000000000006001600160a01b03166379502c556040518163ffffffff1660e01b815260040160206040518083038186803b158015610c4557600080fd5b505afa158015610c59573d6000803e3d6000fd5b505050506040513d601f19601f82011682018060405250810190610c7d91906141a7565b6001600160a01b031663c5b8f5cf8383336040518463ffffffff1660e01b8152600401610cac939291906144b4565b60006040518083038186803b158015610cc457600080fd5b505afa158015610cd8573d6000803e3d6000fd5b505050506000610cf5600080516020614936833981519152611fa7565b159050801580610d165750610d166101335485670429d069189e000061246c565b610d805760405162461bcd60e51b815260206004820152603560248201527f547765616b2065786365656465643a206d6178536372506572506f6c69637920604482015274747765616b73206f6e6c7920757020746f2033302560581b60648201526084016108de565b610133849055610bc0600b8583612145565b600082815260c96020526040902060010154610dae8133611f43565b610bc983836124db565b6001600160a01b0381163314610e285760405162461bcd60e51b815260206004820152602f60248201527f416363657373436f6e74726f6c3a2063616e206f6e6c792072656e6f756e636560448201526e103937b632b9903337b91039b2b63360891b60648201526084016108de565b610e328282612561565b5050565b306001600160a01b037f0000000000000000000000000000000000000000000000000000000000000000161415610e7f5760405162461bcd60e51b81526004016108de90614506565b7f00000000000000000000000000000000000000000000000000000000000000006001600160a01b0316610eb16125c8565b6001600160a01b031614610ed75760405162461bcd60e51b81526004016108de90614552565b610ee0816125f6565b60408051600080825260208201909252610efc91839190612700565b50565b6000805160206149568339815191526000805160206148cf8339815191527f00000000000000000000000000000000000000000000000000000000000000006001600160a01b03166379502c556040518163ffffffff1660e01b815260040160206040518083038186803b158015610f7657600080fd5b505afa158015610f8a573d6000803e3d6000fd5b505050506040513d601f19601f82011682018060405250810190610fae91906141a7565b6001600160a01b031663c5b8f5cf8383336040518463ffffffff1660e01b8152600401610fdd939291906144b4565b60006040518083038186803b158015610ff557600080fd5b505afa158015611009573d6000803e3d6000fd5b50505050610e3261284b565b60007fc6823861ee2bb2198ce6b1fd6faf4c8f44f745bc804aca4a762f67e0d507fd8a6110428133611f43565b6110508888888888886128de565b5198975050505050505050565b306001600160a01b037f00000000000000000000000000000000000000000000000000000000000000001614156110a65760405162461bcd60e51b81526004016108de90614506565b7f00000000000000000000000000000000000000000000000000000000000000006001600160a01b03166110d86125c8565b6001600160a01b0316146110fe5760405162461bcd60e51b81526004016108de90614552565b611107826125f6565b610e3282826001612700565b600054610100900460ff168061112c575060005460ff16155b6111485760405162461bcd60e51b81526004016108de906145c8565b600054610100900460ff1615801561116a576000805461ffff19166101011790555b61117988888888888888612d49565b801561118b576000805461ff00191690555b5050505050505050565b6000805160206149568339815191527f00000000000000000000000000000000000000000000000000000000000000006001600160a01b03166379502c556040518163ffffffff1660e01b815260040160206040518083038186803b1580156111fd57600080fd5b505afa158015611211573d6000803e3d6000fd5b505050506040513d601f19601f8201168201806040525081019061123591906141a7565b6040516312d9a6ad60e01b8152600481018390523360248201526001600160a01b0391909116906312d9a6ad9060440160006040518083038186803b15801561127d57600080fd5b505afa158015611291573d6000803e3d6000fd5b50505050610efc612dbf565b6000806112ce6112c96112ba6112b36101305490565b8790612e17565b6112c388612eee565b90612e17565b612f6c565b905060006112e96112e26112c96101315490565b8390612ff4565b9050600081836113066112ff6112c961012f5490565b8a90612ff4565b611310919061477b565b61131a919061477b565b9050600061135a6112c96e0612d847b578e7643c28ac000000006113454264ffffffffff8b1661477b565b610132545b611354919061475c565b906130a7565b90506113668282612ff4565b611370908361477b565b9150600061137e8383612ff4565b90506113a7670de27d72f9c74000826113978789614722565b6113a19190614722565b90612ff4565b955050505050505b9392505050565b600091825260c9602090815260408084206001600160a01b0393909316845291905290205460ff1690565b337f00000000000000000000000000000000000000000000000000000000000000006001600160a01b0316146114635760405162461bcd60e51b815260206004820152602160248201527f5468652063616c6c6572206d7573742062652074686520506f6c696379506f6f6044820152601b60fa1b60648201526084016108de565b806101356000828254611476919061477b565b909155505050565b7f92a19c77d2ea87c7f81d50c74403cb2f401780f3ad919571121efe2bdb427eb16114a98133611f43565b60fb5460ff16156114cc5760405162461bcd60e51b81526004016108de9061459e565b604051639e556b2b60e01b81526001600160a01b037f00000000000000000000000000000000000000000000000000000000000000001690639e556b2b906109359086908690600401614635565b6000805160206149368339815191526000805160206148ef8339815191527f00000000000000000000000000000000000000000000000000000000000000006001600160a01b03166379502c556040518163ffffffff1660e01b815260040160206040518083038186803b15801561159157600080fd5b505afa1580156115a5573d6000803e3d6000fd5b505050506040513d601f19601f820116820180604052508101906115c991906141a7565b6001600160a01b031663c5b8f5cf8383336040518463ffffffff1660e01b81526004016115f8939291906144b4565b60006040518083038186803b15801561161057600080fd5b505afa158015611624573d6000803e3d6000fd5b505050506000611641600080516020614936833981519152611fa7565b159050801580611665575061166561013054856a52b7d2dcc80cd2e40000006120ba565b6116c35760405162461bcd60e51b815260206004820152602960248201527f547765616b2065786365656465643a206d6f6320747765616b73206f6e6c7920604482015268757020746f2031302560b81b60648201526084016108de565b610130849055610bc060088583612145565b600082815260c960205260409020600101546116f18133611f43565b610bc98383612561565b6000805160206149368339815191526000805160206148ef8339815191527f00000000000000000000000000000000000000000000000000000000000000006001600160a01b03166379502c556040518163ffffffff1660e01b815260040160206040518083038186803b15801561177257600080fd5b505afa158015611786573d6000803e3d6000fd5b505050506040513d601f19601f820116820180604052508101906117aa91906141a7565b6001600160a01b031663c5b8f5cf8383336040518463ffffffff1660e01b81526004016117d9939291906144b4565b60006040518083038186803b1580156117f157600080fd5b505afa158015611805573d6000803e3d6000fd5b505050506000611822600080516020614936833981519152611fa7565b159050801580611846575061184661013254856af8277896582678ac0000006120ba565b6118b05760405162461bcd60e51b815260206004820152603560248201527f547765616b2065786365656465643a20736372496e7465726573745261746520604482015274747765616b73206f6e6c7920757020746f2033302560581b60648201526084016108de565b610132849055610bc060098583612145565b7f0df0a8869cf58168a14cd7ac426ff1b8c6ff5d5c800c6f44803f3431dcb3bad16118ed8133611f43565b61013680546001600160a01b0319166001600160a01b03841690811790915561191a90600f906000612145565b610e3261219e565b60007f00000000000000000000000000000000000000000000000000000000000000006001600160a01b031663e5a6b10f6040518163ffffffff1660e01b815260040160206040518083038186803b15801561197d57600080fd5b505afa158015611991573d6000803e3d6000fd5b505050506040513d601f19601f820116820180604052508101906119b591906141a7565b905090565b6000805160206149368339815191526000805160206148ef8339815191527f00000000000000000000000000000000000000000000000000000000000000006001600160a01b03166379502c556040518163ffffffff1660e01b815260040160206040518083038186803b158015611a3157600080fd5b505afa158015611a45573d6000803e3d6000fd5b505050506040513d601f19601f82011682018060405250810190611a6991906141a7565b6001600160a01b031663c5b8f5cf8383336040518463ffffffff1660e01b8152600401611a98939291906144b4565b60006040518083038186803b158015611ab057600080fd5b505afa158015611ac4573d6000803e3d6000fd5b505050506000611ae1600080516020614936833981519152611fa7565b159050801580611b055750611b0561012f54856a52b7d2dcc80cd2e40000006120ba565b611b6d5760405162461bcd60e51b815260206004820152603360248201527f547765616b2065786365656465643a2073637250657263656e7461676520747760448201527265616b73206f6e6c7920757020746f2031302560681b60648201526084016108de565b61012f849055610bc060078583612145565b6000805160206148cf8339815191526000805160206149368339815191526000805160206148ef833981519152611bb583611fa7565b611caa577f00000000000000000000000000000000000000000000000000000000000000006001600160a01b03166379502c556040518163ffffffff1660e01b815260040160206040518083038186803b158015611c1257600080fd5b505afa158015611c26573d6000803e3d6000fd5b505050506040513d601f19601f82011682018060405250810190611c4a91906141a7565b6001600160a01b031663c5b8f5cf8383336040518463ffffffff1660e01b8152600401611c79939291906144b4565b60006040518083038186803b158015611c9157600080fd5b505afa158015611ca5573d6000803e3d6000fd5b505050505b6000611cc3600080516020614936833981519152611fa7565b158015611ce45750611ce26000805160206148cf833981519152611fa7565b155b9050801580611d045750611d04610134548667016345785d8a000061246c565b611d675760405162461bcd60e51b815260206004820152602e60248201527f547765616b2065786365656465643a207363724c696d697420747765616b732060448201526d6f6e6c7920757020746f2031302560901b60648201526084016108de565b6101345485111580611d8b5750611d8b6000805160206148cf833981519152611fa7565b80611e31575084611e2f67016345785d8a00007f00000000000000000000000000000000000000000000000000000000000000006001600160a01b031663b77ddfea6040518163ffffffff1660e01b815260040160206040518083038186803b158015611df757600080fd5b505afa158015611e0b573d6000803e3d6000fd5b505050506040513d601f19601f820116820180604052508101906113a191906142b6565b115b611eb85760405162461bcd60e51b815260206004820152604c60248201527f547765616b2065786365656465643a20496e6372656173652c203e3d3130252060448201527f6f662074686520746f74616c206c69717569646974792c20726571756972657360648201526b204c4556454c315f524f4c4560a01b608482015260a4016108de565b61013554851015611f225760405162461bcd60e51b815260206004820152602e60248201527f43616e27742073657420534352206c657373207468616e2063757272656e742060448201526d29a1a91030b63637b1b0ba34b7b760911b60648201526084016108de565b610134859055611f34600c8683612145565b50611f3d61219e565b50505050565b611f4d82826113b6565b610e3257611f65816001600160a01b031660146131ad565b611f708360206131ad565b604051602001611f8192919061443f565b60408051601f198184030181529082905262461bcd60e51b82526108de916004016144d3565b60007f00000000000000000000000000000000000000000000000000000000000000006001600160a01b03166379502c556040518163ffffffff1660e01b815260040160206040518083038186803b15801561200257600080fd5b505afa158015612016573d6000803e3d6000fd5b505050506040513d601f19601f8201168201806040525081019061203a91906141a7565b604051632474521560e21b8152600481018490523360248201526001600160a01b0391909116906391d148549060440160206040518083038186803b15801561208257600080fd5b505afa158015612096573d6000803e3d6000fd5b505050506040513d601f19601f8201168201806040525081019061088a9190614117565b6000828414156120cc575060016113af565b836120e65750676765c793fa10079d601b1b8110156113af565b826120f3575060006113af565b828410156121255781676765c793fa10079d601b1b61211285876130a7565b61211c919061477b565b111590506113af565b8161213084866130a7565b61211c90676765c793fa10079d601b1b61477b565b80156121545761215483613349565b82601b81111561216657612166614869565b6040518381527f7bc647fe5043209e2019aa3503b79c1b0dd83eb61c56013d373a7584ff6bfb139060200160405180910390a2505050565b676765c793fa10079d601b1b61012f54111580156121bf5750600061012f54115b6122195760405162461bcd60e51b815260206004820152602560248201527f56616c69646174696f6e3a2073637250657263656e74616765206d757374206260448201526465203c3d3160d81b60648201526084016108de565b61222f676765c793fa10079d601b1b600261475c565b610130541115801561225957506122526002676765c793fa10079d601b1b61473a565b6101305410155b6122a55760405162461bcd60e51b815260206004820181905260248201527f56616c69646174696f6e3a206d6f63206d757374206265205b302e352c20325d60448201526064016108de565b676765c793fa10079d601b1b61013154111561230e5760405162461bcd60e51b815260206004820152602260248201527f56616c69646174696f6e3a20656e7375726f466565206d757374206265203c3d604482015261203160f01b60648201526084016108de565b676765c793fa10079d601b1b6101325411156123845760405162461bcd60e51b815260206004820152602f60248201527f56616c69646174696f6e3a20736372496e74657265737452617465206d75737460448201526e206265203c3d20312028313030252960881b60648201526084016108de565b610135546101345410156124005760405162461bcd60e51b815260206004820152603760248201527f56616c69646174696f6e3a207363724c696d69742063616e2774206265206c6560448201527f7373207468616e2061637475616c20746f74616c53637200000000000000000060648201526084016108de565b610136546001600160a01b031661246a5760405162461bcd60e51b815260206004820152602860248201527f56616c69646174696f6e3a2057616c6c65742063616e2774206265207a65726f604482015267206164647265737360c01b60648201526084016108de565b565b60008284141561247e575060016113af565b836124955750670de0b6b3a76400008110156113af565b826124a2575060006113af565b828410156124be5781670de0b6b3a764000061211285876134b6565b816124c984866134b6565b61211c90670de0b6b3a764000061477b565b6124e582826113b6565b610e3257600082815260c9602090815260408083206001600160a01b03851684529091529020805460ff1916600117905561251d3390565b6001600160a01b0316816001600160a01b0316837f2f8788117e7eff1d82e926ec794901d17c78024a50270940304540a733656f0d60405160405180910390a45050565b61256b82826113b6565b15610e3257600082815260c9602090815260408083206001600160a01b0385168085529252808320805460ff1916905551339285917ff6391f5c32d9c69d2a47ea670b442974b53935d1edc7fd64eb21e047a839171b9190a45050565b7f360894a13ba1a3210667c828492db98dca3e2076cc3735a920a3ca505d382bbc546001600160a01b031690565b6000805160206149568339815191526000805160206148cf8339815191527f00000000000000000000000000000000000000000000000000000000000000006001600160a01b03166379502c556040518163ffffffff1660e01b815260040160206040518083038186803b15801561266d57600080fd5b505afa158015612681573d6000803e3d6000fd5b505050506040513d601f19601f820116820180604052508101906126a591906141a7565b6001600160a01b031663c5b8f5cf8383336040518463ffffffff1660e01b81526004016126d4939291906144b4565b60006040518083038186803b1580156126ec57600080fd5b505afa158015610963573d6000803e3d6000fd5b600061270a6125c8565b9050612715846135a2565b6000835111806127225750815b15612733576127318484613647565b505b7f4910fdfa16fed3260ed0e7147f7cc6da11a60208b5b9406d12a635614ffd9143805460ff1661284457805460ff191660011781556040516001600160a01b03831660248201526127b290869060440160408051601f198184030181529190526020810180516001600160e01b0316631b2ce7f360e11b179052613647565b50805460ff191681556127c36125c8565b6001600160a01b0316826001600160a01b03161461283b5760405162461bcd60e51b815260206004820152602f60248201527f45524331393637557067726164653a207570677261646520627265616b73206660448201526e75727468657220757067726164657360881b60648201526084016108de565b61284485613732565b5050505050565b60fb5460ff166128945760405162461bcd60e51b815260206004820152601460248201527314185d5cd8589b194e881b9bdd081c185d5cd95960621b60448201526064016108de565b60fb805460ff191690557f5db9ee0a495bf2e6ff9c91a7834c1ba4fdd244a5e8aa4e537bd38aeae4b073aa335b6040516001600160a01b03909116815260200160405180910390a1565b6128e6613ed1565b60fb5460ff16156129095760405162461bcd60e51b81526004016108de9061459e565b8686106129585760405162461bcd60e51b815260206004820181905260248201527f5072656d69756d206d757374206265206c657373207468616e207061796f757460448201526064016108de565b4264ffffffffff168464ffffffffff16116129b55760405162461bcd60e51b815260206004820181905260248201527f45787069726174696f6e206d75737420626520696e207468652066757475726560448201526064016108de565b6001600160a01b038316612a0b5760405162461bcd60e51b815260206004820152601e60248201527f437573746f6d65722063616e2774206265207a65726f2061646472657373000060448201526064016108de565b857f00000000000000000000000000000000000000000000000000000000000000006001600160a01b031663e5a6b10f6040518163ffffffff1660e01b815260040160206040518083038186803b158015612a6557600080fd5b505afa158015612a79573d6000803e3d6000fd5b505050506040513d601f19601f82011682018060405250810190612a9d91906141a7565b604051636eb1769f60e11b81526001600160a01b0386811660048301527f000000000000000000000000000000000000000000000000000000000000000081166024830152919091169063dd62ed3e9060440160206040518083038186803b158015612b0857600080fd5b505afa158015612b1c573d6000803e3d6000fd5b505050506040513d601f19601f82011682018060405250810190612b4091906142b6565b1015612ba45760405162461bcd60e51b815260206004820152602d60248201527f596f75206d75737420616c6c6f7720454e5355524f20746f207472616e73666560448201526c7220746865207072656d69756d60981b60648201526084016108de565b6000612bb330888a8989613772565b90506101335481606001511115612c245760405162461bcd60e51b815260206004820152602f60248201527f5269736b4d6f64756c653a20534352206973206d6f7265207468616e206d617860448201526e696d756d2070657220706f6c69637960881b60648201526084016108de565b80606001516101356000828254612c3b9190614722565b909155505061013454610135541115612c965760405162461bcd60e51b815260206004820152601e60248201527f5269736b4d6f64756c653a20534352206c696d6974206578636565646564000060448201526064016108de565b604051630cb8251d60e11b81526000906001600160a01b037f000000000000000000000000000000000000000000000000000000000000000016906319704a3a90612ce990859089908990600401614652565b602060405180830381600087803b158015612d0357600080fd5b505af1158015612d17573d6000803e3d6000fd5b505050506040513d601f19601f82011682018060405250810190612d3b91906142b6565b825250979650505050505050565b600054610100900460ff1680612d62575060005460ff16155b612d7e5760405162461bcd60e51b81526004016108de906145c8565b600054610100900460ff16158015612da0576000805461ffff19166101011790555b612da8613b30565b612db0613bb3565b61117988888888888888613c1a565b60fb5460ff1615612de25760405162461bcd60e51b81526004016108de9061459e565b60fb805460ff191660011790557f62e78cea01bee320cd4e420270b5ea74000d11b0c9f74754ebdbfc544b05a2586128c13390565b6000821580612e24575081155b15612e315750600061088a565b81612e486002676765c793fa10079d601b1b61473a565b612e549060001961477b565b612e5e919061473a565b831115612eb95760405162461bcd60e51b8152602060048201526024808201527f7261794d756c3a204d617468204d756c7469706c69636174696f6e204f766572604482015263666c6f7760e01b60648201526084016108de565b676765c793fa10079d601b1b612ed060028261473a565b612eda848661475c565b612ee49190614722565b6113af919061473a565b600080612eff633b9aca008461475c565b905082612f10633b9aca008361473a565b1461088a5760405162461bcd60e51b815260206004820152602660248201527f776164546f5261643a204d617468204d756c7469706c69636174696f6e204f766044820152656572666c6f7760d01b60648201526084016108de565b600080612f7e6002633b9aca0061473a565b90506000612f8c8483614722565b905081811015612fde5760405162461bcd60e51b815260206004820181905260248201527f726179546f5761643a204d617468204164646974696f6e204f766572666c6f7760448201526064016108de565b612fec633b9aca008261473a565b949350505050565b6000821580613001575081155b1561300e5750600061088a565b816130226002670de0b6b3a764000061473a565b61302e9060001961477b565b613038919061473a565b8311156130935760405162461bcd60e51b8152602060048201526024808201527f7761644d756c3a204d617468204d756c7469706c69636174696f6e204f766572604482015263666c6f7760e01b60648201526084016108de565b670de0b6b3a7640000612ed060028261473a565b6000816130f65760405162461bcd60e51b815260206004820152601860248201527f7261794469763a204469766973696f6e206279207a65726f000000000000000060448201526064016108de565b600061310360028461473a565b9050676765c793fa10079d601b1b61311d8260001961477b565b613127919061473a565b8411156131825760405162461bcd60e51b8152602060048201526024808201527f7261794469763a204d617468204d756c7469706c69636174696f6e204f766572604482015263666c6f7760e01b60648201526084016108de565b8281613199676765c793fa10079d601b1b8761475c565b6131a39190614722565b612fec919061473a565b606060006131bc83600261475c565b6131c7906002614722565b67ffffffffffffffff8111156131df576131df614895565b6040519080825280601f01601f191660200182016040528015613209576020820181803683370190505b509050600360fc1b816000815181106132245761322461487f565b60200101906001600160f81b031916908160001a905350600f60fb1b816001815181106132535761325361487f565b60200101906001600160f81b031916908160001a905350600061327784600261475c565b613282906001614722565b90505b60018111156132fa576f181899199a1a9b1b9c1cb0b131b232b360811b85600f16601081106132b6576132b661487f565b1a60f81b8282815181106132cc576132cc61487f565b60200101906001600160f81b031916908160001a90535060049490941c936132f381614807565b9050613285565b5083156113af5760405162461bcd60e51b815260206004820181905260248201527f537472696e67733a20686578206c656e67746820696e73756666696369656e7460448201526064016108de565b6000600182601b81111561335f5761335f614869565b61336991906147b8565b61012d54600160ff929092169190911b915062015180906133919064ffffffffff1642614792565b64ffffffffff1611156133d45761012d805466ffffffffffffff8316600160281b026bffffffffffffffffffffffff1990911664ffffffffff4216171790555050565b61012d54600160281b9004811666ffffffffffffff166134385761012d805464ffffffffff421664ffffffffff1966ffffffffffffff808616600160281b808604929092161702166bffffffffffffffffffffffff19909216919091171790555050565b60405162461bcd60e51b815260206004820152604760248201527f596f7520616c726561647920747765616b6564207468697320706172616d657460448201527f657220726563656e746c792e2057616974206265666f726520747765616b696e606482015266339030b3b0b4b760c91b608482015260a4016108de565b6000816135055760405162461bcd60e51b815260206004820152601860248201527f7761644469763a204469766973696f6e206279207a65726f000000000000000060448201526064016108de565b600061351260028461473a565b9050670de0b6b3a76400006135298260001961477b565b613533919061473a565b84111561358e5760405162461bcd60e51b8152602060048201526024808201527f7761644469763a204d617468204d756c7469706c69636174696f6e204f766572604482015263666c6f7760e01b60648201526084016108de565b8281613199670de0b6b3a76400008761475c565b803b6136065760405162461bcd60e51b815260206004820152602d60248201527f455243313936373a206e657720696d706c656d656e746174696f6e206973206e60448201526c1bdd08184818dbdb9d1c9858dd609a1b60648201526084016108de565b7f360894a13ba1a3210667c828492db98dca3e2076cc3735a920a3ca505d382bbc80546001600160a01b0319166001600160a01b0392909216919091179055565b6060823b6136a65760405162461bcd60e51b815260206004820152602660248201527f416464726573733a2064656c65676174652063616c6c20746f206e6f6e2d636f6044820152651b9d1c9858dd60d21b60648201526084016108de565b600080846001600160a01b0316846040516136c19190614423565b600060405180830381855af49150503d80600081146136fc576040519150601f19603f3d011682016040523d82523d6000602084013e613701565b606091505b5091509150613729828260405180606001604052806027815260200161490f60279139613cea565b95945050505050565b61373b816135a2565b6040516001600160a01b038216907fbc7cd75a20ee27fd9adebab32041f755214dbc6bffa90cc0225b39da2e5c2d3b90600090a250565b61377a613ed1565b838511156137d55760405162461bcd60e51b815260206004820152602260248201527f5072656d69756d2063616e6e6f74206265206d6f7265207468616e207061796f6044820152611d5d60f21b60648201526084016108de565b6137dd613ed1565b6001600160a01b03871661012082018190526040808301889052602080840188905260808401879052815163bf8e934d60e01b8152915189936138829361387b93919263bf8e934d92600480840193919291829003018186803b15801561384357600080fd5b505afa158015613857573d6000803e3d6000fd5b505050506040513d601f19601f820116820180604052508101906112c991906142b6565b8790612ff4565b61388c919061477b565b606082018190526138d35760405162461bcd60e51b81526020600482015260116024820152705343522063616e2774206265207a65726f60781b60448201526064016108de565b64ffffffffff428116610140830152831661016082015260408051635342825360e01b8152905161396f916112c9916112ba916001600160a01b038c1691635342825391600480820192602092909190829003018186803b15801561393757600080fd5b505afa15801561394b573d6000803e3d6000fd5b505050506040513d601f19601f820116820180604052508101906112b391906142b6565b8160a00181815250506139c26139b7886001600160a01b031663d44499a86040518163ffffffff1660e01b815260040160206040518083038186803b15801561384357600080fd5b60a083015190612ff4565b8160c0018181525050613a7d613a726112c96e0612d847b578e7643c28ac000000008461014001518561016001516139fa9190614792565b64ffffffffff168b6001600160a01b0316639d90724d6040518163ffffffff1660e01b815260040160206040518083038186803b158015613a3a57600080fd5b505afa158015613a4e573d6000803e3d6000fd5b505050506040513d601f19601f8201168201806040525081019061134a91906142b6565b606083015190612ff4565b610100820181905260c082015160a0830151889291613a9b91614722565b613aa59190614722565b1115613af35760405162461bcd60e51b815260206004820152601960248201527f5072656d69756d206c657373207468616e206d696e696d756d0000000000000060448201526064016108de565b60c081015161010082015160a0830151613b0d908961477b565b613b17919061477b565b613b21919061477b565b60e08201529695505050505050565b600054610100900460ff1680613b49575060005460ff16155b613b655760405162461bcd60e51b81526004016108de906145c8565b600054610100900460ff16158015613b87576000805461ffff19166101011790555b613b8f613d23565b613b97613d23565b613b9f613d23565b8015610efc576000805461ff001916905550565b600054610100900460ff1680613bcc575060005460ff16155b613be85760405162461bcd60e51b81526004016108de906145c8565b600054610100900460ff16158015613c0a576000805461ffff19166101011790555b613c12613d8d565b613b9f613deb565b600054610100900460ff1680613c33575060005460ff16155b613c4f5760405162461bcd60e51b81526004016108de906145c8565b600054610100900460ff16158015613c71576000805461ffff19166101011790555b8751613c859061012e9060208b0190613f49565b5061012f879055676765c793fa10079d601b1b61013055610131869055610132859055610133849055610134839055600061013581905561013680546001600160a01b0319166001600160a01b038516179055613ce29033613e52565b61117961219e565b60608315613cf95750816113af565b825115613d095782518084602001fd5b8160405162461bcd60e51b81526004016108de91906144d3565b600054610100900460ff1680613d3c575060005460ff16155b613d585760405162461bcd60e51b81526004016108de906145c8565b600054610100900460ff16158015613b9f576000805461ffff19166101011790558015610efc576000805461ff001916905550565b600054610100900460ff1680613da6575060005460ff16155b613dc25760405162461bcd60e51b81526004016108de906145c8565b600054610100900460ff16158015613b8f576000805461ffff1916610101179055613b97613d23565b600054610100900460ff1680613e04575060005460ff16155b613e205760405162461bcd60e51b81526004016108de906145c8565b600054610100900460ff16158015613e42576000805461ffff19166101011790555b613e4a613d23565b613b9f613e5c565b610e3282826124db565b600054610100900460ff1680613e75575060005460ff16155b613e915760405162461bcd60e51b81526004016108de906145c8565b600054610100900460ff16158015613eb3576000805461ffff19166101011790555b60fb805460ff191690558015610efc576000805461ff001916905550565b60405180610180016040528060008152602001600081526020016000815260200160008152602001600081526020016000815260200160008152602001600081526020016000815260200160006001600160a01b03168152602001600064ffffffffff168152602001600064ffffffffff1681525090565b828054613f559061481e565b90600052602060002090601f016020900481019282613f775760008555613fbd565b82601f10613f9057805160ff1916838001178555613fbd565b82800160010185558215613fbd579182015b82811115613fbd578251825591602001919060010190613fa2565b50613fc9929150613fcd565b5090565b5b80821115613fc95760008155600101613fce565b600067ffffffffffffffff80841115613ffd57613ffd614895565b604051601f8501601f19908116603f0116810190828211818310171561402557614025614895565b8160405280935085815286868601111561403e57600080fd5b858560208301376000602087830101525050509392505050565b8035614063816148ab565b919050565b6000610180828403121561407b57600080fd5b50919050565b803564ffffffffff8116811461406357600080fd5b6000602082840312156140a857600080fd5b81356113af816148ab565b600080604083850312156140c657600080fd5b82356140d1816148ab565b9150602083013567ffffffffffffffff8111156140ed57600080fd5b8301601f810185136140fe57600080fd5b61410d85823560208401613fe2565b9150509250929050565b60006020828403121561412957600080fd5b81516113af816148c0565b60006020828403121561414657600080fd5b5035919050565b6000806040838503121561416057600080fd5b823591506020830135614172816148ab565b809150509250929050565b60006020828403121561418f57600080fd5b81356001600160e01b0319811681146113af57600080fd5b6000602082840312156141b957600080fd5b81516113af816148ab565b600080600080600080600060e0888a0312156141df57600080fd5b873567ffffffffffffffff8111156141f657600080fd5b8801601f81018a1361420757600080fd5b6142168a823560208401613fe2565b9750506020880135955060408801359450606088013593506080880135925060a0880135915060c088013561424a816148ab565b8091505092959891949750929550565b6000806101a0838503121561426e57600080fd5b6142788484614068565b9150610180830135614172816148c0565b6000806101a0838503121561429d57600080fd5b6142a78484614068565b94610180939093013593505050565b6000602082840312156142c857600080fd5b5051919050565b60008060008060008060c087890312156142e857600080fd5b86359550602087013594506040870135935061430660608801614081565b92506080870135614316816148ab565b915060a08701356bffffffffffffffffffffffff8116811461433757600080fd5b809150509295509295509295565b60008060006060848603121561435a57600080fd5b833592506020840135915061437160408501614081565b90509250925092565b803582526020810135602083015260408101356040830152606081013560608301526080810135608083015260a081013560a083015260c081013560c083015260e081013560e08301526101008082013581840152506101206143de818301614058565b6001600160a01b0316908301526101406143f9828201614081565b64ffffffffff1690830152610160614412828201614081565b64ffffffffff811684830152611f3d565b600082516144358184602087016147db565b9190910192915050565b7f416363657373436f6e74726f6c3a206163636f756e74200000000000000000008152600083516144778160178501602088016147db565b7001034b99036b4b9b9b4b733903937b6329607d1b60179184019182015283516144a88160288401602088016147db565b01602801949350505050565b92835260208301919091526001600160a01b0316604082015260600190565b60208152600082518060208401526144f28160408501602087016147db565b601f01601f19169190910160400192915050565b6020808252602c908201527f46756e6374696f6e206d7573742062652063616c6c6564207468726f7567682060408201526b19195b1959d85d1958d85b1b60a21b606082015260800190565b6020808252602c908201527f46756e6374696f6e206d7573742062652063616c6c6564207468726f7567682060408201526b6163746976652070726f787960a01b606082015260800190565b60208082526010908201526f14185d5cd8589b194e881c185d5cd95960821b604082015260600190565b6020808252602e908201527f496e697469616c697a61626c653a20636f6e747261637420697320616c72656160408201526d191e481a5b9a5d1a585b1a5e995960921b606082015260800190565b6101a08101614625828561437a565b8215156101808301529392505050565b6101a08101614644828561437a565b826101808301529392505050565b60006101c082019050845182526020850151602083015260408501516040830152606085015160608301526080850151608083015260a085015160a083015260c085015160c083015260e085015160e0830152610100808601518184015250610120808601516146cc828501826001600160a01b03169052565b50506101408581015164ffffffffff81168483015250506101608581015164ffffffffff81168483015250506001600160a01b0384166101808301526bffffffffffffffffffffffff83166101a0830152612fec565b6000821982111561473557614735614853565b500190565b60008261475757634e487b7160e01b600052601260045260246000fd5b500490565b600081600019048311821515161561477657614776614853565b500290565b60008282101561478d5761478d614853565b500390565b600064ffffffffff838116908316818110156147b0576147b0614853565b039392505050565b600060ff821660ff8416808210156147d2576147d2614853565b90039392505050565b60005b838110156147f65781810151838201526020016147de565b83811115611f3d5750506000910152565b60008161481657614816614853565b506000190190565b600181811c9082168061483257607f821691505b6020821081141561407b57634e487b7160e01b600052602260045260246000fd5b634e487b7160e01b600052601160045260246000fd5b634e487b7160e01b600052602160045260246000fd5b634e487b7160e01b600052603260045260246000fd5b634e487b7160e01b600052604160045260246000fd5b6001600160a01b0381168114610efc57600080fd5b8015158114610efc57600080fdfebf372ca3ebecfe59ac256f17697941bbe63302aced610e8b0e3646f743c7beb25ec196419322369c6bac572d883f4d990ae5ec82f7d93cdf89b85dbb05b63c27416464726573733a206c6f772d6c6576656c2064656c65676174652063616c6c206661696c6564a82e22387fca439f316d78ca566f383218ab8ae1b3e830178c9c82cbd16749c055435dd261a4b9b3364963f7738a7a662ad9c84396d64be3365284bb7f0a5041a26469706673582212205cbbae547176a45657c2f01ee50f3aa54e92c1e1192e4a7848f364f623c8da1d64736f6c63430008060033",
  "linkReferences": {},
  "deployedLinkReferences": {}
}